{
  "contractName": "CurrencyLib",
  "abi": [
    {
      "constant": false,
      "inputs": [
        {
          "name": "state",
          "type": "StateLib.State storage"
        },
        {
          "name": "group",
          "type": "GroupLib.Group storage"
        },
        {
          "name": "receiver",
          "type": "PostLib.Post storage"
        },
        {
          "name": "amount",
          "type": "uint256"
        },
        {
          "name": "increase",
          "type": "bool"
        }
      ],
      "name": "transferTokensToPost",
      "outputs": [],
      "payable": false,
      "stateMutability": "nonpayable",
      "type": "function"
    },
    {
      "constant": false,
      "inputs": [
        {
          "name": "state",
          "type": "StateLib.State storage"
        },
        {
          "name": "group",
          "type": "GroupLib.Group storage"
        },
        {
          "name": "receiverAddress",
          "type": "address"
        },
        {
          "name": "amount",
          "type": "uint256"
        },
        {
          "name": "increase",
          "type": "bool"
        }
      ],
      "name": "transferTokensToUser",
      "outputs": [],
      "payable": false,
      "stateMutability": "nonpayable",
      "type": "function"
    },
    {
      "anonymous": false,
      "inputs": [
        {
          "indexed": true,
          "name": "parentNumber",
          "type": "uint256"
        },
        {
          "indexed": true,
          "name": "userAddress",
          "type": "address"
        },
        {
          "indexed": false,
          "name": "amount",
          "type": "uint256"
        },
        {
          "indexed": false,
          "name": "increased",
          "type": "bool"
        }
      ],
      "name": "UserBalanceChanged",
      "type": "event"
    },
    {
      "anonymous": false,
      "inputs": [
        {
          "indexed": true,
          "name": "parentNumber",
          "type": "uint256"
        },
        {
          "indexed": true,
          "name": "postNumber",
          "type": "uint256"
        },
        {
          "indexed": false,
          "name": "amount",
          "type": "uint256"
        },
        {
          "indexed": false,
          "name": "increased",
          "type": "bool"
        }
      ],
      "name": "PostBalanceChanged",
      "type": "event"
    },
    {
      "anonymous": false,
      "inputs": [
        {
          "indexed": true,
          "name": "postNumber",
          "type": "uint256"
        },
        {
          "indexed": false,
          "name": "amount",
          "type": "uint256"
        },
        {
          "indexed": false,
          "name": "increased",
          "type": "bool"
        }
      ],
      "name": "PostTokensChanged",
      "type": "event"
    }
  ],
  "bytecode": "0x6060604052341561000f57600080fd5b6106d38061001e6000396000f30060606040526004361061004c576000357c0100000000000000000000000000000000000000000000000000000000900463ffffffff1680630bd4b0f41461005157806392161d881461008f575b600080fd5b61008d600480803590602001909190803590602001909190803590602001909190803590602001909190803515159060200190919050506100e3565b005b6100e1600480803590602001909190803590602001909190803573ffffffffffffffffffffffffffffffffffffffff1690602001909190803590602001909190803515159060200190919050506101e4565b005b6000808314156100f2576101dc565b73__GroupLib______________________________633e8d458c878787601101546000604051602001526040518463ffffffff167c010000000000000000000000000000000000000000000000000000000002815260040180848152602001838152602001828152602001935050505060206040518083038186803b151561017957600080fd5b6102c65a03f4151561018a57600080fd5b50505060405180519050151561019f57600080fd5b6101aa868633610248565b90506101c0838260040154866013015485610274565b92506101cf85828560006102d1565b6101db8585858561045e565b5b505050505050565b60008060008414156101f55761023f565b610200878733610248565b915061020d878787610248565b9050610223848360040154836004015486610274565b935061023286838660006102d1565b61023e868286866102d1565b5b50505050505050565b60006102558484846105b5565b151561026057600080fd5b61026b8484846105fe565b90509392505050565b6000811561029257848411610289578361028b565b845b90506102c9565b84841015156102b45784831015156102ac578490506102c9565b8290506102c9565b83831015156102c5578390506102c9565b8290505b949350505050565b6000806000808660040154935087600201549250841561033c576102f988600201548761064a565b886002018190555061030f886002015484610688565b905061031f87600401548261064a565b8760040181905550610335876004015485610688565b9150610389565b61034a876004015487610688565b8760040181905550610360848860040154610688565b9150610370886002015483610688565b8860020181905550610386838960020154610688565b90505b8660000160009054906101000a900473ffffffffffffffffffffffffffffffffffffffff1673ffffffffffffffffffffffffffffffffffffffff1688600101547f2e059c295c455531568b11c53cf3b686d0da4b0f817fa7b31f2b40e7182ca3f5848860405180838152602001821515151581526020019250505060405180910390a387600101547f9a715461e57fab920501d1b45d275cd77d7ef897cf2553053a36680151d7078d828760405180838152602001821515151581526020019250505060405180910390a25050505050505050565b600080600080866013015493508760020154925084156104c95761048688600201548761064a565b886002018190555061049c886002015484610688565b90506104ac87601301548261064a565b87601301819055506104c2876013015485610688565b9150610516565b6104d7876013015487610688565b87601301819055506104ed848860130154610688565b91506104fd886002015483610688565b8860020181905550610513838960020154610688565b90505b866011015488600101547fa49556adbe4cf7bc6dd68f4130fdc93b03cb75bf223c9959608a34b0210568f5848860405180838152602001821515151581526020019250505060405180910390a387600101547f9a715461e57fab920501d1b45d275cd77d7ef897cf2553053a36680151d7078d828760405180838152602001821515151581526020019250505060405180910390a25050505050505050565b6000808273ffffffffffffffffffffffffffffffffffffffff16141580156105f557506105e38484846105fe565b60060160009054906101000a900460ff165b90509392505050565b60008260030160008373ffffffffffffffffffffffffffffffffffffffff1673ffffffffffffffffffffffffffffffffffffffff16815260200190815260200160002090509392505050565b6000828284019150811015610681577fffffffffffffffffffffffffffffffffffffffffffffffffffffffffffffffff9050610682565b5b92915050565b60008282840391508111156106a057600090506106a1565b5b929150505600a165627a7a723058206c63014f5a42d8a129d7319d159d44ed188a1816dcf93389dc55962aa885f7bc0029",
  "source": "pragma solidity ^0.4.11;\n\nimport \"./UserLib.sol\";\nimport \"./PostLib.sol\";\n\nlibrary CurrencyLib {\n  struct State {\n    uint256 total;\n  }\n\n  event UserBalanceChanged(\n    uint256 indexed parentNumber,\n    address indexed userAddress,\n    uint256 amount,\n    bool increased\n  );\n  event PostBalanceChanged(\n    uint256 indexed parentNumber,\n    uint256 indexed postNumber,\n    uint256 amount,\n    bool increased\n  );\n  event PostTokensChanged(\n    uint256 indexed postNumber,\n    uint256 amount,\n    bool increased\n  );\n\n\n  function equalizeTokens(\n    uint256 amount,\n    uint256 senderBalance,\n    uint256 receiverBalance,\n    bool increase\n  ) private pure returns (\n    uint256\n  ) {\n    if (increase) {\n      return (senderBalance > amount ? amount : senderBalance);\n    } else {\n      if (senderBalance >= amount) { //have enough to complete\n        if (receiverBalance >= amount) { //can take full blow\n          //Scenario: ideal\n          return (amount);\n        } else { //can't take the full blow\n          //Scenario: smashed\n          return (receiverBalance);\n        }\n      } else { //don't have enough to complete\n        if (receiverBalance >= senderBalance) { //can take all sender has got\n          //Scenario: poor boy\n          return (senderBalance);\n        } else { //can't even take what sender has got\n          //Scenario: poor smasher\n          return (receiverBalance);\n        }\n      }\n    }\n  }\n\n  function transferTokensToUser(\n    StateLib.State storage state,\n//    uint256 parentNum,\n    GroupLib.Group storage group,\n    address receiverAddress,\n    uint256 amount,\n    bool increase\n  ) public {\n    if (amount == 0) {\n      return;\n    }\n    var sender = GroupLib.getUserProperties(state, group, msg.sender);\n    var receiver = GroupLib.getUserProperties(state, group, receiverAddress);\n    //var parent = PostLib.getPost(state, parentNum);\n    //doing the getUserProperties calls here lets them do their requires() for validation\n\n    amount = equalizeTokens(\n      amount,\n      sender.balance,\n      receiver.balance,\n      increase\n    );\n\n    awardTokensToUser(group, sender, amount, false);\n    awardTokensToUser(group, receiver, amount, increase);\n    //TODO: ruleset taxes, not 1:1 deduction?\n  }\n\n  function transferTokensToPost(\n    StateLib.State storage state,\n//    uint256 parentNum,\n//    PostLib.Post storage parent,\n    GroupLib.Group storage group,\n    PostLib.Post storage receiver,\n//    uint256 postNum,\n    uint256 amount,\n    bool increase\n  ) public {\n    if (amount == 0) {\n      return;\n    }\n\n//    uint256 parentNum = parent.number;\n//    uint256 postNum = receiver.number;\n    require(GroupLib.isSubpost(state, group, receiver.number));\n\n    var sender = GroupLib.getUserProperties(state, group, msg.sender);\n    //var sender = UserLib.getUser(state, parent.number, msg.sender);\n    //var receiver = PostLib.getPost(state, postNum);\n    //var parent = PostLib.getPost(state, parentNum);\n    amount = equalizeTokens(\n      amount,\n      sender.balance,\n      receiver.balance,\n      increase\n    );\n\n    awardTokensToUser(group, sender, amount, false);\n    awardTokensToPost(group, receiver, amount, increase);\n    //TODO: ruleset taxes, not 1:1 deduction?\n  }\n\n  function add(uint256 x, uint256 y) pure internal returns (uint256 z) {\n    if ((z = x + y) < x) {\n      return (2**256 - 1);\n    }\n  }\n\n  function subtract(uint256 x, uint256 y) pure internal returns (uint256 z) {\n    if ((z = x - y) > x) {\n      return (0);\n    }\n  }\n\n  function awardTokensToUser(\n//    StateLib.State storage state,\n    GroupLib.Group storage group,\n//    PostLib.Post storage parent,\n    UserLib.User storage user,\n    uint256 amount,\n    bool increase\n  ) internal {\n    uint256 oldUserBalance = user.balance;\n    uint256 oldParentBalance = group.tokens;\n    uint256 userDelta;\n    uint256 groupDelta;\n    if (increase) {\n      group.tokens = add(group.tokens, amount);\n      groupDelta = subtract(group.tokens, oldParentBalance);\n      user.balance = add(user.balance, groupDelta); //group tokens >= user balance, so if group tokens maxes out at 2^256, then the user can't get any more tokens\n      userDelta = subtract(user.balance, oldUserBalance);\n    } else {\n      user.balance = subtract(user.balance, amount);\n      userDelta = subtract(oldUserBalance, user.balance);\n      group.tokens = subtract(group.tokens, userDelta); //if the user runs out of tokens part of the way through the transfer, only subtract the amount the user did have from the group tokens\n      groupDelta = subtract(oldParentBalance, group.tokens);\n    }\n    UserBalanceChanged(group.number, user.addr, userDelta, increase);\n    PostTokensChanged(group.number, groupDelta, increase);\n  }\n\n  function awardTokensToPost(\n//    StateLib.State storage state,\n    GroupLib.Group storage group,\n//    PostLib.Post storage parent,\n    PostLib.Post storage post,\n    uint256 amount,\n    bool increase\n  ) internal {\n    uint256 oldPostBalance = post.balance;\n    uint256 oldParentBalance = group.tokens;\n    uint256 postDelta;\n    uint256 groupDelta;\n    if (increase) {\n      group.tokens = add(group.tokens, amount);\n      groupDelta = subtract(group.tokens, oldParentBalance);\n      post.balance = add(post.balance, groupDelta);\n      postDelta = subtract(post.balance, oldPostBalance);\n    } else {\n      post.balance = subtract(post.balance, amount);\n      postDelta = subtract(oldPostBalance, post.balance);\n      group.tokens = subtract(group.tokens, postDelta);\n      groupDelta = subtract(oldParentBalance, group.tokens);\n    }\n    PostBalanceChanged(group.number, post.number, postDelta, increase);\n    PostTokensChanged(group.number, groupDelta, increase);\n  }\n}\n",
  "sourcePath": "/home/tybrown/Nextcloud/Documents/School/GATech_2017_Fall/CS-3312/CyberneticChat-Frontend/contracts/CurrencyLib.sol",
  "compiler": {
    "name": "solc",
    "version": "0.4.18+commit.9cf6e910.Emscripten.clang"
  },
  "schemaVersion": "1.0.1",
  "updatedAt": "2017-11-15T20:33:50.098Z"
}