{
  "contractName": "CurrencyLib",
  "abi": [
    {
      "constant": false,
      "inputs": [
        {
          "name": "state",
          "type": "StateLib.State storage"
        },
        {
          "name": "parent",
          "type": "PostLib.Post storage"
        },
        {
          "name": "receiver",
          "type": "PostLib.Post storage"
        },
        {
          "name": "amount",
          "type": "uint256"
        },
        {
          "name": "increase",
          "type": "bool"
        }
      ],
      "name": "transferTokensToPost",
      "outputs": [],
      "payable": false,
      "stateMutability": "nonpayable",
      "type": "function"
    },
    {
      "constant": false,
      "inputs": [
        {
          "name": "state",
          "type": "StateLib.State storage"
        },
        {
          "name": "parent",
          "type": "PostLib.Post storage"
        },
        {
          "name": "receiverAddress",
          "type": "address"
        },
        {
          "name": "amount",
          "type": "uint256"
        },
        {
          "name": "increase",
          "type": "bool"
        }
      ],
      "name": "transferTokensToUser",
      "outputs": [],
      "payable": false,
      "stateMutability": "nonpayable",
      "type": "function"
    },
    {
      "anonymous": false,
      "inputs": [
        {
          "indexed": true,
          "name": "parentNumber",
          "type": "uint256"
        },
        {
          "indexed": true,
          "name": "userAddress",
          "type": "address"
        },
        {
          "indexed": false,
          "name": "amount",
          "type": "uint256"
        },
        {
          "indexed": false,
          "name": "increased",
          "type": "bool"
        }
      ],
      "name": "UserBalanceChanged",
      "type": "event"
    },
    {
      "anonymous": false,
      "inputs": [
        {
          "indexed": true,
          "name": "parentNumber",
          "type": "uint256"
        },
        {
          "indexed": true,
          "name": "postNumber",
          "type": "uint256"
        },
        {
          "indexed": false,
          "name": "amount",
          "type": "uint256"
        },
        {
          "indexed": false,
          "name": "increased",
          "type": "bool"
        }
      ],
      "name": "PostBalanceChanged",
      "type": "event"
    }
  ],
  "bytecode": "0x6060604052341561000f57600080fd5b6106908061001e6000396000f30060606040526004361061004c576000357c0100000000000000000000000000000000000000000000000000000000900463ffffffff1680631975ea4814610051578063a8343c3b1461008f575b600080fd5b61008d600480803590602001909190803590602001909190803590602001909190803590602001909190803515159060200190919050506100e3565b005b6100e1600480803590602001909190803590602001909190803573ffffffffffffffffffffffffffffffffffffffff169060200190919080359060200190919080351515906020019091905050610143565b005b6000808314156100f25761013b565b610105868660060154866006015461019a565b151561011057600080fd5b61011f868660060154336101cd565b905061012e85828560006101f9565b61013a8585858561038e565b5b505050505050565b60008060008085141561015557610190565b866006015492506101678884336101cd565b91506101748884886101cd565b905061018387838760006101f9565b61018f878287876101f9565b5b5050505050505050565b6000806101a785856104ea565b905060008160110160008581526020019081526020016000205414159150509392505050565b60006101da848484610513565b15156101e557600080fd5b6101f084848461055c565b90509392505050565b60008060008086600701549350876009015492508415610264576102218860090154876105b6565b88600901819055506102378860090154846105f4565b90506102478760070154876105b6565b876007018190555061025d8760070154856105f4565b91506102b1565b6102728860090154876105f4565b88600901819055506102888389600901546105f4565b90506102988760070154876105f4565b87600701819055506102ae8488600701546105f4565b91505b8660000160040160009054906101000a900473ffffffffffffffffffffffffffffffffffffffff1673ffffffffffffffffffffffffffffffffffffffff1688600601547f2e059c295c455531568b11c53cf3b686d0da4b0f817fa7b31f2b40e7182ca3f5848860405180838152602001821515151581526020019250505060405180910390a3876006015488600701547fa49556adbe4cf7bc6dd68f4130fdc93b03cb75bf223c9959608a34b0210568f5838860405180838152602001821515151581526020019250505060405180910390a35050505050505050565b600080600080866008015493508760090154925084156103f9576103b68860090154876105b6565b88600901819055506103cc8860090154846105f4565b90506103dc8760080154876105b6565b87600801819055506103f28760080154856105f4565b9150610446565b6104078860090154876105f4565b886009018190555061041d8389600901546105f4565b905061042d8760080154876105f4565b87600801819055506104438488600801546105f4565b91505b866006015488600601547fa49556adbe4cf7bc6dd68f4130fdc93b03cb75bf223c9959608a34b0210568f5848860405180838152602001821515151581526020019250505060405180910390a3876006015488600701547fa49556adbe4cf7bc6dd68f4130fdc93b03cb75bf223c9959608a34b0210568f5838860405180838152602001821515151581526020019250505060405180910390a35050505050505050565b60006104f68383610613565b151561050157600080fd5b61050b8383610642565b905092915050565b6000808273ffffffffffffffffffffffffffffffffffffffff1614158015610553575061054184848461055c565b60090160009054906101000a900460ff165b90509392505050565b60008061056985856104ea565b905080600d0160008473ffffffffffffffffffffffffffffffffffffffff1673ffffffffffffffffffffffffffffffffffffffff1681526020019081526020016000209150509392505050565b60008282840191508110156105ed577fffffffffffffffffffffffffffffffffffffffffffffffffffffffffffffffff90506105ee565b5b92915050565b600082828403915081111561060c576000905061060d565b5b92915050565b60008260020160000154821115801561063a575060006106338484610642565b6006015414155b905092915050565b60008260000160000160008381526020019081526020016000209050929150505600a165627a7a72305820c615bcab82b40f830eebb4d5cd3fc86f3499b15c1a17f0c3e7066c37be6e2f0c0029",
  "source": "pragma solidity ^0.4.11;\n\nimport \"./UserLib.sol\";\nimport \"./PostLib.sol\";\n\nlibrary CurrencyLib {\n  struct State {\n    uint256 total;\n  }\n\n  event UserBalanceChanged(\n    uint256 indexed parentNumber,\n    address indexed userAddress,\n    uint256 amount,\n    bool increased\n  );\n  event PostBalanceChanged(\n    uint256 indexed parentNumber,\n    uint256 indexed postNumber,\n    uint256 amount,\n    bool increased\n  );\n\n\n\n  function transferTokensToUser(\n    StateLib.State storage state,\n//    uint256 parentNum,\n    PostLib.Post storage parent,\n    address receiverAddress,\n    uint256 amount,\n    bool increase\n  ) public {\n    if (amount == 0) {\n      return;\n    }\n    uint256 parentNum = parent.number;\n    var sender = UserLib.getUser(state, parentNum, msg.sender);\n    var receiver = UserLib.getUser(state, parentNum, receiverAddress);\n    //var parent = PostLib.getPost(state, parentNum);\n    //doing the getUser calls here lets them do their requires() for validation\n\n    awardTokensToUser(parent, sender, amount, false);\n    awardTokensToUser(parent, receiver, amount, increase);\n    //TODO: ruleset taxes, not 1:1 deduction?\n  }\n\n  function transferTokensToPost(\n    StateLib.State storage state,\n//    uint256 parentNum,\n    PostLib.Post storage parent,\n    PostLib.Post storage receiver,\n//    uint256 postNum,\n    uint256 amount,\n    bool increase\n  ) public {\n    if (amount == 0) {\n      return;\n    }\n//    uint256 parentNum = parent.number;\n//    uint256 postNum = receiver.number;\n    require(PostLib.isChild(state, parent.number, receiver.number));\n\n    var sender = UserLib.getUser(state, parent.number, msg.sender);\n//    var receiver = PostLib.getPost(state, postNum);\n    //var parent = PostLib.getPost(state, parentNum);\n\n    awardTokensToUser(parent, sender, amount, false);\n    awardTokensToPost(parent, receiver, amount, increase);\n    //TODO: ruleset taxes, not 1:1 deduction?\n  }\n\n  function add(uint256 x, uint256 y) pure internal returns (uint256 z) {\n    if ((z = x + y) < x) {\n      return (2**256 - 1);\n    }\n  }\n\n  function subtract(uint256 x, uint256 y) pure internal returns (uint256 z) {\n    if ((z = x - y) > x) {\n      return (0);\n    }\n  }\n\n  function awardTokensToUser(\n//    StateLib.State storage state,\n    PostLib.Post storage parent,\n    UserLib.User storage user,\n    uint256 amount,\n    bool increase\n  ) internal {\n    uint256 oldUserBalance = user.balance;\n    uint256 oldParentBalance = parent.tokens;\n    uint256 userDelta;\n    uint256 parentDelta;\n    if (increase) {\n      parent.tokens = add(parent.tokens, amount);\n      parentDelta = subtract(parent.tokens, oldParentBalance);\n      user.balance = add(user.balance, amount);\n      userDelta = subtract(user.balance, oldUserBalance);\n    } else {\n      parent.tokens = subtract(parent.tokens, amount);\n      parentDelta = subtract(oldParentBalance, parent.tokens);\n      user.balance = subtract(user.balance, amount);\n      userDelta = subtract(oldUserBalance, user.balance);\n    }\n    UserBalanceChanged(parent.number, user.contents.creator, userDelta, increase);\n    PostBalanceChanged(parent.parentNum, parent.number, parentDelta, increase);\n  }\n\n  function awardTokensToPost(\n//    StateLib.State storage state,\n    PostLib.Post storage parent,\n    PostLib.Post storage post,\n    uint256 amount,\n    bool increase\n  ) internal {\n    uint256 oldPostBalance = post.balance;\n    uint256 oldParentBalance = parent.tokens;\n    uint256 postDelta;\n    uint256 parentDelta;\n    if (increase) {\n      parent.tokens = add(parent.tokens, amount);\n      parentDelta = subtract(parent.tokens, oldParentBalance);\n      post.balance = add(post.balance, amount);\n      postDelta = subtract(post.balance, oldPostBalance);\n    } else {\n      parent.tokens = subtract(parent.tokens, amount);\n      parentDelta = subtract(oldParentBalance, parent.tokens);\n      post.balance = subtract(post.balance, amount);\n      postDelta = subtract(oldPostBalance, post.balance);\n    }\n    PostBalanceChanged(parent.number, post.number, postDelta, increase);\n    PostBalanceChanged(parent.parentNum, parent.number, parentDelta, increase);\n  }\n}\n",
  "sourcePath": "/home/tybrown/Nextcloud/Documents/School/GATech_2017_Fall/CS-3312/CyberneticChat-Frontend/contracts/CurrencyLib.sol",
  "compiler": {
    "name": "solc",
    "version": "0.4.18+commit.9cf6e910.Emscripten.clang"
  },
  "schemaVersion": "1.0.1",
  "updatedAt": "2017-11-05T22:18:50.690Z"
}