{
  "contractName": "CurrencyLib",
  "abi": [
    {
      "constant": false,
      "inputs": [
        {
          "name": "state",
          "type": "StateLib.State storage"
        },
        {
          "name": "parent",
          "type": "PostLib.Post storage"
        },
        {
          "name": "receiver",
          "type": "PostLib.Post storage"
        },
        {
          "name": "amount",
          "type": "uint256"
        },
        {
          "name": "increase",
          "type": "bool"
        }
      ],
      "name": "transferTokensToPost",
      "outputs": [],
      "payable": false,
      "stateMutability": "nonpayable",
      "type": "function"
    },
    {
      "constant": false,
      "inputs": [
        {
          "name": "state",
          "type": "StateLib.State storage"
        },
        {
          "name": "parent",
          "type": "PostLib.Post storage"
        },
        {
          "name": "receiverAddress",
          "type": "address"
        },
        {
          "name": "amount",
          "type": "uint256"
        },
        {
          "name": "increase",
          "type": "bool"
        }
      ],
      "name": "transferTokensToUser",
      "outputs": [],
      "payable": false,
      "stateMutability": "nonpayable",
      "type": "function"
    },
    {
      "anonymous": false,
      "inputs": [
        {
          "indexed": true,
          "name": "parentNumber",
          "type": "uint256"
        },
        {
          "indexed": true,
          "name": "userAddress",
          "type": "address"
        },
        {
          "indexed": false,
          "name": "amount",
          "type": "uint256"
        },
        {
          "indexed": false,
          "name": "increased",
          "type": "bool"
        }
      ],
      "name": "UserBalanceChanged",
      "type": "event"
    },
    {
      "anonymous": false,
      "inputs": [
        {
          "indexed": true,
          "name": "parentNumber",
          "type": "uint256"
        },
        {
          "indexed": true,
          "name": "postNumber",
          "type": "uint256"
        },
        {
          "indexed": false,
          "name": "amount",
          "type": "uint256"
        },
        {
          "indexed": false,
          "name": "increased",
          "type": "bool"
        }
      ],
      "name": "PostBalanceChanged",
      "type": "event"
    },
    {
      "anonymous": false,
      "inputs": [
        {
          "indexed": true,
          "name": "postNumber",
          "type": "uint256"
        },
        {
          "indexed": false,
          "name": "amount",
          "type": "uint256"
        },
        {
          "indexed": false,
          "name": "increased",
          "type": "bool"
        }
      ],
      "name": "PostTokensChanged",
      "type": "event"
    }
  ],
  "bytecode": "0x6060604052341561000f57600080fd5b61074f8061001e6000396000f30060606040526004361061004c576000357c0100000000000000000000000000000000000000000000000000000000900463ffffffff1680631975ea4814610051578063a8343c3b1461008f575b600080fd5b61008d600480803590602001909190803590602001909190803590602001909190803590602001909190803515159060200190919050506100e3565b005b6100e1600480803590602001909190803590602001909190803573ffffffffffffffffffffffffffffffffffffffff1690602001909190803590602001909190803515159060200190919050506101a9565b005b6000806000808514156100f55761019f565b6101088888600601548860060154610266565b151561011357600080fd5b61012288886006015433610299565b92508260030154915083156101475784821161013e5781610140565b845b9450610185565b85600801549050848210151561016e57848110151561016557610169565b8094505b610184565b818110151561017f57819450610183565b8094505b5b5b61019287848760006102c5565b61019e87878787610452565b5b5050505050505050565b6000806000806000808714156101be5761025a565b886006015494506101d08a8633610299565b93506101dd8a868a610299565b9250836003015491508515610202578682116101f957816101fb565b865b9650610240565b82600301549050868210151561022957868110151561022057610224565b8096505b61023f565b818110151561023a5781965061023e565b8096505b5b5b61024d89858960006102c5565b610259898489896102c5565b5b50505050505050505050565b60008061027385856105a9565b905060008160110160008581526020019081526020016000205414159150509392505050565b60006102a68484846105d2565b15156102b157600080fd5b6102bc84848461061b565b90509392505050565b60008060008086600301549350876009015492508415610330576102ed886009015487610675565b88600901819055506103038860090154846106b3565b9050610313876003015482610675565b87600301819055506103298760030154856106b3565b915061037d565b61033e8760030154876106b3565b87600301819055506103548488600301546106b3565b91506103648860090154836106b3565b886009018190555061037a8389600901546106b3565b90505b8660000160009054906101000a900473ffffffffffffffffffffffffffffffffffffffff1673ffffffffffffffffffffffffffffffffffffffff1688600601547f2e059c295c455531568b11c53cf3b686d0da4b0f817fa7b31f2b40e7182ca3f5848860405180838152602001821515151581526020019250505060405180910390a387600601547f9a715461e57fab920501d1b45d275cd77d7ef897cf2553053a36680151d7078d828760405180838152602001821515151581526020019250505060405180910390a25050505050505050565b600080600080866008015493508760090154925084156104bd5761047a886009015487610675565b88600901819055506104908860090154846106b3565b90506104a0876008015482610675565b87600801819055506104b68760080154856106b3565b915061050a565b6104cb8760080154876106b3565b87600801819055506104e18488600801546106b3565b91506104f18860090154836106b3565b88600901819055506105078389600901546106b3565b90505b866006015488600601547fa49556adbe4cf7bc6dd68f4130fdc93b03cb75bf223c9959608a34b0210568f5848860405180838152602001821515151581526020019250505060405180910390a387600601547f9a715461e57fab920501d1b45d275cd77d7ef897cf2553053a36680151d7078d828760405180838152602001821515151581526020019250505060405180910390a25050505050505050565b60006105b583836106d2565b15156105c057600080fd5b6105ca8383610701565b905092915050565b6000808273ffffffffffffffffffffffffffffffffffffffff1614158015610612575061060084848461061b565b60050160009054906101000a900460ff165b90509392505050565b60008061062885856105a9565b905080600d0160008473ffffffffffffffffffffffffffffffffffffffff1673ffffffffffffffffffffffffffffffffffffffff1681526020019081526020016000209150509392505050565b60008282840191508110156106ac577fffffffffffffffffffffffffffffffffffffffffffffffffffffffffffffffff90506106ad565b5b92915050565b60008282840391508111156106cb57600090506106cc565b5b92915050565b6000826003016000015482111580156106f9575060006106f28484610701565b6006015414155b905092915050565b60008260000160000160008381526020019081526020016000209050929150505600a165627a7a723058204a726a9e1962821017e0e3fa0e8e95d9af8db394f7bd9208d2e8f710236341e20029",
  "source": "pragma solidity ^0.4.11;\n\nimport \"./UserLib.sol\";\nimport \"./PostLib.sol\";\n\nlibrary CurrencyLib {\n  struct State {\n    uint256 total;\n  }\n\n  event UserBalanceChanged(\n    uint256 indexed parentNumber,\n    address indexed userAddress,\n    uint256 amount,\n    bool increased\n  );\n  event PostBalanceChanged(\n    uint256 indexed parentNumber,\n    uint256 indexed postNumber,\n    uint256 amount,\n    bool increased\n  );\n  event PostTokensChanged(\n    uint256 indexed postNumber,\n    uint256 amount,\n    bool increased\n  );\n\n\n\n  function transferTokensToUser(\n    StateLib.State storage state,\n//    uint256 parentNum,\n    PostLib.Post storage parent,\n    address receiverAddress,\n    uint256 amount,\n    bool increase\n  ) public {\n    if (amount == 0) {\n      return;\n    }\n    uint256 parentNum = parent.number;\n    var sender = UserLib.getUser(state, parentNum, msg.sender);\n    var receiver = UserLib.getUser(state, parentNum, receiverAddress);\n    //var parent = PostLib.getPost(state, parentNum);\n    //doing the getUser calls here lets them do their requires() for validation\n\n    uint256 senderBalance = sender.balance;\n    if (increase) {\n      amount = (senderBalance > amount ? amount : senderBalance);\n    } else {\n      uint256 receiverBalance = receiver.balance;\n      if (senderBalance >= amount) { //have enough to complete\n        if (receiverBalance >= amount) { //can take full blow\n          //Scenario: ideal\n        } else { //can't take the full blow\n          //Scenario: smashed\n          amount = receiverBalance;\n        }\n      } else { //don't have enough to complete\n        if (receiverBalance >= senderBalance) { //can take all sender has got\n          //Scenario: poor boy\n          amount = senderBalance;\n        } else { //can't even take what sender has got\n          //Scenario: poor smasher\n          amount = receiverBalance;\n        }\n      }\n    }\n\n    awardTokensToUser(parent, sender, amount, false);\n    awardTokensToUser(parent, receiver, amount, increase);\n    //TODO: ruleset taxes, not 1:1 deduction?\n  }\n\n  function transferTokensToPost(\n    StateLib.State storage state,\n//    uint256 parentNum,\n    PostLib.Post storage parent,\n    PostLib.Post storage receiver,\n//    uint256 postNum,\n    uint256 amount,\n    bool increase\n  ) public {\n    if (amount == 0) {\n      return;\n    }\n\n//    uint256 parentNum = parent.number;\n//    uint256 postNum = receiver.number;\n    require(PostLib.isChild(state, parent.number, receiver.number));\n\n    var sender = UserLib.getUser(state, parent.number, msg.sender);\n//    var receiver = PostLib.getPost(state, postNum);\n    //var parent = PostLib.getPost(state, parentNum);\n    uint256 senderBalance = sender.balance;\n    if (increase) {\n      amount = (senderBalance > amount ? amount : senderBalance);\n    } else {\n      uint256 receiverBalance = receiver.balance;\n      if (senderBalance >= amount) { //have enough to complete\n        if (receiverBalance >= amount) { //can take full blow\n          //Scenario: ideal\n        } else { //can't take the full blow\n          //Scenario: smashed\n          amount = receiverBalance;\n        }\n      } else { //don't have enough to complete\n        if (receiverBalance >= senderBalance) { //can take all sender has got\n          //Scenario: poor boy\n          amount = senderBalance;\n        } else { //can't even take what sender has got\n          //Scenario: poor smasher\n          amount = receiverBalance;\n        }\n      }\n    }\n    awardTokensToUser(parent, sender, amount, false);\n    awardTokensToPost(parent, receiver, amount, increase);\n    //TODO: ruleset taxes, not 1:1 deduction?\n  }\n\n  function add(uint256 x, uint256 y) pure internal returns (uint256 z) {\n    if ((z = x + y) < x) {\n      return (2**256 - 1);\n    }\n  }\n\n  function subtract(uint256 x, uint256 y) pure internal returns (uint256 z) {\n    if ((z = x - y) > x) {\n      return (0);\n    }\n  }\n\n  function awardTokensToUser(\n//    StateLib.State storage state,\n    PostLib.Post storage parent,\n    UserLib.User storage user,\n    uint256 amount,\n    bool increase\n  ) internal {\n    uint256 oldUserBalance = user.balance;\n    uint256 oldParentBalance = parent.tokens;\n    uint256 userDelta;\n    uint256 parentDelta;\n    if (increase) {\n      parent.tokens = add(parent.tokens, amount);\n      parentDelta = subtract(parent.tokens, oldParentBalance);\n      user.balance = add(user.balance, parentDelta); //parent tokens >= user balance, so if parent tokens maxes out at 2^256, then the user can't get any more tokens\n      userDelta = subtract(user.balance, oldUserBalance);\n    } else {\n      user.balance = subtract(user.balance, amount);\n      userDelta = subtract(oldUserBalance, user.balance);\n      parent.tokens = subtract(parent.tokens, userDelta); //if the user runs out of tokens part of the way through the transfer, only subtract the amount the user did have from the parent tokens\n      parentDelta = subtract(oldParentBalance, parent.tokens);\n    }\n    UserBalanceChanged(parent.number, user.addr, userDelta, increase);\n    PostTokensChanged(parent.number, parentDelta, increase);\n  }\n\n  function awardTokensToPost(\n//    StateLib.State storage state,\n    PostLib.Post storage parent,\n    PostLib.Post storage post,\n    uint256 amount,\n    bool increase\n  ) internal {\n    uint256 oldPostBalance = post.balance;\n    uint256 oldParentBalance = parent.tokens;\n    uint256 postDelta;\n    uint256 parentDelta;\n    if (increase) {\n      parent.tokens = add(parent.tokens, amount);\n      parentDelta = subtract(parent.tokens, oldParentBalance);\n      post.balance = add(post.balance, parentDelta);\n      postDelta = subtract(post.balance, oldPostBalance);\n    } else {\n      post.balance = subtract(post.balance, amount);\n      postDelta = subtract(oldPostBalance, post.balance);\n      parent.tokens = subtract(parent.tokens, postDelta);\n      parentDelta = subtract(oldParentBalance, parent.tokens);\n    }\n    PostBalanceChanged(parent.number, post.number, postDelta, increase);\n    PostTokensChanged(parent.number, parentDelta, increase);\n  }\n}\n",
  "sourcePath": "/home/tybrown/Nextcloud/Documents/School/GATech_2017_Fall/CS-3312/CyberneticChat-Frontend/contracts/CurrencyLib.sol",
  "compiler": {
    "name": "solc",
    "version": "0.4.18+commit.9cf6e910.Emscripten.clang"
  },
  "schemaVersion": "1.0.1",
  "updatedAt": "2017-11-15T03:35:19.743Z"
}