{
  "contractName": "GroupLib",
  "abi": [
    {
      "constant": true,
      "inputs": [
        {
          "name": "state",
          "type": "StateLib.State storage"
        },
        {
          "name": "group",
          "type": "GroupLib.Group storage"
        },
        {
          "name": "num",
          "type": "uint256"
        }
      ],
      "name": "isSubpost",
      "outputs": [
        {
          "name": "",
          "type": "bool"
        }
      ],
      "payable": false,
      "stateMutability": "view",
      "type": "function"
    },
    {
      "constant": false,
      "inputs": [
        {
          "name": "state",
          "type": "StateLib.State storage"
        },
        {
          "name": "group",
          "type": "GroupLib.Group storage"
        }
      ],
      "name": "joinGroup",
      "outputs": [],
      "payable": false,
      "stateMutability": "nonpayable",
      "type": "function"
    },
    {
      "constant": true,
      "inputs": [
        {
          "name": "state",
          "type": "StateLib.State storage"
        },
        {
          "name": "group",
          "type": "GroupLib.Group storage"
        },
        {
          "name": "userAddress",
          "type": "address"
        }
      ],
      "name": "userExists",
      "outputs": [
        {
          "name": "",
          "type": "bool"
        }
      ],
      "payable": false,
      "stateMutability": "view",
      "type": "function"
    },
    {
      "anonymous": false,
      "inputs": [
        {
          "indexed": true,
          "name": "parentNumber",
          "type": "uint256"
        },
        {
          "indexed": true,
          "name": "userAddress",
          "type": "address"
        }
      ],
      "name": "UserJoined",
      "type": "event"
    },
    {
      "anonymous": false,
      "inputs": [
        {
          "indexed": true,
          "name": "parentNumber",
          "type": "uint256"
        },
        {
          "indexed": true,
          "name": "userAddress",
          "type": "address"
        }
      ],
      "name": "UserLeft",
      "type": "event"
    },
    {
      "anonymous": false,
      "inputs": [
        {
          "indexed": true,
          "name": "parentNumber",
          "type": "uint256"
        },
        {
          "indexed": true,
          "name": "kickedUserAddress",
          "type": "address"
        },
        {
          "indexed": true,
          "name": "kickingUserAddress",
          "type": "address"
        },
        {
          "indexed": false,
          "name": "reason",
          "type": "string"
        }
      ],
      "name": "UserKicked",
      "type": "event"
    },
    {
      "anonymous": false,
      "inputs": [
        {
          "indexed": true,
          "name": "parentNumber",
          "type": "uint256"
        },
        {
          "indexed": true,
          "name": "bannedUserAddress",
          "type": "address"
        },
        {
          "indexed": true,
          "name": "banningUserAddress",
          "type": "address"
        },
        {
          "indexed": false,
          "name": "reason",
          "type": "string"
        }
      ],
      "name": "UserBanned",
      "type": "event"
    },
    {
      "anonymous": false,
      "inputs": [
        {
          "indexed": true,
          "name": "parentNumber",
          "type": "uint256"
        },
        {
          "indexed": true,
          "name": "mutedUserAddress",
          "type": "address"
        },
        {
          "indexed": true,
          "name": "mutingUserAddress",
          "type": "address"
        }
      ],
      "name": "UserMuted",
      "type": "event"
    }
  ],
  "bytecode": "0x6060604052341561000f57600080fd5b6107e28061001e6000396000f300606060405260043610610057576000357c0100000000000000000000000000000000000000000000000000000000900463ffffffff1680633e8d458c1461005c578063b39828e31461009e578063f769445c146100bf575b600080fd5b6100846004808035906020019091908035906020019091908035906020019091905050610117565b604051808215151515815260200191505060405180910390f35b6100bd600480803590602001909190803590602001909190505061013b565b005b6100fd600480803590602001909190803590602001909190803573ffffffffffffffffffffffffffffffffffffffff16906020019091905050610650565b604051808215151515815260200191505060405180910390f35b60008083600801600084815260200190815260200160002054141590509392505050565b610146828233610650565b156101505761064c565b8160000160020160009054906101000a900460ff16156102405773__PermissionLib_________________________63ddb30f408383336000604051602001526040518463ffffffff167c0100000000000000000000000000000000000000000000000000000000028152600401808481526020018381526020018273ffffffffffffffffffffffffffffffffffffffff1673ffffffffffffffffffffffffffffffffffffffff168152602001935050505060206040518083038186803b151561021957600080fd5b6102c65a03f4151561022a57600080fd5b50505060405180519050151561023f5761064c565b5b60008160060160003373ffffffffffffffffffffffffffffffffffffffff1673ffffffffffffffffffffffffffffffffffffffff168152602001908152602001600020541415610506578060040160008154809291906001019190505550610120604051908101604052803373ffffffffffffffffffffffffffffffffffffffff1681526020018260040154815260200182600001548152602001428152602001600081526020017fffffffffffffffffffffffffffffffffffffffffffffffffffffffffffffffff815260200160011515815260200160001515815260200160206040519081016040528060008152508152508160030160003373ffffffffffffffffffffffffffffffffffffffff1673ffffffffffffffffffffffffffffffffffffffff16815260200190815260200160002060008201518160000160006101000a81548173ffffffffffffffffffffffffffffffffffffffff021916908373ffffffffffffffffffffffffffffffffffffffff1602179055506020820151816001015560408201518160020155606082015181600301556080820151816004015560a0820151816005015560c08201518160060160006101000a81548160ff02191690831515021790555060e08201518160060160016101000a81548160ff02191690831515021790555061010082015181600701908051906020019061044b9291906106e5565b509050508060050180548060010182816104659190610765565b9160005260206000209001600033909190916101000a81548173ffffffffffffffffffffffffffffffffffffffff021916908373ffffffffffffffffffffffffffffffffffffffff1602179055505080600501805490508160060160003373ffffffffffffffffffffffffffffffffffffffff1673ffffffffffffffffffffffffffffffffffffffff16815260200190815260200160002081905550610603565b60018160030160003373ffffffffffffffffffffffffffffffffffffffff1673ffffffffffffffffffffffffffffffffffffffff16815260200190815260200160002060060160006101000a81548160ff021916908315150217905550338160050160018360060160003373ffffffffffffffffffffffffffffffffffffffff1673ffffffffffffffffffffffffffffffffffffffff16815260200190815260200160002054038154811015156105b957fe5b906000526020600020900160006101000a81548173ffffffffffffffffffffffffffffffffffffffff021916908373ffffffffffffffffffffffffffffffffffffffff1602179055505b3373ffffffffffffffffffffffffffffffffffffffff1681600101547f6a5f716eff9d9b77c04378575633c0f6784ea8d1a0b7cc011d723b4022decd5760405160405180910390a35b5050565b6000808273ffffffffffffffffffffffffffffffffffffffff1614158015610690575061067e848484610699565b60060160009054906101000a900460ff165b90509392505050565b60008260030160008373ffffffffffffffffffffffffffffffffffffffff1673ffffffffffffffffffffffffffffffffffffffff16815260200190815260200160002090509392505050565b828054600181600116156101000203166002900490600052602060002090601f016020900481019282601f1061072657805160ff1916838001178555610754565b82800160010185558215610754579182015b82811115610753578251825591602001919060010190610738565b5b5090506107619190610791565b5090565b81548183558181151161078c5781836000526020600020918201910161078b9190610791565b5b505050565b6107b391905b808211156107af576000816000905550600101610797565b5090565b905600a165627a7a72305820a913ff8536e1c5834a736afd0dcc8bc8982be38d78cc263cabb55dc3a6581d320029",
  "source": "pragma solidity ^0.4.11;\n\nimport \"./ContentLib.sol\";\nimport \"./CurrencyLib.sol\";\nimport \"./PostLib.sol\";\nimport \"./PermissionLib.sol\";\nimport \"./StateLib.sol\";\nimport \"./UserLib.sol\";\n\nlibrary GroupLib {\n\n  event UserJoined(\n    uint256 indexed parentNumber,\n    address indexed userAddress\n  );\n  event UserLeft(\n    uint256 indexed parentNumber,\n    address indexed userAddress\n  );\n  event UserKicked(\n    uint256 indexed parentNumber,\n    address indexed kickedUserAddress,\n    address indexed kickingUserAddress,\n    string reason\n  );\n  event UserBanned(\n    uint256 indexed parentNumber,\n    address indexed bannedUserAddress,\n    address indexed banningUserAddress,\n    string reason\n  );\n  event UserMuted(\n    uint256 indexed parentNumber,\n    address indexed mutedUserAddress,\n    address indexed mutingUserAddress\n  );\n\n  struct State {\n    mapping (uint256 => address[]) userAddressesBacking;\n    mapping (uint256 => uint256[]) subpostsBacking;\n  }\n\n  struct Group {\n    uint256 parentNum;\n    uint256 number;\n    uint256 tokens; //total amount of tokens managed by this group (post balances + user balances + group owned tokens)\n\n    mapping (address => UserLib.User) users;\n    uint256 userCount;\n\n    address[] userAddresses;\n    mapping (address => uint256) userAddressesMap; //maps a user address to the corresponding index in userAddresses, for deleting users\n\n    uint256[] subposts;\n    mapping (uint256 => uint256) subpostsMap; //maps a subpost number to the index +1 at which it is stored in the subpost array\n\n    bool userPermissionsFlagsMode;\n    mapping (int256 => int256) userPermissions; //for levels mode, user.permissions maps to a set of flags in userPermissions\n  }\n\n  function getGroupRaw(StateLib.State storage state, uint256 num) constant internal returns (Group storage) {\n    return (PostLib.getPostRaw(state, num).group);\n  }\n\n  function groupExists(StateLib.State storage state, uint256 num) constant internal returns (bool) {\n    return (PostLib.postExists(state, num) && getGroupRaw(state, num).number != 0);\n  }\n\n  function getGroup(StateLib.State storage state, uint256 num) constant internal returns (Group storage) {\n    require(groupExists(state, num));\n    return (getGroupRaw(state, num));\n  }\n\n  function getUserPropertiesRaw(StateLib.State storage state, Group storage group, address userAddress) constant internal returns (UserLib.User storage) {\n    return (group.users[userAddress]);\n  }\n\n  function userExists(StateLib.State storage state, Group storage group, address userAddress) constant public returns (bool) {\n    return (userAddress != 0x0 && getUserPropertiesRaw(state, group, userAddress).joined);\n  }\n\n  function getUserProperties(StateLib.State storage state, Group storage group, address userAddress) constant internal returns (UserLib.User storage) {\n    require(userExists(state, group, userAddress));\n    return (getUserPropertiesRaw(state, group, userAddress));\n  }\n\n  function getUsers(StateLib.State storage state, Group storage group) constant internal returns (address[]) {\n    return (group.userAddresses);\n  }\n\n  function joinGroup(StateLib.State storage state, Group storage group) public {\n    if (userExists(state, group, msg.sender)) {\n      return;\n    }\n\n    if (state.main.initialized) {\n      if (!PermissionLib.userJoin(state, group, msg.sender))\n        return;\n        //UserJoinDenied event emitted by permissionlib\n    }\n\n    if (group.userAddressesMap[msg.sender] == 0) { //user has never been in the group before\n      group.userCount++;\n      group.users[msg.sender] = UserLib.User({\n        parentNum: group.parentNum,\n        number: group.userCount,\n        addr: msg.sender,\n        balance: 0, //TODO: ruleset\n        joined: true,\n        joinTime: block.timestamp,\n        banned: false,\n        banReason: \"\",\n        permissions: -1 //TODO: ruleset, permissions for new users\n      });\n\n      group.userAddresses.push(msg.sender);\n      group.userAddressesMap[msg.sender] = group.userAddresses.length;\n    } else { //user has been in the group before, just restore the user\n      group.users[msg.sender].joined = true;\n      group.userAddresses[group.userAddressesMap[msg.sender] - 1] = msg.sender;\n    }\n\n    UserJoined(group.number, msg.sender);\n  }\n\n  function removeUser(StateLib.State storage state, Group storage group, address userAddress) internal {\n    if (group.userAddressesMap[msg.sender] == 0) //user has never been in the group before\n      return;\n    group.users[userAddress].joined = false;\n    group.userAddresses[group.userAddressesMap[userAddress] - 1] = address(0x0);\n    UserLeft(group.number, userAddress);\n  }\n\n  //apparently this function MUST be internal, otherwise joined=false in removeUser throws invalild opcode??\n  function leaveGroup(StateLib.State storage state, Group storage group) internal { \n    if (!userExists(state, group, msg.sender)) {\n      return;\n    }\n\n    //TODO: send the user their ether, based on ruleset\n    removeUser(state, group, msg.sender);\n  }\n\n  function getSubposts(StateLib.State storage state, Group storage group) constant internal returns (uint256[]) {\n    return (group.subposts);\n  }\n\n  function isSubpost(StateLib.State storage state, Group storage group, uint256 num) constant public returns (bool) {\n    return (group.subpostsMap[num] != 0);\n  }\n\n  function addPost(\n    StateLib.State storage state,\n    uint256 parentNum,\n    ContentLib.Content contents,\n    uint256 balance,\n    uint256 tokens,\n    bool userPermissionsFlagsMode,\n    int256 permissions\n  ) internal returns (PostLib.Post storage) {\n    uint256 number = ++state.postLib.count;\n    if (state.main.initialized) {\n      var parent = getGroup(state, parentNum);\n      parent.subposts.push(number);\n      parent.subpostsMap[number] = parent.subposts.length;\n    }\n    state.main.posts[number] = PostLib.Post({\n      contents: contents,\n      group: GroupLib.Group({\n        number: number,\n        parentNum: parentNum,\n        userCount: 0,\n        tokens: tokens,\n        userPermissionsFlagsMode: userPermissionsFlagsMode,\n        userAddresses: state.groupLib.userAddressesBacking[number],\n        subposts: state.groupLib.subpostsBacking[number]\n      }),\n      number: number,\n      parentNum: parentNum,\n      balance: balance,\n      permissions: permissions\n    });\n    if (!state.main.initialized) {\n      state.main.posts[number].group.subposts.push(0);\n      state.main.posts[number].group.subpostsMap[number] = 1; //state.main.posts[number].group.subposts.length\n    }\n    return (state.main.posts[number]);\n  }\n}\n",
  "sourcePath": "/home/tybrown/Nextcloud/Documents/School/GATech_2017_Fall/CS-3312/CyberneticChat-Frontend/contracts/GroupLib.sol",
  "compiler": {
    "name": "solc",
    "version": "0.4.18+commit.9cf6e910.Emscripten.clang"
  },
  "schemaVersion": "1.0.1",
  "updatedAt": "2017-11-15T20:33:50.135Z"
}