{
  "contractName": "GroupLib",
  "abi": [
    {
      "constant": true,
      "inputs": [
        {
          "name": "state",
          "type": "StateLib.State storage"
        },
        {
          "name": "group",
          "type": "GroupLib.Group storage"
        },
        {
          "name": "num",
          "type": "uint256"
        }
      ],
      "name": "isSubpost",
      "outputs": [
        {
          "name": "",
          "type": "bool"
        }
      ],
      "payable": false,
      "stateMutability": "view",
      "type": "function"
    },
    {
      "constant": true,
      "inputs": [
        {
          "name": "state",
          "type": "StateLib.State storage"
        },
        {
          "name": "group",
          "type": "GroupLib.Group storage"
        },
        {
          "name": "userAddress",
          "type": "address"
        }
      ],
      "name": "userExists",
      "outputs": [
        {
          "name": "",
          "type": "bool"
        }
      ],
      "payable": false,
      "stateMutability": "view",
      "type": "function"
    },
    {
      "anonymous": false,
      "inputs": [
        {
          "indexed": true,
          "name": "parentNumber",
          "type": "uint256"
        },
        {
          "indexed": true,
          "name": "userAddress",
          "type": "address"
        }
      ],
      "name": "UserJoined",
      "type": "event"
    },
    {
      "anonymous": false,
      "inputs": [
        {
          "indexed": true,
          "name": "parentNumber",
          "type": "uint256"
        },
        {
          "indexed": true,
          "name": "userAddress",
          "type": "address"
        }
      ],
      "name": "UserLeft",
      "type": "event"
    },
    {
      "anonymous": false,
      "inputs": [
        {
          "indexed": true,
          "name": "parentNumber",
          "type": "uint256"
        },
        {
          "indexed": true,
          "name": "kickedUserAddress",
          "type": "address"
        },
        {
          "indexed": true,
          "name": "kickingUserAddress",
          "type": "address"
        },
        {
          "indexed": false,
          "name": "reason",
          "type": "string"
        }
      ],
      "name": "UserKicked",
      "type": "event"
    },
    {
      "anonymous": false,
      "inputs": [
        {
          "indexed": true,
          "name": "parentNumber",
          "type": "uint256"
        },
        {
          "indexed": true,
          "name": "bannedUserAddress",
          "type": "address"
        },
        {
          "indexed": true,
          "name": "banningUserAddress",
          "type": "address"
        },
        {
          "indexed": false,
          "name": "reason",
          "type": "string"
        }
      ],
      "name": "UserBanned",
      "type": "event"
    },
    {
      "anonymous": false,
      "inputs": [
        {
          "indexed": true,
          "name": "parentNumber",
          "type": "uint256"
        },
        {
          "indexed": true,
          "name": "mutedUserAddress",
          "type": "address"
        },
        {
          "indexed": true,
          "name": "mutingUserAddress",
          "type": "address"
        }
      ],
      "name": "UserMuted",
      "type": "event"
    },
    {
      "anonymous": false,
      "inputs": [
        {
          "indexed": true,
          "name": "major",
          "type": "uint256"
        },
        {
          "indexed": true,
          "name": "minor",
          "type": "uint256"
        },
        {
          "indexed": true,
          "name": "micro",
          "type": "uint256"
        },
        {
          "indexed": false,
          "name": "message",
          "type": "string"
        },
        {
          "indexed": false,
          "name": "dat1",
          "type": "uint256"
        },
        {
          "indexed": false,
          "name": "dat2",
          "type": "uint256"
        }
      ],
      "name": "Debug",
      "type": "event"
    }
  ],
  "bytecode": "0x6060604052341561000f57600080fd5b6101d08061001e6000396000f30060606040526004361061004c576000357c0100000000000000000000000000000000000000000000000000000000900463ffffffff1680633e8d458c14610051578063f769445c14610093575b600080fd5b61007960048080359060200190919080359060200190919080359060200190919050506100eb565b604051808215151515815260200191505060405180910390f35b6100d1600480803590602001909190803590602001909190803573ffffffffffffffffffffffffffffffffffffffff1690602001909190505061010f565b604051808215151515815260200191505060405180910390f35b60008083600801600084815260200190815260200160002054141590509392505050565b6000808273ffffffffffffffffffffffffffffffffffffffff161415801561014f575061013d848484610158565b60060160009054906101000a900460ff165b90509392505050565b60008260030160008373ffffffffffffffffffffffffffffffffffffffff1673ffffffffffffffffffffffffffffffffffffffff168152602001908152602001600020905093925050505600a165627a7a723058207f1c4a29253db716ed3cedf6a6258b1f40af399e1471ea13086ff793b51cabc30029",
  "source": "pragma solidity ^0.4.11;\n\nimport \"./ContentLib.sol\";\nimport \"./CurrencyLib.sol\";\nimport \"./PostLib.sol\";\nimport \"./PermissionLib.sol\";\nimport \"./StateLib.sol\";\nimport \"./UserLib.sol\";\n\nlibrary GroupLib {\n\n  event UserJoined(\n    uint256 indexed parentNumber,\n    address indexed userAddress\n  );\n  event UserLeft(\n    uint256 indexed parentNumber,\n    address indexed userAddress\n  );\n  event UserKicked(\n    uint256 indexed parentNumber,\n    address indexed kickedUserAddress,\n    address indexed kickingUserAddress,\n    string reason\n  );\n  event UserBanned(\n    uint256 indexed parentNumber,\n    address indexed bannedUserAddress,\n    address indexed banningUserAddress,\n    string reason\n  );\n  event UserMuted(\n    uint256 indexed parentNumber,\n    address indexed mutedUserAddress,\n    address indexed mutingUserAddress\n  );\n\n  event Debug(\n    uint256 indexed major,\n    uint256 indexed minor,\n    uint256 indexed micro,\n    string message,\n    uint256 dat1,\n    uint256 dat2\n  );\n\n\n\n  struct State {\n    mapping (uint256 => address[]) userAddressesBacking;\n    mapping (uint256 => uint256[]) subpostsBacking;\n  }\n\n  struct Group {\n    uint256 parentNum;\n    uint256 number;\n    uint256 tokens; //total amount of tokens managed by this group (post balances + user balances + group owned tokens)\n\n    mapping (address => UserLib.User) users;\n    uint256 userCount;\n\n    address[] userAddresses;\n    mapping (address => uint256) userAddressesMap; //maps a user address to the corresponding index in userAddresses, for deleting users\n\n    uint256[] subposts;\n    mapping (uint256 => uint256) subpostsMap; //maps a subpost number to the index +1 at which it is stored in the subpost array\n\n    bool userPermissionsFlagsMode;\n    mapping (int256 => int256) userPermissions; //for levels mode, user.permissions maps to a set of flags in userPermissions\n  }\n\n  function getGroupRaw(StateLib.State storage state, uint256 num) constant internal returns (Group storage) {\n    return (PostLib.getPostRaw(state, num).group);\n  }\n\n  function groupExists(StateLib.State storage state, uint256 num) constant internal returns (bool) {\n    return (PostLib.postExists(state, num) && getGroupRaw(state, num).number != 0);\n  }\n\n  function getGroup(StateLib.State storage state, uint256 num) constant internal returns (Group storage) {\n    require(groupExists(state, num));\n    return (getGroupRaw(state, num));\n  }\n\n  function getUserPropertiesRaw(StateLib.State storage state, Group storage group, address userAddress) constant internal returns (UserLib.User storage) {\n    return (group.users[userAddress]);\n  }\n\n  function userExists(StateLib.State storage state, Group storage group, address userAddress) constant public returns (bool) {\n    return (userAddress != 0x0 && getUserPropertiesRaw(state, group, userAddress).joined);\n  }\n\n  function getUserProperties(StateLib.State storage state, Group storage group, address userAddress) constant internal returns (UserLib.User storage) {\n    require(userExists(state, group, userAddress));\n    return (getUserPropertiesRaw(state, group, userAddress));\n  }\n\n  function getUsers(StateLib.State storage state, Group storage group) constant internal returns (address[]) {\n    return (group.userAddresses);\n  }\n\n  function joinGroup(StateLib.State storage state, Group storage group) internal {\n    if (userExists(state, group, msg.sender)) {\n      return;\n    }\n\n    if (state.main.initialized) {\n      if (!PermissionLib.userJoin(state, group, msg.sender))\n        return;\n        //UserJoinDenied event emitted by permissionlib\n    }\n\n    if (group.userAddressesMap[msg.sender] == 0) { //user has never been in the group before\n      group.userCount++;\n      group.users[msg.sender] = UserLib.User({\n        parentNum: group.number,\n        number: group.userCount,\n        addr: msg.sender,\n        balance: 0, //TODO: ruleset\n        joined: true,\n        joinTime: block.timestamp,\n        banned: false,\n        banReason: \"\",\n        permissions: -1 //TODO: ruleset, permissions for new users\n      });\n\n      group.userAddresses.push(msg.sender);\n      group.userAddressesMap[msg.sender] = group.userAddresses.length;\n    } else { //user has been in the group before, just restore the user\n      group.users[msg.sender].joined = true;\n      group.userAddresses[group.userAddressesMap[msg.sender] - 1] = msg.sender;\n    }\n\n    UserJoined(group.number, msg.sender);\n  }\n\n  function removeUser(StateLib.State storage state, Group storage group, address userAddress) internal {\n    if (group.userAddressesMap[msg.sender] == 0) //user has never been in the group before\n      return;\n    group.users[userAddress].joined = false;\n    group.userAddresses[group.userAddressesMap[userAddress] - 1] = address(0x0);\n    UserLeft(group.number, userAddress);\n  }\n\n  //apparently this function MUST be internal, otherwise joined=false in removeUser throws invalild opcode??\n  function leaveGroup(StateLib.State storage state, Group storage group) internal { \n    if (!userExists(state, group, msg.sender)) {\n      return;\n    }\n\n    //TODO: send the user their ether, based on ruleset\n    removeUser(state, group, msg.sender);\n  }\n\n  function getSubposts(StateLib.State storage state, Group storage group) constant internal returns (uint256[]) {\n    return (group.subposts);\n  }\n\n  function isSubpost(StateLib.State storage state, Group storage group, uint256 num) constant public returns (bool) {\n    return (group.subpostsMap[num] != 0);\n  }\n\n  function addPost(\n    StateLib.State storage state,\n    uint256 parentNum,\n    ContentLib.Content contents,\n    uint256 balance,\n    uint256 tokens,\n    bool userPermissionsFlagsMode,\n    int256 permissions\n  ) internal returns (PostLib.Post storage) {\n    uint256 number = ++state.postLib.count;\n    if (state.main.initialized) {\n      var parent = getGroup(state, parentNum);\n      parent.subposts.push(number);\n      parent.subpostsMap[number] = parent.subposts.length;\n    }\n    state.main.posts[number] = PostLib.Post({\n      contents: contents,\n      group: GroupLib.Group({\n        number: number,\n        parentNum: parentNum,\n        userCount: 0,\n        tokens: tokens,\n        userPermissionsFlagsMode: userPermissionsFlagsMode,\n        userAddresses: state.groupLib.userAddressesBacking[number],\n        subposts: state.groupLib.subpostsBacking[number]\n      }),\n      number: number,\n      parentNum: parentNum,\n      balance: balance,\n      permissions: permissions\n    });\n    if (!state.main.initialized) {\n      state.main.posts[number].group.subposts.push(0);\n      state.main.posts[number].group.subpostsMap[number] = 1; //state.main.posts[number].group.subposts.length\n    }\n    return (state.main.posts[number]);\n  }\n}\n",
  "sourcePath": "/home/tybrown/Nextcloud/Documents/School/GATech_2017_Fall/CS-3312/CyberneticChat-Frontend/contracts/GroupLib.sol",
  "compiler": {
    "name": "solc",
    "version": "0.4.18+commit.9cf6e910.Emscripten.clang"
  },
  "schemaVersion": "1.0.1",
  "updatedAt": "2017-11-20T15:04:19.433Z"
}