{
  "contractName": "PermissionLib",
  "abi": [
    {
      "constant": false,
      "inputs": [
        {
          "name": "state",
          "type": "StateLib.State storage"
        },
        {
          "name": "parentNum",
          "type": "uint256"
        },
        {
          "name": "userAddress",
          "type": "address"
        }
      ],
      "name": "createPost",
      "outputs": [
        {
          "name": "",
          "type": "bool"
        }
      ],
      "payable": false,
      "stateMutability": "nonpayable",
      "type": "function"
    },
    {
      "constant": true,
      "inputs": [
        {
          "name": "state",
          "type": "StateLib.State storage"
        },
        {
          "name": "parentNum",
          "type": "uint256"
        },
        {
          "name": "permissions",
          "type": "int256"
        },
        {
          "name": "action",
          "type": "PermissionLib.Action"
        }
      ],
      "name": "isPermitted",
      "outputs": [
        {
          "name": "",
          "type": "bool"
        }
      ],
      "payable": false,
      "stateMutability": "view",
      "type": "function"
    },
    {
      "constant": false,
      "inputs": [
        {
          "name": "state",
          "type": "StateLib.State storage"
        },
        {
          "name": "parentNum",
          "type": "uint256"
        },
        {
          "name": "userAddress",
          "type": "address"
        }
      ],
      "name": "userJoin",
      "outputs": [
        {
          "name": "",
          "type": "bool"
        }
      ],
      "payable": false,
      "stateMutability": "nonpayable",
      "type": "function"
    },
    {
      "anonymous": false,
      "inputs": [
        {
          "indexed": true,
          "name": "parentNumber",
          "type": "uint256"
        },
        {
          "indexed": true,
          "name": "userAddress",
          "type": "address"
        },
        {
          "indexed": false,
          "name": "reason",
          "type": "string"
        }
      ],
      "name": "UserJoinDenied",
      "type": "event"
    },
    {
      "anonymous": false,
      "inputs": [
        {
          "indexed": true,
          "name": "parentNumber",
          "type": "uint256"
        },
        {
          "indexed": true,
          "name": "userAddress",
          "type": "address"
        },
        {
          "indexed": false,
          "name": "reason",
          "type": "string"
        }
      ],
      "name": "PostCreationDenied",
      "type": "event"
    }
  ],
  "bytecode": "0x6060604052341561000f57600080fd5b6105f58061001e6000396000f300606060405260043610610057576000357c0100000000000000000000000000000000000000000000000000000000900463ffffffff16806332a657151461005c5780634398bcf9146100b457806356e7e91214610102575b600080fd5b61009a600480803590602001909190803590602001909190803573ffffffffffffffffffffffffffffffffffffffff1690602001909190505061015a565b604051808215151515815260200191505060405180910390f35b6100e8600480803590602001909190803590602001909190803590602001909190803560ff16906020019091905050610217565b604051808215151515815260200191505060405180910390f35b610140600480803590602001909190803590602001909190803573ffffffffffffffffffffffffffffffffffffffff16906020019091905050610296565b604051808215151515815260200191505060405180910390f35b600080610168858585610480565b905061017b85858360080154600a610217565b151561020a578273ffffffffffffffffffffffffffffffffffffffff16847fd423976f4855ebe49c0df63012daef410fc4ab8e9ac9cb816d71a5b7783f5b6160405180806020018281038252600d8152602001807f55736572206973206d757465640000000000000000000000000000000000000081525060200191505060405180910390a36000915061020f565b600191505b509392505050565b60008061022486866104ac565b905080600c0160009054906101000a900460ff1615156102575780600b0160008581526020019081526020016000205493505b61010083601981111561026657fe5b10151561027257600080fd5b600083601981111561028057fe5b60019060020a0285161415915050949350505050565b6000806102a48585856104d5565b90508060090160019054906101000a900460ff1615610473578273ffffffffffffffffffffffffffffffffffffffff16847f33c90698e3ceaafedcd2a825eb0eff6ffda9746751913fe9997cc40c2822980c600084600a018054600181600116156101000203166002900490501415610352576040805190810160405280600e81526020017f557365722069732062616e6e65640000000000000000000000000000000000008152506103f0565b83600a018054600181600116156101000203166002900480601f0160208091040260200160405190810160405280929190818152602001828054600181600116156101000203166002900480156103ea5780601f106103bf576101008083540402835291602001916103ea565b820191906000526020600020905b8154815290600101906020018083116103cd57829003601f168201915b50505050505b6040518080602001828103825283818151815260200191508051906020019080838360005b83811015610430578082015181840152602081019050610415565b50505050905090810190601f16801561045d5780820380516001836020036101000a031916815260200191505b509250505060405180910390a360009150610478565b600191505b509392505050565b600061048d84848461052f565b151561049857600080fd5b6104a38484846104d5565b90509392505050565b60006104b88383610578565b15156104c357600080fd5b6104cd83836105a7565b905092915050565b6000806104e285856104ac565b905080600d0160008473ffffffffffffffffffffffffffffffffffffffff1673ffffffffffffffffffffffffffffffffffffffff1681526020019081526020016000209150509392505050565b6000808273ffffffffffffffffffffffffffffffffffffffff161415801561056f575061055d8484846104d5565b60090160009054906101000a900460ff165b90509392505050565b60008260020160000154821115801561059f5750600061059884846105a7565b6006015414155b905092915050565b60008260000160000160008381526020019081526020016000209050929150505600a165627a7a723058207f7fa20f0d23d4c8f61a39f44c8d57ce61f0d1e5dd5f30fa8ad3d759736221cf0029",
  "source": "pragma solidity ^0.4.11;\n\nimport \"./UserLib.sol\";\nimport \"./PostLib.sol\";\nimport \"./StateLib.sol\";\n\nlibrary PermissionLib {\n\n  struct State {\n  }\n\n  event UserJoinDenied(\n    uint256 indexed parentNumber,\n    address indexed userAddress,\n    string reason\n  );\n  event PostCreationDenied(\n    uint256 indexed parentNumber,\n    address indexed userAddress,\n    string reason\n  );\n\n  enum Action {\n    User_join,                //user wants to join the group\n    User_leave,               //user wants to leave the group\n    User_kick,                //user wants to kick a user from the group\n    User_ban,                 //user wants to prevent a user from joining the group\n    User_mute,                //user wants to prevent a user from posting in the group\n    User_tip_send,            //user wants to send a tip to a user\n    User_tip_receive,         //user wants to receive a tip from a user\n    User_title_edit,          //user wants to edit the title of a user\n    User_content_edit,        //user wants to edit the profile content of a user\n    User_permissions_edit,    //user wants to edit the permissions of a user\n    Post_create,              //user wants to create a post\n    Post_delete,              //user wants to delete a post\n    Post_currency_withdraw,   //user wants to withdraw currency from a post\n    Post_currency_deposit,    //user wants to send currency to a post\n    Post_title_edit,          //user wants to edit the title of a post\n    Post_content_edit,        //user wants to edit the content of a post\n    Post_permissions_edit,    //user wants to edit the permissions of another user\n    Post_subgroup_create,     //user wants to add a subgroup to a post\n    Post_subgroup_delete,     //user wants to delete a subgroup from a post\n    Group_currency_withdraw,  //user wants to withdraw ether from the group contract\n    Group_currency_deposit,   //user wants to deposit ether into the group contract\n    Group_title_edit,         //user wants to edit the title of the group\n    Group_content_edit,       //user wants to edit the content of the group\n    Group_lock,               //user wants to lock the group\n    Group_unlock,             //user wants to unlock the group\n    Group_permissions_edit    //user wants to edit the assignable permissions of the group\n  }\n\n  function isPermitted(StateLib.State storage state, uint256 parentNum, int256 permissions, Action action) constant public returns (bool) {\n    var p = PostLib.getPost(state, parentNum);\n    if (!p.userPermissionsFlagsMode) {\n      permissions = p.userPermissions[permissions]; //user.permissions just maps to some flags\n    }\n    require(uint256(action) < 256);\n    return ((uint256(permissions) & (uint256(1) << uint256(action))) != 0);\n  }\n\n  function userJoin(StateLib.State storage state, uint256 parentNum, address userAddress) public returns (bool) {\n    var u = UserLib.getUserRaw(state, parentNum, userAddress);\n    if (u.banned) {\n      UserJoinDenied(\n        parentNum,\n        userAddress,\n        (bytes(u.banReason).length != 0) ?\n          u.banReason\n        :\n          \"User is banned\"\n      );\n      return (false);\n    }\n    return (true);\n  }\n\n  function createPost(StateLib.State storage state, uint256 parentNum, address userAddress) public returns (bool) {\n    var u = UserLib.getUser(state, parentNum, userAddress);\n    //if (u.muted) {\n    if (!isPermitted(state, parentNum, u.permissions, Action.Post_create)) {\n      PostCreationDenied(parentNum, userAddress, \"User is muted\");\n      return (false);\n    }\n    return (true);\n  }\n}\n",
  "sourcePath": "/home/tybrown/Nextcloud/Documents/School/GATech_2017_Fall/CS-3312/CyberneticChat-Frontend/contracts/PermissionLib.sol",
  "compiler": {
    "name": "solc",
    "version": "0.4.18+commit.9cf6e910.Emscripten.clang"
  },
  "schemaVersion": "1.0.1",
  "updatedAt": "2017-11-05T22:18:50.679Z"
}