{
  "contractName": "PermissionLib",
  "abi": [
    {
      "constant": true,
      "inputs": [
        {
          "name": "state",
          "type": "StateLib.State storage"
        },
        {
          "name": "group",
          "type": "GroupLib.Group storage"
        },
        {
          "name": "permissions",
          "type": "int256"
        },
        {
          "name": "action",
          "type": "PermissionLib.Action"
        }
      ],
      "name": "isPermitted",
      "outputs": [
        {
          "name": "",
          "type": "bool"
        }
      ],
      "payable": false,
      "stateMutability": "view",
      "type": "function"
    },
    {
      "constant": false,
      "inputs": [
        {
          "name": "state",
          "type": "StateLib.State storage"
        },
        {
          "name": "group",
          "type": "GroupLib.Group storage"
        },
        {
          "name": "userAddress",
          "type": "address"
        }
      ],
      "name": "createPost",
      "outputs": [
        {
          "name": "",
          "type": "bool"
        }
      ],
      "payable": false,
      "stateMutability": "nonpayable",
      "type": "function"
    },
    {
      "constant": false,
      "inputs": [
        {
          "name": "state",
          "type": "StateLib.State storage"
        },
        {
          "name": "group",
          "type": "GroupLib.Group storage"
        },
        {
          "name": "userAddress",
          "type": "address"
        }
      ],
      "name": "userJoin",
      "outputs": [
        {
          "name": "",
          "type": "bool"
        }
      ],
      "payable": false,
      "stateMutability": "nonpayable",
      "type": "function"
    },
    {
      "anonymous": false,
      "inputs": [
        {
          "indexed": true,
          "name": "parentNumber",
          "type": "uint256"
        },
        {
          "indexed": true,
          "name": "userAddress",
          "type": "address"
        },
        {
          "indexed": false,
          "name": "reason",
          "type": "string"
        }
      ],
      "name": "UserJoinDenied",
      "type": "event"
    },
    {
      "anonymous": false,
      "inputs": [
        {
          "indexed": true,
          "name": "parentNumber",
          "type": "uint256"
        },
        {
          "indexed": true,
          "name": "userAddress",
          "type": "address"
        },
        {
          "indexed": false,
          "name": "reason",
          "type": "string"
        }
      ],
      "name": "PostCreationDenied",
      "type": "event"
    }
  ],
  "bytecode": "0x6060604052341561000f57600080fd5b6105678061001e6000396000f300606060405260043610610057576000357c0100000000000000000000000000000000000000000000000000000000900463ffffffff16806352bde7fc1461005c57806362b3d200146100aa578063ddb30f4014610102575b600080fd5b610090600480803590602001909190803590602001909190803590602001909190803560ff1690602001909190505061015a565b604051808215151515815260200191505060405180910390f35b6100e8600480803590602001909190803590602001909190803573ffffffffffffffffffffffffffffffffffffffff169060200190919050506101cb565b604051808215151515815260200191505060405180910390f35b610140600480803590602001909190803590602001909190803573ffffffffffffffffffffffffffffffffffffffff1690602001909190505061028c565b604051808215151515815260200191505060405180910390f35b60008360090160009054906101000a900460ff16151561018d5783600a0160008481526020019081526020016000205492505b61010082601981111561019c57fe5b1015156101a857600080fd5b60008260198111156101b657fe5b60019060020a02841614159050949350505050565b6000806101d985858561047a565b90506101ec85858360050154600a61015a565b151561027f578273ffffffffffffffffffffffffffffffffffffffff1684600001547fd423976f4855ebe49c0df63012daef410fc4ab8e9ac9cb816d71a5b7783f5b6160405180806020018281038252601b8152602001807f55736572206973206e6f7420616c6c6f77656420746f20706f7374000000000081525060200191505060405180910390a360009150610284565b600191505b509392505050565b60008061029a8585856104a6565b90508060060160019054906101000a900460ff161561046d578273ffffffffffffffffffffffffffffffffffffffff1684600001547f33c90698e3ceaafedcd2a825eb0eff6ffda9746751913fe9997cc40c2822980c600084600701805460018160011615610100020316600290049050141561034c576040805190810160405280600e81526020017f557365722069732062616e6e65640000000000000000000000000000000000008152506103ea565b836007018054600181600116156101000203166002900480601f0160208091040260200160405190810160405280929190818152602001828054600181600116156101000203166002900480156103e45780601f106103b9576101008083540402835291602001916103e4565b820191906000526020600020905b8154815290600101906020018083116103c757829003601f168201915b50505050505b6040518080602001828103825283818151815260200191508051906020019080838360005b8381101561042a57808201518184015260208101905061040f565b50505050905090810190601f1680156104575780820380516001836020036101000a031916815260200191505b509250505060405180910390a360009150610472565b600191505b509392505050565b60006104878484846104f2565b151561049257600080fd5b61049d8484846104a6565b90509392505050565b60008260030160008373ffffffffffffffffffffffffffffffffffffffff1673ffffffffffffffffffffffffffffffffffffffff16815260200190815260200160002090509392505050565b6000808273ffffffffffffffffffffffffffffffffffffffff161415801561053257506105208484846104a6565b60060160009054906101000a900460ff165b905093925050505600a165627a7a72305820451409b56856e4dc5d6b51450c7371fef207b186284ccf276c9b3973d0b62f4b0029",
  "source": "/*\nThis file is part of Cybernetic Chat.\n\nCybernetic Chat is free software: you can redistribute it and/or modify\nit under the terms of the GNU General Public License as published by\nthe Free Software Foundation, either version 3 of the License, or\n(at your option) any later version.\n\nCybernetic Chat is distributed in the hope that it will be useful,\nbut WITHOUT ANY WARRANTY; without even the implied warranty of\nMERCHANTABILITY or FITNESS FOR A PARTICULAR PURPOSE.  See the\nGNU General Public License for more details.\n\nYou should have received a copy of the GNU General Public License\nalong with Cybernetic Chat.  If not, see <http://www.gnu.org/licenses/>.\n*/\n\n\npragma solidity ^0.4.11;\n\nimport \"./UserLib.sol\";\nimport \"./PostLib.sol\";\nimport \"./StateLib.sol\";\nimport \"./GroupLib.sol\";\n\nlibrary PermissionLib {\n\n  struct State {\n  }\n\n  event UserJoinDenied(\n    uint256 indexed parentNumber,\n    address indexed userAddress,\n    string reason\n  );\n  event PostCreationDenied(\n    uint256 indexed parentNumber,\n    address indexed userAddress,\n    string reason\n  );\n\n  enum Action {\n    User_join,                //user wants to join the group\n    User_leave,               //user wants to leave the group\n    User_kick,                //user wants to kick a user from the group\n    User_ban,                 //user wants to prevent a user from joining the group\n    User_mute,                //user wants to prevent a user from posting in the group\n    User_tip_send,            //user wants to send a tip to a user\n    User_tip_receive,         //user wants to receive a tip from a user\n    User_title_edit,          //user wants to edit the title of a user\n    User_content_edit,        //user wants to edit the profile content of a user\n    User_permissions_edit,    //user wants to edit the permissions of a user\n    Post_create,              //user wants to create a post\n    Post_delete,              //user wants to delete a post\n    Post_currency_withdraw,   //user wants to withdraw currency from a post\n    Post_currency_deposit,    //user wants to send currency to a post\n    Post_title_edit,          //user wants to edit the title of a post\n    Post_content_edit,        //user wants to edit the content of a post\n    Post_permissions_edit,    //user wants to edit the permissions of another user\n    Post_subgroup_create,     //user wants to add a subgroup to a post\n    Post_subgroup_delete,     //user wants to delete a subgroup from a post\n    Group_currency_withdraw,  //user wants to withdraw ether from the group contract\n    Group_currency_deposit,   //user wants to deposit ether into the group contract\n    Group_title_edit,         //user wants to edit the title of the group\n    Group_content_edit,       //user wants to edit the content of the group\n    Group_lock,               //user wants to lock the group\n    Group_unlock,             //user wants to unlock the group\n    Group_permissions_edit    //user wants to edit the assignable permissions of the group\n  }\n\n  function isPermitted(StateLib.State storage state, GroupLib.Group storage group, int256 permissions, Action action) constant public returns (bool) {\n    if (!group.userPermissionsFlagsMode) {\n      permissions = group.userPermissions[permissions]; //user.permissions just maps to some flags\n    }\n    require(uint256(action) < 256);\n    return ((uint256(permissions) & (uint256(1) << uint256(action))) != 0);\n  }\n\n  function userJoin(StateLib.State storage state, GroupLib.Group storage group, address userAddress) public returns (bool) {\n    var u = GroupLib.getUserPropertiesRaw(state, group, userAddress);\n    if (u.banned) {\n      UserJoinDenied(\n        group.parentNum,\n        userAddress,\n        (bytes(u.banReason).length != 0) ?\n          u.banReason\n        :\n          \"User is banned\"\n      );\n      return (false);\n    }\n    return (true);\n  }\n\n  function createPost(StateLib.State storage state, GroupLib.Group storage group, address userAddress) public returns (bool) {\n    var u = GroupLib.getUserProperties(state, group, userAddress);\n    if (!isPermitted(state, group, u.permissions, Action.Post_create)) {\n      PostCreationDenied(group.parentNum, userAddress, \"User is not allowed to post\");\n      return (false);\n    }\n    return (true);\n  }\n}\n",
  "sourcePath": "/home/tybrown/Nextcloud/Documents/School/GATech_2017_Fall/CS-3312/CyberneticChat-Frontend/contracts/PermissionLib.sol",
  "compiler": {
    "name": "solc",
    "version": "0.4.18+commit.9cf6e910.Emscripten.clang"
  },
  "schemaVersion": "1.0.1",
  "updatedAt": "2017-11-29T16:42:05.656Z"
}