{
  "contractName": "PostLib",
  "abi": [
    {
      "constant": false,
      "inputs": [
        {
          "name": "state",
          "type": "StateLib.State storage"
        },
        {
          "name": "parentNum",
          "type": "uint256"
        },
        {
          "name": "title",
          "type": "string"
        },
        {
          "name": "mimeType",
          "type": "string"
        },
        {
          "name": "ipfsHashFunction",
          "type": "uint8"
        },
        {
          "name": "ipfsHashLength",
          "type": "uint8"
        },
        {
          "name": "ipfsHash",
          "type": "bytes"
        },
        {
          "name": "creationTime",
          "type": "uint256"
        },
        {
          "name": "userPermissionsFlagsMode",
          "type": "bool"
        }
      ],
      "name": "createPost",
      "outputs": [
        {
          "name": "",
          "type": "uint256"
        }
      ],
      "payable": false,
      "stateMutability": "nonpayable",
      "type": "function"
    },
    {
      "anonymous": false,
      "inputs": [
        {
          "indexed": true,
          "name": "parentNumber",
          "type": "uint256"
        },
        {
          "indexed": true,
          "name": "postNumber",
          "type": "uint256"
        },
        {
          "indexed": true,
          "name": "userAddress",
          "type": "address"
        }
      ],
      "name": "PostCreated",
      "type": "event"
    }
  ],
  "bytecode": "0x6060604052341561000f57600080fd5b61160e8061001e6000396000f300606060405260043610610040576000357c0100000000000000000000000000000000000000000000000000000000900463ffffffff168062895d8f14610045575b600080fd5b610159600480803590602001909190803590602001909190803590602001908201803590602001908080601f0160208091040260200160405190810160405280939291908181526020018383808284378201915050505050509190803590602001908201803590602001908080601f0160208091040260200160405190810160405280939291908181526020018383808284378201915050505050509190803560ff1690602001909190803560ff1690602001909190803590602001908201803590602001908080601f01602080910402602001604051908101604052809392919081815260200183838082843782019150505050505091908035906020019091908035151590602001909190505061016f565b6040518082815260200191505060405180910390f35b60008060006101848c8c8c8c8c8c8c8c6103e7565b94508b600301600001600081548092919060010191905055508b6003016000015491506102178c8c8460a0604051908101604052808f81526020018e81526020016060604051908101604052808f60ff1681526020018e60ff1681526020018d81525081526020013373ffffffffffffffffffffffffffffffffffffffff1681526020018a8152506000808a6000610717565b5073__UserLib_______________________________6364272bdf8d846040518363ffffffff167c0100000000000000000000000000000000000000000000000000000000028152600401808381526020018281526020019250505060006040518083038186803b151561028a57600080fd5b6102c65a03f4151561029b57600080fd5b5050506102a98c8333610f0d565b90507fffffffffffffffffffffffffffffffffffffffffffffffffffffffffffffffff81600401819055506102df8c8c33610f39565b151561036c5773__UserLib_______________________________6364272bdf8d8d6040518363ffffffff167c0100000000000000000000000000000000000000000000000000000000028152600401808381526020018281526020019250505060006040518083038186803b151561035757600080fd5b6102c65a03f4151561036857600080fd5b5050505b6103778c8c33610f0d565b90506103906103868d8d610f82565b8260086001610fab565b3373ffffffffffffffffffffffffffffffffffffffff16828c7f479ec612f400c16ffe0e29ab35fd2726d09436492c66bd0b0b39fdff5817d01c60405160405180910390a481925050509998505050505050505050565b6000808960000160020160009054906101000a900460ff16156104ef5773__PermissionLib_________________________6332a657158b8b336000604051602001526040518463ffffffff167c0100000000000000000000000000000000000000000000000000000000028152600401808481526020018381526020018273ffffffffffffffffffffffffffffffffffffffff1673ffffffffffffffffffffffffffffffffffffffff168152602001935050505060206040518083038186803b15156104b357600080fd5b6102c65a03f415156104c457600080fd5b5050506040518051905015156104d957600080fd5b6104e38a8a611138565b15156104ee57600080fd5b5b60ff88511115151561050057600080fd5b73__ContentLib____________________________63dfe4ac5c8989898989896000604051604001526040518763ffffffff167c01000000000000000000000000000000000000000000000000000000000281526004018080602001806020018760ff1660ff1681526020018660ff1660ff1681526020018060200185815260200184810384528a818151815260200191508051906020019080838360005b838110156105ba57808201518184015260208101905061059f565b50505050905090810190601f1680156105e75780820380516001836020036101000a031916815260200191505b50848103835289818151815260200191508051906020019080838360005b83811015610620578082015181840152602081019050610605565b50505050905090810190601f16801561064d5780820380516001836020036101000a031916815260200191505b50848103825286818151815260200191508051906020019080838360005b8381101561068657808201518184015260208101905061066b565b50505050905090810190601f1680156106b35780820380516001836020036101000a031916815260200191505b509950505050505050505050604080518083038186803b15156106d557600080fd5b6102c65a03f415156106e657600080fd5b50505060405180519060200180519050809350819250505080151561070a57600080fd5b5098975050505050505050565b61071f611240565b600061072b8a8a611167565b905080601001805490508160110160008a81526020019081526020016000208190555080601001805480600101828161076491906112a1565b916000526020600020900160008a90919091505550610120604051908101604052808881526020018981526020018a815260200187815260200186815260200184815260200185151581526020018b60030160010160008b815260200190815260200160002080548060200260200160405190810160405280929190818152602001828054801561084a57602002820191906000526020600020905b8160009054906101000a900473ffffffffffffffffffffffffffffffffffffffff1673ffffffffffffffffffffffffffffffffffffffff1681526020019060010190808311610800575b505050505081526020018b60030160020160008b81526020019081526020016000208054806020026020016040519081016040528092919081815260200182805480156108b657602002820191906000526020600020905b8154815260200190600101908083116108a2575b50505050508152508a60000160000160008a815260200190815260200160002060008201518160000160008201518160000190805190602001906108fb9291906112cd565b5060208201518160010190805190602001906109189291906112cd565b5060408201518160020160008201518160000160006101000a81548160ff021916908360ff16021790555060208201518160000160016101000a81548160ff021916908360ff160217905550604082015181600101908051906020019061098092919061134d565b50505060608201518160040160006101000a81548173ffffffffffffffffffffffffffffffffffffffff021916908373ffffffffffffffffffffffffffffffffffffffff1602179055506080820151816005015550506020820151816006015560408201518160070155606082015181600801556080820151816009015560a082015181600a015560c082015181600c0160006101000a81548160ff02191690831515021790555060e082015181600e019080519060200190610a449291906113cd565b50610100820151816010019080519060200190610a62929190611457565b509050508960000160020160009054906101000a900460ff161515610afc5780601001805490508a60000160000160008a815260200190815260200160002060110160008a8152602001908152602001600020819055508960000160000160008981526020019081526020016000206010018054806001018281610ae691906112a1565b9160005260206000209001600080909190915055505b89600001600001600089815260200190815260200160002061012060405190810160405290816000820160a06040519081016040529081600082018054600181600116156101000203166002900480601f016020809104026020016040519081016040528092919081815260200182805460018160011615610100020316600290048015610bcb5780601f10610ba057610100808354040283529160200191610bcb565b820191906000526020600020905b815481529060010190602001808311610bae57829003601f168201915b50505050508152602001600182018054600181600116156101000203166002900480601f016020809104026020016040519081016040528092919081815260200182805460018160011615610100020316600290048015610c6d5780601f10610c4257610100808354040283529160200191610c6d565b820191906000526020600020905b815481529060010190602001808311610c5057829003601f168201915b5050505050815260200160028201606060405190810160405290816000820160009054906101000a900460ff1660ff1660ff1681526020016000820160019054906101000a900460ff1660ff1660ff168152602001600182018054600181600116156101000203166002900480601f016020809104026020016040519081016040528092919081815260200182805460018160011615610100020316600290048015610d5a5780601f10610d2f57610100808354040283529160200191610d5a565b820191906000526020600020905b815481529060010190602001808311610d3d57829003601f168201915b50505050508152505081526020016004820160009054906101000a900473ffffffffffffffffffffffffffffffffffffffff1673ffffffffffffffffffffffffffffffffffffffff1673ffffffffffffffffffffffffffffffffffffffff168152602001600582015481525050815260200160068201548152602001600782015481526020016008820154815260200160098201548152602001600a8201548152602001600c820160009054906101000a900460ff16151515158152602001600e8201805480602002602001604051908101604052809291908181526020018280548015610e9d57602002820191906000526020600020905b8160009054906101000a900473ffffffffffffffffffffffffffffffffffffffff1673ffffffffffffffffffffffffffffffffffffffff1681526020019060010190808311610e53575b5050505050815260200160108201805480602002602001604051908101604052809291908181526020018280548015610ef557602002820191906000526020600020905b815481526020019060010190808311610ee1575b50505050508152505091505098975050505050505050565b6000610f1a848484610f39565b1515610f2557600080fd5b610f30848484611189565b90509392505050565b6000808273ffffffffffffffffffffffffffffffffffffffff1614158015610f795750610f67848484611189565b60050160009054906101000a900460ff165b90509392505050565b6000610f8e8383611138565b1515610f9957600080fd5b610fa38383611167565b905092915050565b6000806000808660030154935087600901549250841561101657610fd38860090154876111e3565b8860090181905550610fe9886009015484611221565b9050610ff98760030154826111e3565b876003018190555061100f876003015485611221565b9150611063565b611024876003015487611221565b876003018190555061103a848860030154611221565b915061104a886009015483611221565b8860090181905550611060838960090154611221565b90505b8660000160009054906101000a900473ffffffffffffffffffffffffffffffffffffffff1673ffffffffffffffffffffffffffffffffffffffff1688600601547f2e059c295c455531568b11c53cf3b686d0da4b0f817fa7b31f2b40e7182ca3f5848860405180838152602001821515151581526020019250505060405180910390a387600601547f9a715461e57fab920501d1b45d275cd77d7ef897cf2553053a36680151d7078d828760405180838152602001821515151581526020019250505060405180910390a25050505050505050565b60008260030160000154821115801561115f575060006111588484611167565b6006015414155b905092915050565b6000826000016000016000838152602001908152602001600020905092915050565b6000806111968585610f82565b905080600d0160008473ffffffffffffffffffffffffffffffffffffffff1673ffffffffffffffffffffffffffffffffffffffff1681526020019081526020016000209150509392505050565b600082828401915081101561121a577fffffffffffffffffffffffffffffffffffffffffffffffffffffffffffffffff905061121b565b5b92915050565b6000828284039150811115611239576000905061123a565b5b92915050565b6101e0604051908101604052806112556114a4565b8152602001600081526020016000815260200160008152602001600081526020016000815260200160001515815260200161128e6114fc565b815260200161129b611510565b81525090565b8154818355818115116112c8578183600052602060002091820191016112c79190611524565b5b505050565b828054600181600116156101000203166002900490600052602060002090601f016020900481019282601f1061130e57805160ff191683800117855561133c565b8280016001018555821561133c579182015b8281111561133b578251825591602001919060010190611320565b5b5090506113499190611524565b5090565b828054600181600116156101000203166002900490600052602060002090601f016020900481019282601f1061138e57805160ff19168380011785556113bc565b828001600101855582156113bc579182015b828111156113bb5782518255916020019190600101906113a0565b5b5090506113c99190611524565b5090565b828054828255906000526020600020908101928215611446579160200282015b828111156114455782518260006101000a81548173ffffffffffffffffffffffffffffffffffffffff021916908373ffffffffffffffffffffffffffffffffffffffff160217905550916020019190600101906113ed565b5b5090506114539190611549565b5090565b828054828255906000526020600020908101928215611493579160200282015b82811115611492578251825591602001919060010190611477565b5b5090506114a09190611524565b5090565b60e0604051908101604052806114b861158c565b81526020016114c561158c565b81526020016114d26115a0565b8152602001600073ffffffffffffffffffffffffffffffffffffffff168152602001600081525090565b602060405190810160405280600081525090565b602060405190810160405280600081525090565b61154691905b8082111561154257600081600090555060010161152a565b5090565b90565b61158991905b8082111561158557600081816101000a81549073ffffffffffffffffffffffffffffffffffffffff02191690555060010161154f565b5090565b90565b602060405190810160405280600081525090565b606060405190810160405280600060ff168152602001600060ff1681526020016115c86115ce565b81525090565b6020604051908101604052806000815250905600a165627a7a72305820e003e05f02357acaeb6cd86b6602ffbaf4ca21393488b1954081d1e65cb2638d0029",
  "source": "pragma solidity ^0.4.11;\n\nimport \"./ContentLib.sol\";\nimport \"./UserLib.sol\";\nimport \"./CurrencyLib.sol\";\nimport \"./PermissionLib.sol\";\nimport \"./StateLib.sol\";\n\nlibrary PostLib {\n\n  event PostCreated(\n    uint256 indexed parentNumber,\n    uint256 indexed postNumber,\n    address indexed userAddress\n  );\n\n  struct State {\n    uint256 count;\n    mapping (uint256 => address[]) userAddressesBacking;\n    mapping (uint256 => uint256[]) childrenBacking;\n  }\n\n  struct Post {\n    ContentLib.Content contents;\n    uint256 number; //must be > 0 if post exists, unique, immutable\n    uint256 parentNum; //0 == no parent, but only the root should have parentNum == 0\n    uint256 balance; //balance in the parent group\n    uint256 tokens; //total balance of all sub-objects\n    int256 permissions; //permission level of post in parent group\n    mapping (int256 => int256) userPermissions; //for levels mode, permissions maps to the flags the level posesses\n    bool userPermissionsFlagsMode;\n    mapping (address => UserLib.User) users;\n    address[] userAddresses;\n    mapping (address => uint256) userAddressesMap; //maps a user address to the corresponding index in userAddresses, for deleting users\n    uint256[] children;\n    mapping (uint256 => uint256) childrenMap; //given the child post number, get the index at which it is stored in the children array\n  }\n\n  function getPostRaw(StateLib.State storage state, uint256 num) constant internal returns (Post storage) {\n    return (state.main.posts[num]);\n  }\n\n  function postExists(StateLib.State storage state, uint256 num) constant internal returns (bool) {\n    return (num <= state.postLib.count && getPostRaw(state, num).number != 0);\n  }\n\n  function getPost(StateLib.State storage state, uint256 num) constant internal returns (Post storage) {\n    require(postExists(state, num));\n    return (getPostRaw(state, num));\n  }\n\n  function getChildren(StateLib.State storage state, uint256 num) constant internal returns (uint256[]) {\n    var p = getPost(state, num);\n    return (p.children);\n  }\n\n  function isChild(StateLib.State storage state, uint256 parentNum, uint256 num) constant internal returns (bool) {\n    var p = getPost(state, parentNum);\n    return (p.childrenMap[num] != 0);\n  }\n\n  function addPost(\n    StateLib.State storage state,\n    uint256 parentNum,\n    uint256 number,\n    ContentLib.Content contents,\n    uint256 balance,\n    uint256 tokens,\n    bool userPermissionsFlagsMode,\n    int256 permissions\n  ) private returns (Post) {\n    var parent = getPostRaw(state, parentNum);\n    parent.childrenMap[number] = parent.children.length;\n    parent.children.push(number);\n    state.main.posts[number] = Post({\n      contents: contents,\n      number: number,\n      parentNum: parentNum,\n      balance: balance,\n      tokens: tokens,\n      permissions: permissions,\n      userPermissionsFlagsMode: userPermissionsFlagsMode,\n      userAddresses: state.postLib.userAddressesBacking[number],\n      children: state.postLib.childrenBacking[number]\n    });\n    if (!state.main.initialized) {\n      state.main.posts[number].childrenMap[number] = parent.children.length;\n      state.main.posts[number].children.push(0);\n    }\n    return (state.main.posts[number]);\n  }\n\n  function createPostChecks(\n    StateLib.State storage state,\n    uint256 parentNum,\n    string title,\n    string mimeType,\n    uint8 ipfsHashFunction,\n    uint8 ipfsHashLength,\n    bytes ipfsHash,\n    uint256 creationTime\n  ) private returns (\n    uint256 _creationTime\n  ) {\n    if (state.main.initialized) { //if the contract hasn't been fully deployed yet (I.E. it's being deployed right now, in this call), the original creator won't even have permissions to create the first post, so just skip these checks\n      require(PermissionLib.createPost(state, parentNum, msg.sender));\n      require(postExists(state, parentNum));\n    }\n\n    //require(!PermissionLib.postLocked(parentNum)); //TODO: self.byNumber[parentNum].locked ??\n\n    //TODO: check title length via group's ruleset\n    //TODO: UTF-8 length != bytes().length\n    require(bytes(title).length <= 255);\n\n    bool checksPassed;\n    (checksPassed, _creationTime) = ContentLib.contentCheck(\n//      state,\n      title,\n      mimeType,\n      ipfsHashFunction,\n      ipfsHashLength,\n      ipfsHash,\n      creationTime\n    );\n    require(checksPassed);\n  }\n\n  function createPost(\n    StateLib.State storage state,\n    uint256 parentNum,\n    string title,\n    string mimeType,\n    uint8 ipfsHashFunction,\n    uint8 ipfsHashLength,\n    bytes ipfsHash,\n    uint256 creationTime,\n    bool userPermissionsFlagsMode\n  ) public returns (uint256) {\n\n    (creationTime) = createPostChecks(\n      state,\n      parentNum,\n      title,\n      mimeType,\n      ipfsHashFunction,\n      ipfsHashLength,\n      ipfsHash,\n      creationTime\n    );\n\n\n    state.postLib.count++;\n\n    uint256 newNum = state.postLib.count;\n\n    addPost(\n      state,\n      parentNum,\n      newNum,\n      ContentLib.Content({\n        title: title,\n        mimeType: mimeType,\n        multihash: ContentLib.IpfsMultihash({\n          hashFunction: ipfsHashFunction,\n          hashLength: ipfsHashLength,\n          hash: ipfsHash\n        }),\n        creator: msg.sender,\n        creationTime: creationTime\n      }),\n      0,    //TODO: ruleset, default balance in parent group of newly created post\n      0,    //TODO: ruleset? default tokens (shouldn't it always be 0?)\n      userPermissionsFlagsMode,\n      0     //TODO: ruleset, default permissions for new post\n    );\n\n    //should the user join the new group?\n    UserLib.join(state, newNum); //TODO: ruleset? does it make sense to create a group but not be part of it?\n\n    var u = UserLib.getUser(state, newNum, msg.sender);\n    u.permissions = -1; //TODO: ruleset, permissions of creator\n\n    //should the user join the parent group? TODO: ruleset\n    if (!UserLib.userExists(state, parentNum, msg.sender)) {\n      UserLib.join(state, parentNum);\n    }\n\n    u = UserLib.getUser(state, parentNum, msg.sender);\n\n    CurrencyLib.awardTokensToUser(getPost(state, parentNum), u, 8, true); //TODO: ruleset; how much should they get, if anything? also TODO msg.value for money paid in\n\n\n    PostCreated(parentNum, newNum, msg.sender);\n\n    return (newNum);\n  }\n}\n",
  "sourcePath": "/home/tybrown/Nextcloud/Documents/School/GATech_2017_Fall/CS-3312/CyberneticChat-Frontend/contracts/PostLib.sol",
  "compiler": {
    "name": "solc",
    "version": "0.4.18+commit.9cf6e910.Emscripten.clang"
  },
  "schemaVersion": "1.0.1",
  "updatedAt": "2017-11-12T20:48:03.957Z"
}