{
  "contractName": "UserLib",
  "abi": [
    {
      "constant": false,
      "inputs": [
        {
          "name": "state",
          "type": "StateLib.State storage"
        },
        {
          "name": "parentNum",
          "type": "uint256"
        }
      ],
      "name": "join",
      "outputs": [],
      "payable": false,
      "stateMutability": "nonpayable",
      "type": "function"
    },
    {
      "constant": false,
      "inputs": [
        {
          "name": "state",
          "type": "StateLib.State storage"
        },
        {
          "name": "userAddress",
          "type": "address"
        },
        {
          "name": "nickname",
          "type": "string"
        },
        {
          "name": "profileMimeType",
          "type": "string"
        },
        {
          "name": "ipfsHashFunction",
          "type": "uint8"
        },
        {
          "name": "ipfsHashLength",
          "type": "uint8"
        },
        {
          "name": "ipfsHash",
          "type": "bytes"
        },
        {
          "name": "updateTime",
          "type": "uint256"
        }
      ],
      "name": "setProfile",
      "outputs": [
        {
          "name": "checksPassed",
          "type": "bool"
        }
      ],
      "payable": false,
      "stateMutability": "nonpayable",
      "type": "function"
    },
    {
      "anonymous": false,
      "inputs": [
        {
          "indexed": true,
          "name": "parentNumber",
          "type": "uint256"
        },
        {
          "indexed": true,
          "name": "userAddress",
          "type": "address"
        }
      ],
      "name": "UserJoined",
      "type": "event"
    },
    {
      "anonymous": false,
      "inputs": [
        {
          "indexed": true,
          "name": "parentNumber",
          "type": "uint256"
        },
        {
          "indexed": true,
          "name": "userAddress",
          "type": "address"
        }
      ],
      "name": "UserLeft",
      "type": "event"
    },
    {
      "anonymous": false,
      "inputs": [
        {
          "indexed": true,
          "name": "parentNumber",
          "type": "uint256"
        },
        {
          "indexed": true,
          "name": "kickedUserAddress",
          "type": "address"
        },
        {
          "indexed": true,
          "name": "kickingUserAddress",
          "type": "address"
        },
        {
          "indexed": false,
          "name": "reason",
          "type": "string"
        }
      ],
      "name": "UserKicked",
      "type": "event"
    },
    {
      "anonymous": false,
      "inputs": [
        {
          "indexed": true,
          "name": "parentNumber",
          "type": "uint256"
        },
        {
          "indexed": true,
          "name": "bannedUserAddress",
          "type": "address"
        },
        {
          "indexed": true,
          "name": "banningUserAddress",
          "type": "address"
        },
        {
          "indexed": false,
          "name": "reason",
          "type": "string"
        }
      ],
      "name": "UserBanned",
      "type": "event"
    },
    {
      "anonymous": false,
      "inputs": [
        {
          "indexed": true,
          "name": "parentNumber",
          "type": "uint256"
        },
        {
          "indexed": true,
          "name": "mutedUserAddress",
          "type": "address"
        },
        {
          "indexed": true,
          "name": "mutingUserAddress",
          "type": "address"
        }
      ],
      "name": "UserMuted",
      "type": "event"
    },
    {
      "anonymous": false,
      "inputs": [
        {
          "indexed": true,
          "name": "userAddress",
          "type": "address"
        },
        {
          "indexed": false,
          "name": "nickname",
          "type": "string"
        },
        {
          "indexed": false,
          "name": "timestamp",
          "type": "uint256"
        }
      ],
      "name": "UserProfileChanged",
      "type": "event"
    }
  ],
  "bytecode": "0x6060604052341561000f57600080fd5b610e0b8061001e6000396000f30060606040526004361061004c576000357c0100000000000000000000000000000000000000000000000000000000900463ffffffff16806364272bdf14610051578063f67bab0c14610072575b600080fd5b61007060048080359060200190919080359060200190919050506101ab565b005b610191600480803590602001909190803573ffffffffffffffffffffffffffffffffffffffff1690602001909190803590602001908201803590602001908080601f0160208091040260200160405190810160405280939291908181526020018383808284378201915050505050509190803590602001908201803590602001908080601f0160208091040260200160405190810160405280939291908181526020018383808284378201915050505050509190803560ff1690602001909190803560ff1690602001909190803590602001908201803590602001908080601f0160208091040260200160405190810160405280939291908181526020018383808284378201915050505050509190803590602001909190505061069e565b604051808215151515815260200191505060405180910390f35b60006101b8838333610926565b156101c257610699565b8260000160020160009054906101000a900460ff16156102b25773__PermissionLib_________________________6356e7e9128484336000604051602001526040518463ffffffff167c0100000000000000000000000000000000000000000000000000000000028152600401808481526020018381526020018273ffffffffffffffffffffffffffffffffffffffff1673ffffffffffffffffffffffffffffffffffffffff168152602001935050505060206040518083038186803b151561028b57600080fd5b6102c65a03f4151561029c57600080fd5b5050506040518051905015156102b157610699565b5b6102bc838361096f565b9050600081600f0160003373ffffffffffffffffffffffffffffffffffffffff1673ffffffffffffffffffffffffffffffffffffffff16815260200190815260200160002054141561055757610100604051908101604052803373ffffffffffffffffffffffffffffffffffffffff168152602001838152602001428152602001600081526020017fffffffffffffffffffffffffffffffffffffffffffffffffffffffffffffffff8152602001600115158152602001600015158152602001602060405190810160405280600081525081525081600d0160003373ffffffffffffffffffffffffffffffffffffffff1673ffffffffffffffffffffffffffffffffffffffff16815260200190815260200160002060008201518160000160006101000a81548173ffffffffffffffffffffffffffffffffffffffff021916908373ffffffffffffffffffffffffffffffffffffffff1602179055506020820151816001015560408201518160020155606082015181600301556080820151816004015560a08201518160050160006101000a81548160ff02191690831515021790555060c08201518160050160016101000a81548160ff02191690831515021790555060e082015181600601908051906020019061049c929190610c8e565b5090505080600e0180548060010182816104b69190610d0e565b9160005260206000209001600033909190916101000a81548173ffffffffffffffffffffffffffffffffffffffff021916908373ffffffffffffffffffffffffffffffffffffffff1602179055505080600e018054905081600f0160003373ffffffffffffffffffffffffffffffffffffffff1673ffffffffffffffffffffffffffffffffffffffff16815260200190815260200160002081905550610654565b600181600d0160003373ffffffffffffffffffffffffffffffffffffffff1673ffffffffffffffffffffffffffffffffffffffff16815260200190815260200160002060050160006101000a81548160ff0219169083151502179055503381600e01600183600f0160003373ffffffffffffffffffffffffffffffffffffffff1673ffffffffffffffffffffffffffffffffffffffff168152602001908152602001600020540381548110151561060a57fe5b906000526020600020900160006101000a81548173ffffffffffffffffffffffffffffffffffffffff021916908373ffffffffffffffffffffffffffffffffffffffff1602179055505b3373ffffffffffffffffffffffffffffffffffffffff16827f6a5f716eff9d9b77c04378575633c0f6784ea8d1a0b7cc011d723b4022decd5760405160405180910390a35b505050565b60006106af88888888888888610998565b80935081925050508015156106c35761091a565b60a0604051908101604052808881526020018781526020016060604051908101604052808860ff1681526020018760ff1681526020018681525081526020018973ffffffffffffffffffffffffffffffffffffffff168152602001838152508960000160010160008a73ffffffffffffffffffffffffffffffffffffffff1673ffffffffffffffffffffffffffffffffffffffff1681526020019081526020016000206000820151816000019080519060200190610782929190610c8e565b50602082015181600101908051906020019061079f929190610c8e565b5060408201518160020160008201518160000160006101000a81548160ff021916908360ff16021790555060208201518160000160016101000a81548160ff021916908360ff1602179055506040820151816001019080519060200190610807929190610d3a565b50505060608201518160040160006101000a81548173ffffffffffffffffffffffffffffffffffffffff021916908373ffffffffffffffffffffffffffffffffffffffff160217905550608082015181600501559050508773ffffffffffffffffffffffffffffffffffffffff167f953f76616f89ce265d9b8b6b8bc303e885d6c3653e1ae4b3e0dc396953af7ab188846040518080602001838152602001828103825284818151815260200191508051906020019080838360005b838110156108de5780820151818401526020810190506108c3565b50505050905090810190601f16801561090b5780820380516001836020036101000a031916815260200191505b50935050505060405180910390a25b98975050505050505050565b6000808273ffffffffffffffffffffffffffffffffffffffff16141580156109665750610954848484610be3565b60050160009054906101000a900460ff165b90509392505050565b600061097b8383610c3d565b151561098657600080fd5b6109908383610c6c565b905092915050565b600080600091506000905060008973ffffffffffffffffffffffffffffffffffffffff16141515156109c957600080fd5b6040885111156109d857610bd7565b73__ContentLib____________________________63dfe4ac5c8989898989896000604051604001526040518763ffffffff167c01000000000000000000000000000000000000000000000000000000000281526004018080602001806020018760ff1660ff1681526020018660ff1660ff1681526020018060200185815260200184810384528a818151815260200191508051906020019080838360005b83811015610a92578082015181840152602081019050610a77565b50505050905090810190601f168015610abf5780820380516001836020036101000a031916815260200191505b50848103835289818151815260200191508051906020019080838360005b83811015610af8578082015181840152602081019050610add565b50505050905090810190601f168015610b255780820380516001836020036101000a031916815260200191505b50848103825286818151815260200191508051906020019080838360005b83811015610b5e578082015181840152602081019050610b43565b50505050905090810190601f168015610b8b5780820380516001836020036101000a031916815260200191505b509950505050505050505050604080518083038186803b1515610bad57600080fd5b6102c65a03f41515610bbe57600080fd5b5050506040518051906020018051905080925081935050505b97509795505050505050565b600080610bf0858561096f565b905080600d0160008473ffffffffffffffffffffffffffffffffffffffff1673ffffffffffffffffffffffffffffffffffffffff1681526020019081526020016000209150509392505050565b600082600301600001548211158015610c6457506000610c5d8484610c6c565b6006015414155b905092915050565b6000826000016000016000838152602001908152602001600020905092915050565b828054600181600116156101000203166002900490600052602060002090601f016020900481019282601f10610ccf57805160ff1916838001178555610cfd565b82800160010185558215610cfd579182015b82811115610cfc578251825591602001919060010190610ce1565b5b509050610d0a9190610dba565b5090565b815481835581811511610d3557818360005260206000209182019101610d349190610dba565b5b505050565b828054600181600116156101000203166002900490600052602060002090601f016020900481019282601f10610d7b57805160ff1916838001178555610da9565b82800160010185558215610da9579182015b82811115610da8578251825591602001919060010190610d8d565b5b509050610db69190610dba565b5090565b610ddc91905b80821115610dd8576000816000905550600101610dc0565b5090565b905600a165627a7a72305820dc58c9fee1ebd6c8ff40b1cad223ff1615865b2c5e7b6660c8836b0c6d6a5f5d0029",
  "source": "pragma solidity ^0.4.11;\n\nimport \"./ContentLib.sol\";\nimport \"./CurrencyLib.sol\";\nimport \"./PostLib.sol\";\nimport \"./PermissionLib.sol\";\nimport \"./StateLib.sol\";\n\nlibrary UserLib {\n\n  using UserLib for State;\n  using PostLib for PostLib.State;\n  using CurrencyLib for CurrencyLib.State;\n  using PermissionLib for PermissionLib.State;\n\n  event UserJoined(\n    uint256 indexed parentNumber,\n    address indexed userAddress\n  );\n  event UserLeft(\n    uint256 indexed parentNumber,\n    address indexed userAddress\n  );\n  event UserKicked(\n    uint256 indexed parentNumber,\n    address indexed kickedUserAddress,\n    address indexed kickingUserAddress,\n    string reason\n  );\n  event UserBanned(\n    uint256 indexed parentNumber,\n    address indexed bannedUserAddress,\n    address indexed banningUserAddress,\n    string reason\n  );\n  event UserMuted(\n    uint256 indexed parentNumber,\n    address indexed mutedUserAddress,\n    address indexed mutingUserAddress\n  );\n\n  event UserProfileChanged(\n    address indexed userAddress,\n    string nickname,\n    uint256 timestamp\n  );\n\n\n\n\n  struct User {\n    address addr;\n    uint256 parentNum;\n    uint256 joinTime;\n    uint256 balance;\n    int256 permissions; //permission level of user, permit negatives for banned/muted/etc type users, also use largest type to permit flags instead of linear values\n    bool joined;\n    bool banned;\n    string banReason;\n  }\n\n  struct State {\n//    uint256 count;\n//    mapping (uint256 => mapping (address => User)) byAddress; //maps ethereum address (public key) to user objects\n//    mapping (uint256 => address[]) addresses;\n  }\n\n  function getUserRaw(StateLib.State storage state, uint256 parentNum, address userAddress) constant internal returns (User storage) {\n    var p = PostLib.getPost(state, parentNum);\n    return (p.users[userAddress]);\n  }\n\n  function userExists(StateLib.State storage state, uint256 parentNum, address userAddress) constant internal returns (bool) {\n    return (userAddress != 0x0 && getUserRaw(state, parentNum, userAddress).joined);\n  }\n\n  function getUser(StateLib.State storage state, uint256 parentNum, address userAddress) constant internal returns (User storage) {\n    require(userExists(state, parentNum, userAddress));\n    return (getUserRaw(state, parentNum, userAddress));\n  }\n\n  function getUserProfile(StateLib.State storage state, address userAddress) constant internal returns (ContentLib.Content) {\n    return (state.main.userProfiles[userAddress]);\n  }\n\n  function userProfileExists(StateLib.State storage state, address userAddress) constant internal returns (bool) {\n    var profile = getUserProfile(state, userAddress);\n    return (profile.creationTime != 0);\n  }\n\n  function setProfileChecks(\n//    StateLib.State storage state,\n    address userAddress,\n    string nickname,\n    string profileMimeType,\n    uint8 ipfsHashFunction,\n    uint8 ipfsHashLength,\n    bytes ipfsHash,\n    uint256 updateTime\n  ) private view returns (\n    bool checksPassed,\n    uint256 _updateTime\n  ) {\n\n    checksPassed = false;\n    _updateTime = 0;\n\n    require(userAddress != 0x0);\n    //TODO: check nickname length via global ruleset\n    //TODO: UTF-8 length != bytes().length\n    if (bytes(nickname).length > 64)\n      return;\n\n    (checksPassed, _updateTime) = ContentLib.contentCheck(\n//      state,\n      nickname,\n      profileMimeType,\n      ipfsHashFunction,\n      ipfsHashLength,\n      ipfsHash,\n      updateTime\n    );\n  }\n\n  function setProfile(\n    StateLib.State storage state,\n    address userAddress,\n    string nickname,\n    string profileMimeType,\n    uint8 ipfsHashFunction,\n    uint8 ipfsHashLength,\n    bytes ipfsHash,\n    uint256 updateTime\n  ) public returns (\n    bool checksPassed\n  ) {\n    (checksPassed, updateTime) = setProfileChecks(\n//      state,\n      userAddress,\n      nickname,\n      profileMimeType,\n      ipfsHashFunction,\n      ipfsHashLength,\n      ipfsHash,\n      updateTime\n    );\n\n    if (!checksPassed)\n      return;\n\n    state.main.userProfiles[userAddress] = ContentLib.Content({\n      title: nickname,\n      mimeType: profileMimeType,\n      multihash: ContentLib.IpfsMultihash({\n        hashFunction: ipfsHashFunction,\n        hashLength: ipfsHashLength,\n        hash: ipfsHash\n      }),\n      creator: userAddress,\n      creationTime: updateTime\n    });\n    UserProfileChanged(userAddress, nickname, updateTime);\n  }\n\n  function getUsers(StateLib.State storage state, uint256 parentNum) constant internal returns (address[]) {\n    return (PostLib.getPost(state, parentNum).userAddresses);\n  }\n\n  function join(StateLib.State storage state, uint256 parentNum) public {\n    if (userExists(state, parentNum, msg.sender)) {\n      return;\n    }\n\n    if (state.main.initialized) {\n      if (!PermissionLib.userJoin(state, parentNum, msg.sender))\n        return;\n        //UserJoinDenied event emitted by permissionlib\n    }\n\n    var p = PostLib.getPost(state, parentNum);\n\n    if (p.userAddressesMap[msg.sender] == 0) { //user has never been in the group before\n//      state.userLib.count++;\n      p.users[msg.sender] = User({\n        parentNum: parentNum,\n        addr: msg.sender,\n        balance: 0, //TODO: ruleset\n        joined: true,\n        joinTime: block.timestamp,\n        banned: false,\n        banReason: \"\",\n        permissions: -1 //TODO: ruleset, permissions for new users\n      });\n\n      p.userAddresses.push(msg.sender);\n      p.userAddressesMap[msg.sender] = p.userAddresses.length;\n    } else { //user has been in the group before, just restore the user\n      p.users[msg.sender].joined = true;\n      p.userAddresses[p.userAddressesMap[msg.sender] - 1] = msg.sender;\n    }\n\n    UserJoined(parentNum, msg.sender);\n  }\n\n  function removeUser(StateLib.State storage state, uint256 parentNum, address userAddress) internal {\n    var p = PostLib.getPost(state, parentNum);\n    if (p.userAddressesMap[msg.sender] == 0) //user has never been in the group before\n      return;\n    p.users[userAddress].joined = false;\n    p.userAddresses[p.userAddressesMap[userAddress] - 1] = address(0x0);\n    UserLeft(parentNum, userAddress);\n  }\n\n  //apparently this function MUST be internal, otherwise joined=false in removeUser throws invalild opcode??\n  function leave(StateLib.State storage state, uint256 parentNum) internal { \n    if (!userExists(state, parentNum, msg.sender)) {\n      return;\n    }\n\n    //TODO: send the user their ether, based on ruleset\n    removeUser(state, parentNum, msg.sender);\n  }\n\n}\n",
  "sourcePath": "/home/tybrown/Nextcloud/Documents/School/GATech_2017_Fall/CS-3312/CyberneticChat-Frontend/contracts/UserLib.sol",
  "compiler": {
    "name": "solc",
    "version": "0.4.18+commit.9cf6e910.Emscripten.clang"
  },
  "schemaVersion": "1.0.1",
  "updatedAt": "2017-11-15T03:35:19.727Z"
}