{
  "contractName": "ContentLib",
  "abi": [
    {
      "constant": true,
      "inputs": [
        {
          "name": "title",
          "type": "string"
        },
        {
          "name": "mimeType",
          "type": "string"
        },
        {
          "name": "ipfsHashFunction",
          "type": "uint8"
        },
        {
          "name": "ipfsHashLength",
          "type": "uint8"
        },
        {
          "name": "ipfsHash",
          "type": "bytes"
        },
        {
          "name": "creationTime",
          "type": "uint256"
        }
      ],
      "name": "contentCheck",
      "outputs": [
        {
          "name": "checkPassed",
          "type": "bool"
        },
        {
          "name": "_creationTime",
          "type": "uint256"
        }
      ],
      "payable": false,
      "stateMutability": "view",
      "type": "function"
    }
  ],
  "bytecode": "0x6060604052341561000f57600080fd5b6102468061001e6000396000f300606060405260043610610041576000357c0100000000000000000000000000000000000000000000000000000000900463ffffffff168063dfe4ac5c14610046575b600080fd5b61013d600480803590602001908201803590602001908080601f0160208091040260200160405190810160405280939291908181526020018383808284378201915050505050509190803590602001908201803590602001908080601f0160208091040260200160405190810160405280939291908181526020018383808284378201915050505050509190803560ff1690602001909190803560ff1690602001909190803590602001908201803590602001908080601f0160208091040260200160405190810160405280939291908181526020018383808284378201915050505050509190803590602001909190505061015e565b60405180831515151581526020018281526020019250505060405180910390f35b6000806000809250600091506108008951111561017a5761020e565b84518660ff1614151561018c5761020e565b60008660ff161415156101b95760128760ff1614156101b85760208660ff161415156101b757600080fd5b5b5b8751905060008660ff1611156101d85760008114156101d75761020e565b5b60ff8111156101e65761020e565b428411806101f85750610e1042038411155b1561020557429150610209565b8391505b600192505b509650969450505050505600a165627a7a72305820b5540c752124b52bd6539712df049c9de5fb5e1eb0cf73fdec24299f64cae1370029",
  "source": "pragma solidity ^0.4.11;\n\nimport \"./StateLib.sol\";\n\nlibrary ContentLib {\n\n  /*\n     IPFS stores its hashes as a multihash -- the first two bytes represent\n     the hash function used (default SHA256) and the length of the hash,\n     which is typically 0x12 = SHA256 and 0x20 = 32 bytes (256 bits)\n     The hash is typically base58 encoded (like how bitcoin addresses are encoded),\n     but the hash part actually is only 32 bytes long when un-base58 encoded\n   */\n  struct IpfsMultihash {\n    uint8 hashFunction; //first byte of multihash\n    uint8 hashLength; //second byte of multihash\n    bytes hash; //hashLength remaining bytes of multihash\n  }\n\n  struct Content {\n    string title;\n    string mimeType;\n    IpfsMultihash multihash;\n    address creator;\n    uint256 creationTime;\n  }\n\n  function contentCheck(\n//    StateLib.State storage state,\n    string title,\n    string mimeType,\n    uint8 ipfsHashFunction,\n    uint8 ipfsHashLength,\n    bytes ipfsHash,\n    uint256 creationTime\n  ) public view returns (\n    bool checkPassed,\n    uint256 _creationTime\n  ) {\n\n    //        require(ipfsHashLength != 0); //permit content-less posts TODO: ruleset\n    checkPassed = false;\n    _creationTime = 0;\n\n    if (bytes(title).length > 2048) //arbitrary, but pretty close to the gas limit to store 64, 32 byte string segments at 5000 gas per segment\n      return;\n\n    if (ipfsHashLength != ipfsHash.length)\n      return;\n\n    //check if ipfs hash length matches expected size for hash function (function 0x12 should always be 0x20 bytes long) TODO: find out the other (multihash, size) tuples\n    if (ipfsHashLength != 0) {\n      if (ipfsHashFunction == 0x12) {\n        require(ipfsHashLength == 0x20);\n      }\n    }\n\n    uint256 ctLen = bytes(mimeType).length;\n\n    if (ipfsHashLength > 0) { //if there's no content, don't bother checking if there's a content type given\n      if (ctLen == 0)\n        return;\n    }\n\n    //RFC 6838 limits mime types to 127 bytes for each of the major and minor types, plus the separating slash\n    if (ctLen > 255)\n      return;\n\n    if (creationTime > block.timestamp || creationTime <= (block.timestamp - 1 hours)) { //TODO: moving average across all posts in the last hour?\n      _creationTime = block.timestamp; //timestamp was invalid, just get the best time we can from the block\n    } else {\n      _creationTime = creationTime;\n    }\n    checkPassed = true;\n  }\n}\n",
  "sourcePath": "/home/tybrown/Nextcloud/Documents/School/GATech_2017_Fall/CS-3312/CyberneticChat-Frontend/contracts/ContentLib.sol",
  "compiler": {
    "name": "solc",
    "version": "0.4.18+commit.9cf6e910.Emscripten.clang"
  },
  "schemaVersion": "1.0.1",
  "updatedAt": "2017-11-10T22:48:07.755Z"
}