{
  "contractName": "CurrencyLib",
  "abi": [
    {
      "constant": false,
      "inputs": [
        {
          "name": "self",
          "type": "CurrencyLib.State storage"
        },
        {
          "name": "user",
          "type": "UserLib.User storage"
        }
      ],
      "name": "getUserBalance",
      "outputs": [
        {
          "name": "",
          "type": "uint256"
        }
      ],
      "payable": false,
      "type": "function",
      "stateMutability": "nonpayable"
    },
    {
      "constant": false,
      "inputs": [
        {
          "name": "self",
          "type": "CurrencyLib.State storage"
        },
        {
          "name": "user",
          "type": "UserLib.User storage"
        },
        {
          "name": "amount",
          "type": "uint256"
        },
        {
          "name": "increase",
          "type": "bool"
        }
      ],
      "name": "awardTokensToUser",
      "outputs": [],
      "payable": false,
      "type": "function",
      "stateMutability": "nonpayable"
    },
    {
      "constant": false,
      "inputs": [
        {
          "name": "self",
          "type": "CurrencyLib.State storage"
        },
        {
          "name": "userlib",
          "type": "UserLib.State storage"
        },
        {
          "name": "receiverAddress",
          "type": "address"
        },
        {
          "name": "amount",
          "type": "uint256"
        },
        {
          "name": "increase",
          "type": "bool"
        }
      ],
      "name": "transferTokensToUser",
      "outputs": [],
      "payable": false,
      "type": "function",
      "stateMutability": "nonpayable"
    },
    {
      "constant": false,
      "inputs": [
        {
          "name": "self",
          "type": "CurrencyLib.State storage"
        },
        {
          "name": "post",
          "type": "PostLib.Post storage"
        },
        {
          "name": "amount",
          "type": "uint256"
        },
        {
          "name": "increase",
          "type": "bool"
        }
      ],
      "name": "awardTokensToPost",
      "outputs": [],
      "payable": false,
      "type": "function",
      "stateMutability": "nonpayable"
    },
    {
      "constant": false,
      "inputs": [
        {
          "name": "self",
          "type": "CurrencyLib.State storage"
        }
      ],
      "name": "getTotalBalance",
      "outputs": [
        {
          "name": "",
          "type": "uint256"
        }
      ],
      "payable": false,
      "type": "function",
      "stateMutability": "nonpayable"
    },
    {
      "constant": false,
      "inputs": [
        {
          "name": "self",
          "type": "CurrencyLib.State storage"
        },
        {
          "name": "userlib",
          "type": "UserLib.State storage"
        },
        {
          "name": "postlib",
          "type": "PostLib.State storage"
        },
        {
          "name": "postNum",
          "type": "uint256"
        },
        {
          "name": "amount",
          "type": "uint256"
        },
        {
          "name": "increase",
          "type": "bool"
        }
      ],
      "name": "transferTokensToPost",
      "outputs": [],
      "payable": false,
      "type": "function",
      "stateMutability": "nonpayable"
    },
    {
      "constant": false,
      "inputs": [
        {
          "name": "self",
          "type": "CurrencyLib.State storage"
        },
        {
          "name": "post",
          "type": "PostLib.Post storage"
        }
      ],
      "name": "getPostBalance",
      "outputs": [
        {
          "name": "",
          "type": "uint256"
        }
      ],
      "payable": false,
      "type": "function",
      "stateMutability": "nonpayable"
    },
    {
      "anonymous": false,
      "inputs": [
        {
          "indexed": true,
          "name": "userNumber",
          "type": "uint256"
        },
        {
          "indexed": true,
          "name": "userAddress",
          "type": "address"
        },
        {
          "indexed": false,
          "name": "amount",
          "type": "uint256"
        },
        {
          "indexed": false,
          "name": "increased",
          "type": "bool"
        }
      ],
      "name": "UserBalanceChanged",
      "type": "event"
    },
    {
      "anonymous": false,
      "inputs": [
        {
          "indexed": true,
          "name": "postNumber",
          "type": "uint256"
        },
        {
          "indexed": false,
          "name": "amount",
          "type": "uint256"
        },
        {
          "indexed": false,
          "name": "increased",
          "type": "bool"
        }
      ],
      "name": "PostBalanceChanged",
      "type": "event"
    }
  ],
  "bytecode": "0x6060604052341561000f57600080fd5b610a368061001e6000396000f300606060405260043610610083576000357c0100000000000000000000000000000000000000000000000000000000900463ffffffff16806338950e3b146100885780633f2ae1fd146100bd57806387e15be0146100f2578063a4835b2a14610146578063b9203a151461017b578063bbb3c518146101a7578063fa1b303f146101ee575b600080fd5b6100a76004808035906020019091908035906020019091905050610223565b6040518082815260200191505060405180910390f35b6100f06004808035906020019091908035906020019091908035906020019091908035151590602001909190505061029b565b005b610144600480803590602001909190803590602001909190803573ffffffffffffffffffffffffffffffffffffffff1690602001909190803590602001909190803515159060200190919050506105be565b005b61017960048080359060200190919080359060200190919080359060200190919080351515906020019091905050610611565b005b61019160048080359060200190919050506107a7565b6040518082815260200191505060405180910390f35b6101ec600480803590602001909190803590602001909190803590602001909190803590602001909190803590602001909190803515159060200190919050506107b5565b005b61020d6004808035906020019091908035906020019091905050610809565b6040518082815260200191505060405180910390f35b6000808260000160040160009054906101000a900473ffffffffffffffffffffffffffffffffffffffff1690508360000160008273ffffffffffffffffffffffffffffffffffffffff1673ffffffffffffffffffffffffffffffffffffffff1681526020019081526020016000205491505092915050565b6000808460000160040160009054906101000a900473ffffffffffffffffffffffffffffffffffffffff1691508560000160008373ffffffffffffffffffffffffffffffffffffffff1673ffffffffffffffffffffffffffffffffffffffff16815260200190815260200160002054905082156104665761032086600201548561082d565b86600201819055506103738660000160008473ffffffffffffffffffffffffffffffffffffffff1673ffffffffffffffffffffffffffffffffffffffff168152602001908152602001600020548561082d565b8660000160008473ffffffffffffffffffffffffffffffffffffffff1673ffffffffffffffffffffffffffffffffffffffff168152602001908152602001600020819055508173ffffffffffffffffffffffffffffffffffffffff1685600601547f2e059c295c455531568b11c53cf3b686d0da4b0f817fa7b31f2b40e7182ca3f56104408960000160008773ffffffffffffffffffffffffffffffffffffffff1673ffffffffffffffffffffffffffffffffffffffff168152602001908152602001600020548561086b565b8660405180838152602001821515151581526020019250505060405180910390a36105b6565b61047486600201548561086b565b86600201819055506104c78660000160008473ffffffffffffffffffffffffffffffffffffffff1673ffffffffffffffffffffffffffffffffffffffff168152602001908152602001600020548561086b565b8660000160008473ffffffffffffffffffffffffffffffffffffffff1673ffffffffffffffffffffffffffffffffffffffff168152602001908152602001600020819055508173ffffffffffffffffffffffffffffffffffffffff1685600601547f2e059c295c455531568b11c53cf3b686d0da4b0f817fa7b31f2b40e7182ca3f5610594848a60000160008873ffffffffffffffffffffffffffffffffffffffff1673ffffffffffffffffffffffffffffffffffffffff1681526020019081526020016000205461086b565b8660405180838152602001821515151581526020019250505060405180910390a35b505050505050565b60008214156105cc5761060a565b6105eb856105e3338761088a90919063ffffffff16565b84600061029b565b61060985610602858761088a90919063ffffffff16565b848461029b565b5b5050505050565b6000808460060154915085600101600083815260200190815260200160002054905082156106ee5761064786600201548561082d565b866002018190555061066e866001016000848152602001908152602001600020548561082d565b86600101600084815260200190815260200160002081905550817fa70b73fae5551b7da5a5c4f133095b5e15c00ec6876150ed4176b9cfc58460f36106c8886001016000868152602001908152602001600020548461086b565b8560405180838152602001821515151581526020019250505060405180910390a261079f565b6106fc86600201548561086b565b8660020181905550610723866001016000848152602001908152602001600020548561086b565b86600101600084815260200190815260200160002081905550817fa70b73fae5551b7da5a5c4f133095b5e15c00ec6876150ed4176b9cfc58460f361077d838960010160008781526020019081526020016000205461086b565b8560405180838152602001821515151581526020019250505060405180910390a25b505050505050565b600081600201549050919050565b60008214156107c357610801565b6107e2866107da338861088a90919063ffffffff16565b84600061029b565b610800866107f985876108c590919063ffffffff16565b8484610611565b5b505050505050565b60008260010160008360060154815260200190815260200160002054905092915050565b6000828284019150811015610864577fffffffffffffffffffffffffffffffffffffffffffffffffffffffffffffffff9050610865565b5b92915050565b60008282840391508111156108835760009050610884565b5b92915050565b600061089f82846108ee90919063ffffffff16565b15156108aa57600080fd5b6108bd828461096690919063ffffffff16565b905092915050565b60006108d183836109b1565b15156108dc57600080fd5b6108e683836109eb565b905092915050565b6000808273ffffffffffffffffffffffffffffffffffffffff161415151561091557600080fd5b60008360010160008473ffffffffffffffffffffffffffffffffffffffff1673ffffffffffffffffffffffffffffffffffffffff168152602001908152602001600020600601541415905092915050565b60008260010160008373ffffffffffffffffffffffffffffffffffffffff1673ffffffffffffffffffffffffffffffffffffffff168152602001908152602001600020905092915050565b6000826000015482111515156109c657600080fd5b6000836001016000848152602001908152602001600020600601541415905092915050565b60008260010160008381526020019081526020016000209050929150505600a165627a7a72305820403259d6d36b0988fa57d3e56493a67c746e6b2e6d3305eaa0e93f90c81b55210029",
  "source": "pragma solidity ^0.4.11;\n\nimport \"./UserLib.sol\";\nimport \"./PostLib.sol\";\n\nlibrary CurrencyLib {\n  struct State {\n    mapping (address => uint256) userBalance;\n    mapping (uint256 => uint256) postBalance;\n    uint256 total;\n  }\n\n  using UserLib for UserLib.State;\n  using PostLib for PostLib.State;\n\n  event UserBalanceChanged(uint256 indexed userNumber, address indexed userAddress, uint256 amount, bool increased);\n  event PostBalanceChanged(uint256 indexed postNumber, uint256 amount, bool increased);\n\n  function transferTokensToUser(\n    State storage self,\n    UserLib.State storage userlib,\n    address receiverAddress,\n    uint256 amount,\n    bool increase\n  ) {\n    if (amount == 0) {\n      return;\n    }\n    awardTokensToUser(self, userlib.getUserByAddress(msg.sender), amount, false);\n    awardTokensToUser(self, userlib.getUserByAddress(receiverAddress), amount, increase);\n    //TODO: ruleset taxes, not 1:1 deduction?\n  }\n\n  function transferTokensToPost(\n    State storage self,\n    UserLib.State storage userlib,\n    PostLib.State storage postlib,\n    uint256 postNum,\n    uint256 amount,\n    bool increase\n  ) {\n    if (amount == 0) {\n      return;\n    }\n    awardTokensToUser(self, userlib.getUserByAddress(msg.sender), amount, false);\n    awardTokensToPost(self, postlib.getPostByNumber(postNum), amount, increase);\n    //TODO: ruleset taxes, not 1:1 deduction?\n  }\n\n  function add(uint256 x, uint256 y) internal returns (uint256 z) {\n    if ((z = x + y) < x) {\n      return (2**256 - 1);\n    }\n  }\n\n  function subtract(uint256 x, uint256 y) internal returns (uint256 z) {\n    if ((z = x - y) > x) {\n      return (0);\n    }\n  }\n\n  function awardTokensToUser(\n    State storage self,\n    UserLib.User storage user,\n    uint256 amount,\n    bool increase\n  ) {\n    address userAddress = user.contents.creator;\n    uint256 oldBalance = self.userBalance[userAddress];\n    if (increase) {\n      self.total = add(self.total, amount);\n      self.userBalance[userAddress] = add(self.userBalance[userAddress], amount);\n      UserBalanceChanged(user.number, userAddress, subtract(self.userBalance[userAddress], oldBalance), increase);\n    } else {\n      self.total = subtract(self.total, amount);\n      self.userBalance[userAddress] = subtract(self.userBalance[userAddress], amount);\n      UserBalanceChanged(user.number, userAddress, subtract(oldBalance, self.userBalance[userAddress]), increase);\n    }\n  }\n\n  function awardTokensToPost(\n    State storage self,\n    PostLib.Post storage post,\n    uint256 amount,\n    bool increase\n  ) {\n    uint256 postNum = post.number;\n    uint256 oldBalance = self.postBalance[postNum];\n    if (increase) {\n      self.total = add(self.total, amount);\n      self.postBalance[postNum] = add(self.postBalance[postNum], amount);\n      PostBalanceChanged(postNum, subtract(self.postBalance[postNum], oldBalance), increase);\n    } else {\n      self.total = subtract(self.total, amount);\n      self.postBalance[postNum] = subtract(self.postBalance[postNum], amount);\n      PostBalanceChanged(postNum, subtract(oldBalance, self.postBalance[postNum]), increase);\n    }\n  }\n\n  function getUserBalance(State storage self, UserLib.User storage user) returns (uint256) {\n    address userAddress = user.contents.creator;\n    return (self.userBalance[userAddress]);\n  }\n\n  function getPostBalance(State storage self, PostLib.Post storage post) returns (uint256) {\n    return (self.postBalance[post.number]);\n  }\n\n  function getTotalBalance(State storage self) returns (uint256) {\n    return (self.total);\n  }\n}\n",
  "sourcePath": "/Users/kylegrinstead/Dropbox/Developer/gatech/Junior_Design/Frontend/contracts/CurrencyLib.sol",
  "compiler": {
    "name": "solc",
    "version": "0.4.18+commit.9cf6e910.Emscripten.clang"
  },
  "schemaVersion": "1.0.1",
  "updatedAt": "2017-10-31T22:22:41.847Z"
}