{
  "contractName": "Group",
  "abi": [
    {
      "constant": false,
      "inputs": [
        {
          "name": "title",
          "type": "string"
        },
        {
          "name": "mimeType",
          "type": "string"
        },
        {
          "name": "ipfsHashFunction",
          "type": "uint8"
        },
        {
          "name": "ipfsHashLength",
          "type": "uint8"
        },
        {
          "name": "ipfsHash",
          "type": "bytes"
        },
        {
          "name": "creationTime",
          "type": "uint256"
        }
      ],
      "name": "createPost",
      "outputs": [
        {
          "name": "",
          "type": "uint256"
        }
      ],
      "payable": false,
      "type": "function",
      "stateMutability": "nonpayable"
    },
    {
      "constant": false,
      "inputs": [],
      "name": "getCreator",
      "outputs": [
        {
          "name": "",
          "type": "address"
        }
      ],
      "payable": false,
      "type": "function",
      "stateMutability": "nonpayable"
    },
    {
      "constant": false,
      "inputs": [],
      "name": "getTotalBalance",
      "outputs": [
        {
          "name": "",
          "type": "uint256"
        }
      ],
      "payable": false,
      "type": "function",
      "stateMutability": "nonpayable"
    },
    {
      "constant": false,
      "inputs": [
        {
          "name": "num",
          "type": "uint256"
        }
      ],
      "name": "getPostByNumber",
      "outputs": [
        {
          "name": "title",
          "type": "string"
        },
        {
          "name": "number",
          "type": "uint256"
        },
        {
          "name": "mimeType",
          "type": "string"
        },
        {
          "name": "ipfsHashFunction",
          "type": "uint8"
        },
        {
          "name": "ipfsHashLength",
          "type": "uint8"
        },
        {
          "name": "ipfsHash",
          "type": "bytes"
        },
        {
          "name": "creator",
          "type": "address"
        },
        {
          "name": "creationTime",
          "type": "uint256"
        },
        {
          "name": "groupAddress",
          "type": "address"
        },
        {
          "name": "balance",
          "type": "uint256"
        },
        {
          "name": "permissions",
          "type": "int256"
        }
      ],
      "payable": false,
      "type": "function",
      "stateMutability": "nonpayable"
    },
    {
      "constant": false,
      "inputs": [
        {
          "name": "num",
          "type": "uint256"
        }
      ],
      "name": "postExistsByNumber",
      "outputs": [
        {
          "name": "",
          "type": "bool"
        }
      ],
      "payable": false,
      "type": "function",
      "stateMutability": "nonpayable"
    },
    {
      "constant": false,
      "inputs": [],
      "name": "getUserNumbers",
      "outputs": [
        {
          "name": "",
          "type": "uint256[]"
        }
      ],
      "payable": false,
      "type": "function",
      "stateMutability": "nonpayable"
    },
    {
      "constant": true,
      "inputs": [],
      "name": "getPostNumbers",
      "outputs": [
        {
          "name": "",
          "type": "uint256[]"
        }
      ],
      "payable": false,
      "type": "function",
      "stateMutability": "view"
    },
    {
      "constant": false,
      "inputs": [
        {
          "name": "addr",
          "type": "address"
        }
      ],
      "name": "userExistsByAddress",
      "outputs": [
        {
          "name": "",
          "type": "bool"
        }
      ],
      "payable": false,
      "type": "function",
      "stateMutability": "nonpayable"
    },
    {
      "constant": false,
      "inputs": [
        {
          "name": "userAddress",
          "type": "address"
        }
      ],
      "name": "getUserByAddress",
      "outputs": [
        {
          "name": "nickname",
          "type": "string"
        },
        {
          "name": "number",
          "type": "uint256"
        },
        {
          "name": "profileMimeType",
          "type": "string"
        },
        {
          "name": "ipfsHashFunction",
          "type": "uint8"
        },
        {
          "name": "ipfsHashLength",
          "type": "uint8"
        },
        {
          "name": "ipfsHash",
          "type": "bytes"
        },
        {
          "name": "addr",
          "type": "address"
        },
        {
          "name": "joinTime",
          "type": "uint256"
        },
        {
          "name": "directAddress",
          "type": "address"
        },
        {
          "name": "balance",
          "type": "uint256"
        },
        {
          "name": "permissions",
          "type": "int256"
        }
      ],
      "payable": false,
      "type": "function",
      "stateMutability": "nonpayable"
    },
    {
      "constant": false,
      "inputs": [],
      "name": "getContentAddress",
      "outputs": [
        {
          "name": "",
          "type": "uint8"
        },
        {
          "name": "",
          "type": "uint8"
        },
        {
          "name": "",
          "type": "bytes"
        }
      ],
      "payable": false,
      "type": "function",
      "stateMutability": "nonpayable"
    },
    {
      "constant": false,
      "inputs": [],
      "name": "joinGroup",
      "outputs": [],
      "payable": false,
      "type": "function",
      "stateMutability": "nonpayable"
    },
    {
      "constant": false,
      "inputs": [],
      "name": "getUserAddresses",
      "outputs": [
        {
          "name": "",
          "type": "address[]"
        }
      ],
      "payable": false,
      "type": "function",
      "stateMutability": "nonpayable"
    },
    {
      "constant": false,
      "inputs": [
        {
          "name": "num",
          "type": "uint256"
        }
      ],
      "name": "userExistsByNumber",
      "outputs": [
        {
          "name": "",
          "type": "bool"
        }
      ],
      "payable": false,
      "type": "function",
      "stateMutability": "nonpayable"
    },
    {
      "constant": false,
      "inputs": [],
      "name": "leaveGroup",
      "outputs": [],
      "payable": false,
      "type": "function",
      "stateMutability": "nonpayable"
    },
    {
      "constant": false,
      "inputs": [],
      "name": "getContentType",
      "outputs": [
        {
          "name": "",
          "type": "string"
        }
      ],
      "payable": false,
      "type": "function",
      "stateMutability": "nonpayable"
    },
    {
      "constant": false,
      "inputs": [
        {
          "name": "num",
          "type": "uint256"
        }
      ],
      "name": "getUserByNumber",
      "outputs": [
        {
          "name": "nickname",
          "type": "string"
        },
        {
          "name": "number",
          "type": "uint256"
        },
        {
          "name": "profileMimeType",
          "type": "string"
        },
        {
          "name": "ipfsHashFunction",
          "type": "uint8"
        },
        {
          "name": "ipfsHashLength",
          "type": "uint8"
        },
        {
          "name": "ipfsHash",
          "type": "bytes"
        },
        {
          "name": "addr",
          "type": "address"
        },
        {
          "name": "joinTime",
          "type": "uint256"
        },
        {
          "name": "directAddress",
          "type": "address"
        },
        {
          "name": "balance",
          "type": "uint256"
        },
        {
          "name": "permissions",
          "type": "int256"
        }
      ],
      "payable": false,
      "type": "function",
      "stateMutability": "nonpayable"
    },
    {
      "constant": false,
      "inputs": [],
      "name": "getCreationTime",
      "outputs": [
        {
          "name": "",
          "type": "uint256"
        }
      ],
      "payable": false,
      "type": "function",
      "stateMutability": "nonpayable"
    },
    {
      "constant": false,
      "inputs": [
        {
          "name": "num",
          "type": "uint256"
        },
        {
          "name": "groupAddress",
          "type": "address"
        }
      ],
      "name": "setGroupAddressOfPost",
      "outputs": [],
      "payable": false,
      "type": "function",
      "stateMutability": "nonpayable"
    },
    {
      "constant": false,
      "inputs": [
        {
          "name": "userAddress",
          "type": "address"
        },
        {
          "name": "amount",
          "type": "uint256"
        },
        {
          "name": "increase",
          "type": "bool"
        }
      ],
      "name": "transferTokensToUser",
      "outputs": [],
      "payable": false,
      "type": "function",
      "stateMutability": "nonpayable"
    },
    {
      "constant": false,
      "inputs": [],
      "name": "getTitle",
      "outputs": [
        {
          "name": "",
          "type": "string"
        }
      ],
      "payable": false,
      "type": "function",
      "stateMutability": "nonpayable"
    },
    {
      "inputs": [
        {
          "name": "title",
          "type": "string"
        },
        {
          "name": "contentType",
          "type": "string"
        },
        {
          "name": "ipfsHashFunction",
          "type": "uint8"
        },
        {
          "name": "ipfsHashLength",
          "type": "uint8"
        },
        {
          "name": "ipfsHash",
          "type": "bytes"
        },
        {
          "name": "creationTime",
          "type": "uint256"
        }
      ],
      "payable": false,
      "type": "constructor",
      "stateMutability": "nonpayable"
    },
    {
      "anonymous": false,
      "inputs": [
        {
          "indexed": true,
          "name": "postNumber",
          "type": "uint256"
        }
      ],
      "name": "PostCreated",
      "type": "event"
    },
    {
      "anonymous": false,
      "inputs": [
        {
          "indexed": true,
          "name": "postNumber",
          "type": "uint256"
        },
        {
          "indexed": false,
          "name": "groupAddress",
          "type": "address"
        }
      ],
      "name": "SubgroupCreated",
      "type": "event"
    },
    {
      "anonymous": false,
      "inputs": [
        {
          "indexed": true,
          "name": "userNumber",
          "type": "uint256"
        },
        {
          "indexed": true,
          "name": "userAddress",
          "type": "address"
        }
      ],
      "name": "UserJoined",
      "type": "event"
    },
    {
      "anonymous": false,
      "inputs": [
        {
          "indexed": true,
          "name": "userNumber",
          "type": "uint256"
        },
        {
          "indexed": true,
          "name": "userAddress",
          "type": "address"
        }
      ],
      "name": "UserLeft",
      "type": "event"
    },
    {
      "anonymous": false,
      "inputs": [
        {
          "indexed": true,
          "name": "userNumber",
          "type": "uint256"
        },
        {
          "indexed": true,
          "name": "userAddress",
          "type": "address"
        },
        {
          "indexed": false,
          "name": "amount",
          "type": "uint256"
        },
        {
          "indexed": false,
          "name": "increased",
          "type": "bool"
        }
      ],
      "name": "UserBalanceChanged",
      "type": "event"
    },
    {
      "anonymous": false,
      "inputs": [
        {
          "indexed": true,
          "name": "postNumber",
          "type": "uint256"
        },
        {
          "indexed": false,
          "name": "amount",
          "type": "uint256"
        },
        {
          "indexed": false,
          "name": "increased",
          "type": "bool"
        }
      ],
      "name": "PostBalanceChanged",
      "type": "event"
    }
  ],
  "bytecode": "0x606060405234156200001057600080fd5b6040516200284e3803806200284e8339810160405280805182019190602001805182019190602001805190602001909190805190602001909190805182019190602001805190602001909190505081518360ff161415156200007157600080fd5b856000800190805190602001906200008b92919062000315565b508460006001019080519060200190620000a792919062000315565b5083600060020160000160006101000a81548160ff021916908360ff16021790555082600060020160000160016101000a81548160ff021916908360ff1602179055508160006002016001019080519060200190620001089291906200039c565b5033600060040160006101000a81548173ffffffffffffffffffffffffffffffffffffffff021916908373ffffffffffffffffffffffffffffffffffffffff16021790555062000191600060040160009054906101000a900473ffffffffffffffffffffffffffffffffffffffff16620001ea64010000000002620014d3176401000000009004565b1515620001b757620001b662000217640100000000026200194c176401000000009004565b5b42811180620001ca5750610e1042038111155b15620001d4574290505b806000600501819055505050505050506200044b565b6000620002108260096200029c64010000000002620021d8179091906401000000009004565b9050919050565b600973__UserLib_______________________________635164223890916040518263ffffffff167c01000000000000000000000000000000000000000000000000000000000281526004018082815260200191505060006040518083038186803b15156200028557600080fd5b6102c65a03f415156200029757600080fd5b505050565b6000808273ffffffffffffffffffffffffffffffffffffffff1614151515620002c457600080fd5b60008360010160008473ffffffffffffffffffffffffffffffffffffffff1673ffffffffffffffffffffffffffffffffffffffff168152602001908152602001600020600601541415905092915050565b828054600181600116156101000203166002900490600052602060002090601f016020900481019282601f106200035857805160ff191683800117855562000389565b8280016001018555821562000389579182015b82811115620003885782518255916020019190600101906200036b565b5b50905062000398919062000423565b5090565b828054600181600116156101000203166002900490600052602060002090601f016020900481019282601f10620003df57805160ff191683800117855562000410565b8280016001018555821562000410579182015b828111156200040f578251825591602001919060010190620003f2565b5b5090506200041f919062000423565b5090565b6200044891905b80821115620004445760008160009055506001016200042a565b5090565b90565b6123f3806200045b6000396000f300606060405260043610610112576000357c0100000000000000000000000000000000000000000000000000000000900463ffffffff1680630948455f146101175780630ee2cb101461022f57806312b58349146102845780631a67166a146102ad5780633258d66b146104bd57806350044901146104f85780635c296def1461056257806362cef75b146105cc57806369c212f61461061d5780636ad3f723146108435780639ac79e0a146108eb578063a591efde14610900578063b075dc411461096a578063cb1fb490146109a5578063cb93d99f146109ba578063d579f16e14610a48578063e6519a3514610c58578063e7c0817314610c81578063fb337e9414610cc3578063ff3c1a8f14610d10575b600080fd5b341561012257600080fd5b610219600480803590602001908201803590602001908080601f0160208091040260200160405190810160405280939291908181526020018383808284378201915050505050509190803590602001908201803590602001908080601f0160208091040260200160405190810160405280939291908181526020018383808284378201915050505050509190803560ff1690602001909190803560ff1690602001909190803590602001908201803590602001908080601f01602080910402602001604051908101604052809392919081815260200183838082843782019150505050505091908035906020019091905050610d9e565b6040518082815260200191505060405180910390f35b341561023a57600080fd5b610242610fba565b604051808273ffffffffffffffffffffffffffffffffffffffff1673ffffffffffffffffffffffffffffffffffffffff16815260200191505060405180910390f35b341561028f57600080fd5b610297610fe6565b6040518082815260200191505060405180910390f35b34156102b857600080fd5b6102ce600480803590602001909190505061107e565b60405180806020018c8152602001806020018b60ff1660ff1681526020018a60ff1660ff168152602001806020018973ffffffffffffffffffffffffffffffffffffffff1673ffffffffffffffffffffffffffffffffffffffff1681526020018881526020018773ffffffffffffffffffffffffffffffffffffffff1673ffffffffffffffffffffffffffffffffffffffff16815260200186815260200185815260200184810384528f818151815260200191508051906020019080838360005b838110156103aa57808201518184015260208101905061038f565b50505050905090810190601f1680156103d75780820380516001836020036101000a031916815260200191505b5084810383528d818151815260200191508051906020019080838360005b838110156104105780820151818401526020810190506103f5565b50505050905090810190601f16801561043d5780820380516001836020036101000a031916815260200191505b5084810382528a818151815260200191508051906020019080838360005b8381101561047657808201518184015260208101905061045b565b50505050905090810190601f1680156104a35780820380516001836020036101000a031916815260200191505b509e50505050505050505050505050505060405180910390f35b34156104c857600080fd5b6104de60048080359060200190919050506113f4565b604051808215151515815260200191505060405180910390f35b341561050357600080fd5b61050b611411565b6040518080602001828103825283818151815260200191508051906020019060200280838360005b8381101561054e578082015181840152602081019050610533565b505050509050019250505060405180910390f35b341561056d57600080fd5b610575611472565b6040518080602001828103825283818151815260200191508051906020019060200280838360005b838110156105b857808201518184015260208101905061059d565b505050509050019250505060405180910390f35b34156105d757600080fd5b610603600480803573ffffffffffffffffffffffffffffffffffffffff169060200190919050506114d3565b604051808215151515815260200191505060405180910390f35b341561062857600080fd5b610654600480803573ffffffffffffffffffffffffffffffffffffffff169060200190919050506114f0565b60405180806020018c8152602001806020018b60ff1660ff1681526020018a60ff1660ff168152602001806020018973ffffffffffffffffffffffffffffffffffffffff1673ffffffffffffffffffffffffffffffffffffffff1681526020018881526020018773ffffffffffffffffffffffffffffffffffffffff1673ffffffffffffffffffffffffffffffffffffffff16815260200186815260200185815260200184810384528f818151815260200191508051906020019080838360005b83811015610730578082015181840152602081019050610715565b50505050905090810190601f16801561075d5780820380516001836020036101000a031916815260200191505b5084810383528d818151815260200191508051906020019080838360005b8381101561079657808201518184015260208101905061077b565b50505050905090810190601f1680156107c35780820380516001836020036101000a031916815260200191505b5084810382528a818151815260200191508051906020019080838360005b838110156107fc5780820151818401526020810190506107e1565b50505050905090810190601f1680156108295780820380516001836020036101000a031916815260200191505b509e50505050505050505050505050505060405180910390f35b341561084e57600080fd5b610856611866565b604051808460ff1660ff1681526020018360ff1660ff16815260200180602001828103825283818151815260200191508051906020019080838360005b838110156108ae578082015181840152602081019050610893565b50505050905090810190601f1680156108db5780820380516001836020036101000a031916815260200191505b5094505050505060405180910390f35b34156108f657600080fd5b6108fe61194c565b005b341561090b57600080fd5b6109136119cf565b6040518080602001828103825283818151815260200191508051906020019060200280838360005b8381101561095657808201518184015260208101905061093b565b505050509050019250505060405180910390f35b341561097557600080fd5b61098b6004808035906020019091905050611a66565b604051808215151515815260200191505060405180910390f35b34156109b057600080fd5b6109b8611a83565b005b34156109c557600080fd5b6109cd611b06565b6040518080602001828103825283818151815260200191508051906020019080838360005b83811015610a0d5780820151818401526020810190506109f2565b50505050905090810190601f168015610a3a5780820380516001836020036101000a031916815260200191505b509250505060405180910390f35b3415610a5357600080fd5b610a696004808035906020019091905050611bb1565b60405180806020018c8152602001806020018b60ff1660ff1681526020018a60ff1660ff168152602001806020018973ffffffffffffffffffffffffffffffffffffffff1673ffffffffffffffffffffffffffffffffffffffff1681526020018881526020018773ffffffffffffffffffffffffffffffffffffffff1673ffffffffffffffffffffffffffffffffffffffff16815260200186815260200185815260200184810384528f818151815260200191508051906020019080838360005b83811015610b45578082015181840152602081019050610b2a565b50505050905090810190601f168015610b725780820380516001836020036101000a031916815260200191505b5084810383528d818151815260200191508051906020019080838360005b83811015610bab578082015181840152602081019050610b90565b50505050905090810190601f168015610bd85780820380516001836020036101000a031916815260200191505b5084810382528a818151815260200191508051906020019080838360005b83811015610c11578082015181840152602081019050610bf6565b50505050905090810190601f168015610c3e5780820380516001836020036101000a031916815260200191505b509e50505050505050505050505050505060405180910390f35b3415610c6357600080fd5b610c6b611f27565b6040518082815260200191505060405180910390f35b3415610c8c57600080fd5b610cc1600480803590602001909190803573ffffffffffffffffffffffffffffffffffffffff16906020019091905050611f33565b005b3415610cce57600080fd5b610d0e600480803573ffffffffffffffffffffffffffffffffffffffff169060200190919080359060200190919080351515906020019091905050611ff4565b005b3415610d1b57600080fd5b610d236120cb565b6040518080602001828103825283818151815260200191508051906020019080838360005b83811015610d63578082015181840152602081019050610d48565b50505050905090810190601f168015610d905780820380516001836020036101000a031916815260200191505b509250505060405180910390f35b6000600673__PostLib_______________________________635383660b90916009600e8b8b8b8b8b8b6000604051602001526040518a63ffffffff167c0100000000000000000000000000000000000000000000000000000000028152600401808a815260200189815260200188815260200180602001806020018760ff1660ff1681526020018660ff1660ff1681526020018060200185815260200184810384528a818151815260200191508051906020019080838360005b83811015610e74578082015181840152602081019050610e59565b50505050905090810190601f168015610ea15780820380516001836020036101000a031916815260200191505b50848103835289818151815260200191508051906020019080838360005b83811015610eda578082015181840152602081019050610ebf565b50505050905090810190601f168015610f075780820380516001836020036101000a031916815260200191505b50848103825286818151815260200191508051906020019080838360005b83811015610f40578082015181840152602081019050610f25565b50505050905090810190601f168015610f6d5780820380516001836020036101000a031916815260200191505b509c5050505050505050505050505060206040518083038186803b1515610f9357600080fd5b6102c65a03f41515610fa457600080fd5b5050506040518051905090509695505050505050565b60008060040160009054906101000a900473ffffffffffffffffffffffffffffffffffffffff16905090565b6000600e73__CurrencyLib___________________________63b9203a1590916000604051602001526040518263ffffffff167c01000000000000000000000000000000000000000000000000000000000281526004018082815260200191505060206040518083038186803b151561105e57600080fd5b6102c65a03f4151561106f57600080fd5b50505060405180519050905090565b611086612377565b6000611090612377565b60008061109b61238b565b6000806000806000806110b88d600661217590919063ffffffff16565b9050806000016000018160060154826000016001018360000160020160000160009054906101000a900460ff168460000160020160000160019054906101000a900460ff16856000016002016001018660000160040160009054906101000a900473ffffffffffffffffffffffffffffffffffffffff1687600001600501548860070160009054906101000a900473ffffffffffffffffffffffffffffffffffffffff16600e73__CurrencyLib___________________________63fa1b303f90918c6000604051602001526040518363ffffffff167c0100000000000000000000000000000000000000000000000000000000028152600401808381526020018281526020019250505060206040518083038186803b15156111da57600080fd5b6102c65a03f415156111eb57600080fd5b505050604051805190508a600801548a8054600181600116156101000203166002900480601f01602080910402602001604051908101604052809291908181526020018280546001816001161561010002031660029004801561128f5780601f106112645761010080835404028352916020019161128f565b820191906000526020600020905b81548152906001019060200180831161127257829003601f168201915b50505050509a50888054600181600116156101000203166002900480601f01602080910402602001604051908101604052809291908181526020018280546001816001161561010002031660029004801561132b5780601f106113005761010080835404028352916020019161132b565b820191906000526020600020905b81548152906001019060200180831161130e57829003601f168201915b50505050509850858054600181600116156101000203166002900480601f0160208091040260200160405190810160405280929190818152602001828054600181600116156101000203166002900480156113c75780601f1061139c576101008083540402835291602001916113c7565b820191906000526020600020905b8154815290600101906020018083116113aa57829003601f168201915b505050505095509b509b509b509b509b509b509b509b509b509b509b505091939597999b90929496989a50565b600061140a82600661219e90919063ffffffff16565b9050919050565b61141961239f565b600960030180548060200260200160405190810160405280929190818152602001828054801561146857602002820191906000526020600020905b815481526020019060010190808311611454575b5050505050905090565b61147a61239f565b60066002018054806020026020016040519081016040528092919081815260200182805480156114c957602002820191906000526020600020905b8154815260200190600101908083116114b5575b5050505050905090565b60006114e98260096121d890919063ffffffff16565b9050919050565b6114f8612377565b6000611502612377565b60008061150d61238b565b60008060008060008061152a8d600961225090919063ffffffff16565b9050806000016000018160060154826000016001018360000160020160000160009054906101000a900460ff168460000160020160000160019054906101000a900460ff16856000016002016001018660000160040160009054906101000a900473ffffffffffffffffffffffffffffffffffffffff1687600001600501548860070160009054906101000a900473ffffffffffffffffffffffffffffffffffffffff16600e73__CurrencyLib___________________________6338950e3b90918c6000604051602001526040518363ffffffff167c0100000000000000000000000000000000000000000000000000000000028152600401808381526020018281526020019250505060206040518083038186803b151561164c57600080fd5b6102c65a03f4151561165d57600080fd5b505050604051805190508a600801548a8054600181600116156101000203166002900480601f0160208091040260200160405190810160405280929190818152602001828054600181600116156101000203166002900480156117015780601f106116d657610100808354040283529160200191611701565b820191906000526020600020905b8154815290600101906020018083116116e457829003601f168201915b50505050509a50888054600181600116156101000203166002900480601f01602080910402602001604051908101604052809291908181526020018280546001816001161561010002031660029004801561179d5780601f106117725761010080835404028352916020019161179d565b820191906000526020600020905b81548152906001019060200180831161178057829003601f168201915b50505050509850858054600181600116156101000203166002900480601f0160208091040260200160405190810160405280929190818152602001828054600181600116156101000203166002900480156118395780601f1061180e57610100808354040283529160200191611839565b820191906000526020600020905b81548152906001019060200180831161181c57829003601f168201915b505050505095509b509b509b509b509b509b509b509b509b509b509b505091939597999b90929496989a50565b60008061187161238b565b600060020160000160009054906101000a900460ff16600060020160000160019054906101000a900460ff166000600201600101808054600181600116156101000203166002900480601f01602080910402602001604051908101604052809291908181526020018280546001816001161561010002031660029004801561193a5780601f1061190f5761010080835404028352916020019161193a565b820191906000526020600020905b81548152906001019060200180831161191d57829003601f168201915b50505050509050925092509250909192565b600973__UserLib_______________________________635164223890916040518263ffffffff167c01000000000000000000000000000000000000000000000000000000000281526004018082815260200191505060006040518083038186803b15156119b957600080fd5b6102c65a03f415156119ca57600080fd5b505050565b6119d76123b3565b6009600401805480602002602001604051908101604052809291908181526020018280548015611a5c57602002820191906000526020600020905b8160009054906101000a900473ffffffffffffffffffffffffffffffffffffffff1673ffffffffffffffffffffffffffffffffffffffff1681526020019060010190808311611a12575b5050505050905090565b6000611a7c82600961228b90919063ffffffff16565b9050919050565b600973__UserLib_______________________________636500a04d90916040518263ffffffff167c01000000000000000000000000000000000000000000000000000000000281526004018082815260200191505060006040518083038186803b1515611af057600080fd5b6102c65a03f41515611b0157600080fd5b505050565b611b0e612377565b60006001018054600181600116156101000203166002900480601f016020809104026020016040519081016040528092919081815260200182805460018160011615610100020316600290048015611ba75780601f10611b7c57610100808354040283529160200191611ba7565b820191906000526020600020905b815481529060010190602001808311611b8a57829003601f168201915b5050505050905090565b611bb9612377565b6000611bc3612377565b600080611bce61238b565b600080600080600080611beb8d60096122c590919063ffffffff16565b9050806000016000018160060154826000016001018360000160020160000160009054906101000a900460ff168460000160020160000160019054906101000a900460ff16856000016002016001018660000160040160009054906101000a900473ffffffffffffffffffffffffffffffffffffffff1687600001600501548860070160009054906101000a900473ffffffffffffffffffffffffffffffffffffffff16600e73__CurrencyLib___________________________6338950e3b90918c6000604051602001526040518363ffffffff167c0100000000000000000000000000000000000000000000000000000000028152600401808381526020018281526020019250505060206040518083038186803b1515611d0d57600080fd5b6102c65a03f41515611d1e57600080fd5b505050604051805190508a600801548a8054600181600116156101000203166002900480601f016020809104026020016040519081016040528092919081815260200182805460018160011615610100020316600290048015611dc25780601f10611d9757610100808354040283529160200191611dc2565b820191906000526020600020905b815481529060010190602001808311611da557829003601f168201915b50505050509a50888054600181600116156101000203166002900480601f016020809104026020016040519081016040528092919081815260200182805460018160011615610100020316600290048015611e5e5780601f10611e3357610100808354040283529160200191611e5e565b820191906000526020600020905b815481529060010190602001808311611e4157829003601f168201915b50505050509850858054600181600116156101000203166002900480601f016020809104026020016040519081016040528092919081815260200182805460018160011615610100020316600290048015611efa5780601f10611ecf57610100808354040283529160200191611efa565b820191906000526020600020905b815481529060010190602001808311611edd57829003601f168201915b505050505095509b509b509b509b509b509b509b509b509b509b509b505091939597999b90929496989a50565b60008060050154905090565b600673__PostLib_______________________________638e018a31909184846040518463ffffffff167c0100000000000000000000000000000000000000000000000000000000028152600401808481526020018381526020018273ffffffffffffffffffffffffffffffffffffffff1673ffffffffffffffffffffffffffffffffffffffff168152602001935050505060006040518083038186803b1515611fdc57600080fd5b6102c65a03f41515611fed57600080fd5b5050505050565b600e73__CurrencyLib___________________________6387e15be0909160098686866040518663ffffffff167c0100000000000000000000000000000000000000000000000000000000028152600401808681526020018581526020018473ffffffffffffffffffffffffffffffffffffffff1673ffffffffffffffffffffffffffffffffffffffff168152602001838152602001821515151581526020019550505050505060006040518083038186803b15156120b257600080fd5b6102c65a03f415156120c357600080fd5b505050505050565b6120d3612377565b600080018054600181600116156101000203166002900480601f01602080910402602001604051908101604052809291908181526020018280546001816001161561010002031660029004801561216b5780601f106121405761010080835404028352916020019161216b565b820191906000526020600020905b81548152906001019060200180831161214e57829003601f168201915b5050505050905090565b6000612181838361219e565b151561218c57600080fd5b61219683836122ee565b905092915050565b6000826000015482111515156121b357600080fd5b6000836001016000848152602001908152602001600020600601541415905092915050565b6000808273ffffffffffffffffffffffffffffffffffffffff16141515156121ff57600080fd5b60008360010160008473ffffffffffffffffffffffffffffffffffffffff1673ffffffffffffffffffffffffffffffffffffffff168152602001908152602001600020600601541415905092915050565b600061226582846121d890919063ffffffff16565b151561227057600080fd5b612283828461230d90919063ffffffff16565b905092915050565b6000826000015482111515156122a057600080fd5b6000836002016000848152602001908152602001600020600601541415905092915050565b60006122d1838361228b565b15156122dc57600080fd5b6122e68383612358565b905092915050565b6000826001016000838152602001908152602001600020905092915050565b60008260010160008373ffffffffffffffffffffffffffffffffffffffff1673ffffffffffffffffffffffffffffffffffffffff168152602001908152602001600020905092915050565b6000826002016000838152602001908152602001600020905092915050565b602060405190810160405280600081525090565b602060405190810160405280600081525090565b602060405190810160405280600081525090565b6020604051908101604052806000815250905600a165627a7a72305820049a1f47abc4af7b1983e3003f7d79b5b25ae9c2e10d7544d861e2bacc8072d60029",
  "source": "pragma solidity ^0.4.11;\n\nimport \"./ContentLib.sol\";\nimport \"./CurrencyLib.sol\";\nimport \"./PostLib.sol\";\nimport \"./UserLib.sol\";\n\ncontract Group {\n\n  ContentLib.Content contents; //the contents of this group\n\n  using PostLib for PostLib.State;\n  PostLib.State postlib;\n\n  using UserLib for UserLib.State;\n  UserLib.State userlib;\n\n  using CurrencyLib for CurrencyLib.State;\n  CurrencyLib.State currencylib;\n\n  event PostCreated(uint256 indexed postNumber);\n  event SubgroupCreated(uint256 indexed postNumber, address groupAddress);\n  event UserJoined(uint256 indexed userNumber, address indexed userAddress);\n  event UserLeft(uint256 indexed userNumber, address indexed userAddress);\n  event UserBalanceChanged(uint256 indexed userNumber, address indexed userAddress, uint256 amount, bool increased);\n  event PostBalanceChanged(uint256 indexed postNumber, uint256 amount, bool increased);\n\n  function Group(\n    string title,\n    string contentType,\n    uint8 ipfsHashFunction,\n    uint8 ipfsHashLength,\n    bytes ipfsHash,\n    uint256 creationTime\n  ) {\n    require(ipfsHashLength == ipfsHash.length);\n\n    contents.title = title;\n    contents.mimeType = contentType;\n    contents.multihash.hashFunction = ipfsHashFunction;\n    contents.multihash.hashLength = ipfsHashLength;\n    contents.multihash.hash = ipfsHash;\n    contents.creator = msg.sender;\n\n    if (!userExistsByAddress(contents.creator)) {\n      joinGroup();\n    }\n\n    if (creationTime > block.timestamp || creationTime <= (block.timestamp - 1 hours)) {\n      //TODO ruleset? moving average across all posts in the last hour?\n      creationTime = block.timestamp;\n      //timestamp was invalid, just get the best time we can from the block\n    }\n\n    contents.creationTime = creationTime;\n  }\n\n  function postExistsByNumber(uint256 num) returns (bool) {\n    return (postlib.postExistsByNumber(num));\n  }\n\n\n  function getPostByNumber(uint256 num) returns (\n    string title,\n    uint256 number,\n    string mimeType,\n    uint8 ipfsHashFunction,\n    uint8 ipfsHashLength,\n    bytes ipfsHash,\n    address creator,\n    uint256 creationTime,\n    address groupAddress,\n    uint256 balance,\n    int256 permissions\n  ) {\n    PostLib.Post storage p = postlib.getPostByNumber(num);\n    return (\n      p.contents.title,\n      p.number,\n      p.contents.mimeType,\n      p.contents.multihash.hashFunction,\n      p.contents.multihash.hashLength,\n      p.contents.multihash.hash,\n      p.contents.creator,\n      p.contents.creationTime,\n      p.groupAddress,\n      currencylib.getPostBalance(p),\n      p.permissions\n    );\n  }\n\n  function setGroupAddressOfPost(uint256 num, address groupAddress) {\n    postlib.setGroupAddressOfPost(num, groupAddress);\n  }\n\n  function getPostNumbers() constant returns (uint256[]) {\n    return (postlib.numbers);\n  }\n\n  function createPost(\n    string title,\n    string mimeType,\n    uint8 ipfsHashFunction,\n    uint8 ipfsHashLength,\n    bytes ipfsHash,\n    uint256 creationTime\n  ) returns (uint256) {\n    return (postlib.createPost(\n      userlib,\n      currencylib,\n      title,\n      mimeType,\n      ipfsHashFunction,\n      ipfsHashLength,\n      ipfsHash,\n      creationTime\n    ));\n  }\n\n  function userExistsByAddress(address addr) returns (bool) {\n    return (userlib.userExistsByAddress(addr));\n  }\n\n  function userExistsByNumber(uint256 num) returns (bool) {\n    return (userlib.userExistsByNumber(num));\n  }\n\n  function joinGroup() {\n    //TODO: payable\n    userlib.join();\n  }\n\n  function leaveGroup() { \n    userlib.leave();\n  }\n\n  function getUserNumbers() returns (uint256[]) {\n    return (userlib.numbers);\n  }\n\n  function getUserAddresses() returns (address[]) {\n    return (userlib.addresses);\n  }\n\n  function getUserByAddress(address userAddress) returns (\n    string nickname,\n    uint256 number,\n    string profileMimeType,\n    uint8 ipfsHashFunction,\n    uint8 ipfsHashLength,\n    bytes ipfsHash,\n    address addr,\n    uint256 joinTime,\n    address directAddress,\n    uint256 balance,\n    int256 permissions\n  ) {\n    UserLib.User storage u = userlib.getUserByAddress(userAddress);\n    return (\n      u.contents.title,\n      u.number,\n      u.contents.mimeType,\n      u.contents.multihash.hashFunction,\n      u.contents.multihash.hashLength,\n      u.contents.multihash.hash,\n      u.contents.creator,\n      u.contents.creationTime,\n      u.directAddress,\n      currencylib.getUserBalance(u),\n      u.permissions\n    );\n  }\n\n  function getUserByNumber(uint256 num) returns (\n    string nickname,\n    uint256 number,\n    string profileMimeType,\n    uint8 ipfsHashFunction,\n    uint8 ipfsHashLength,\n    bytes ipfsHash,\n    address addr,\n    uint256 joinTime,\n    address directAddress,\n    uint256 balance,\n    int256 permissions\n  ) {\n    UserLib.User storage u = userlib.getUserByNumber(num);\n    return (\n      u.contents.title,\n      u.number,\n      u.contents.mimeType,\n      u.contents.multihash.hashFunction,\n      u.contents.multihash.hashLength,\n      u.contents.multihash.hash,\n      u.contents.creator,\n      u.contents.creationTime,\n      u.directAddress,\n      currencylib.getUserBalance(u),\n      u.permissions\n    );\n  }\n\n  function transferTokensToUser(address userAddress, uint256 amount, bool increase) {\n    return (currencylib.transferTokensToUser(userlib, userAddress, amount, increase));\n  }\n\n  function getTitle() returns (string) {\n    return (contents.title);\n  }\n\n  function getContentType() returns (string) {\n    return (contents.mimeType);\n  }\n\n  function getContentAddress() returns (uint8, uint8, bytes) {\n    return (\n      contents.multihash.hashFunction,\n      contents.multihash.hashLength,\n      contents.multihash.hash\n    );\n  }\n\n  function getCreator() returns (address) {\n    return (contents.creator);\n  }\n\n  function getCreationTime() returns (uint256) {\n    return (contents.creationTime);\n  }\n\n  function getTotalBalance() returns (uint256) {\n    return (currencylib.getTotalBalance());\n  }\n}\n\n",
  "sourcePath": "/Users/kylegrinstead/Dropbox/Developer/gatech/Junior_Design/Frontend/contracts/Group.sol",
  "compiler": {
    "name": "solc",
    "version": "0.4.18+commit.9cf6e910.Emscripten.clang"
  },
  "schemaVersion": "1.0.1",
  "updatedAt": "2017-10-31T22:22:41.891Z"
}