{
  "contractName": "PostLib",
  "abi": [
    {
      "constant": false,
      "inputs": [
        {
          "name": "self",
          "type": "PostLib.State storage"
        }
      ],
      "name": "getPostNumbers",
      "outputs": [
        {
          "name": "",
          "type": "uint256[]"
        }
      ],
      "payable": false,
      "type": "function",
      "stateMutability": "nonpayable"
    },
    {
      "constant": false,
      "inputs": [
        {
          "name": "self",
          "type": "PostLib.State storage"
        },
        {
          "name": "userlib",
          "type": "UserLib.State storage"
        },
        {
          "name": "currencylib",
          "type": "CurrencyLib.State storage"
        },
        {
          "name": "title",
          "type": "string"
        },
        {
          "name": "mimeType",
          "type": "string"
        },
        {
          "name": "ipfsHashFunction",
          "type": "uint8"
        },
        {
          "name": "ipfsHashLength",
          "type": "uint8"
        },
        {
          "name": "ipfsHash",
          "type": "bytes"
        },
        {
          "name": "creationTime",
          "type": "uint256"
        }
      ],
      "name": "createPost",
      "outputs": [
        {
          "name": "",
          "type": "uint256"
        }
      ],
      "payable": false,
      "type": "function",
      "stateMutability": "nonpayable"
    },
    {
      "constant": false,
      "inputs": [
        {
          "name": "self",
          "type": "PostLib.State storage"
        },
        {
          "name": "num",
          "type": "uint256"
        },
        {
          "name": "groupAddress",
          "type": "address"
        }
      ],
      "name": "setGroupAddressOfPost",
      "outputs": [],
      "payable": false,
      "type": "function",
      "stateMutability": "nonpayable"
    },
    {
      "anonymous": false,
      "inputs": [
        {
          "indexed": true,
          "name": "postNumber",
          "type": "uint256"
        }
      ],
      "name": "PostCreated",
      "type": "event"
    },
    {
      "anonymous": false,
      "inputs": [
        {
          "indexed": true,
          "name": "postNumber",
          "type": "uint256"
        },
        {
          "indexed": false,
          "name": "groupAddress",
          "type": "address"
        }
      ],
      "name": "SubgroupCreated",
      "type": "event"
    }
  ],
  "bytecode": "0x6060604052341561000f57600080fd5b610a9c8061001e6000396000f300606060405260043610610057576000357c0100000000000000000000000000000000000000000000000000000000900463ffffffff1680633d3d17f51461005c5780635383660b146100c95780638e018a31146101f1575b600080fd5b6100726004808035906020019091905050610231565b6040518080602001828103825283818151815260200191508051906020019060200280838360005b838110156100b557808201518184015260208101905061009a565b505050509050019250505060405180910390f35b6101db600480803590602001909190803590602001909190803590602001909190803590602001908201803590602001908080601f0160208091040260200160405190810160405280939291908181526020018383808284378201915050505050509190803590602001908201803590602001908080601f0160208091040260200160405190810160405280939291908181526020018383808284378201915050505050509190803560ff1690602001909190803560ff1690602001909190803590602001908201803590602001908080601f01602080910402602001604051908101604052809392919081815260200183838082843782019150505050505091908035906020019091905050610293565b6040518082815260200191505060405180910390f35b61022f600480803590602001909190803590602001909190803573ffffffffffffffffffffffffffffffffffffffff169060200190919050506106f5565b005b61023961090b565b8160020180548060200260200160405190810160405280929190818152602001828054801561028757602002820191906000526020600020905b815481526020019060010190808311610273575b50505050509050919050565b60008060008060ff8a51111515156102aa57600080fd5b85518760ff161415156102bc57600080fd5b8851925060008760ff1611156102dc576000831115156102db57600080fd5b5b60ff83111515156102ec57600080fd5b428511806102fe5750610e1042038511155b15610307574294505b33915061031d828d6107d390919063ffffffff16565b15156103a4578b73__UserLib_______________________________635164223890916040518263ffffffff167c01000000000000000000000000000000000000000000000000000000000281526004018082815260200191505060006040518083038186803b151561038f57600080fd5b6102c65a03f415156103a057600080fd5b5050505b6103b7828d61084b90919063ffffffff16565b90508a73__CurrencyLib___________________________633f2ae1fd909183600860016040518563ffffffff167c0100000000000000000000000000000000000000000000000000000000028152600401808581526020018481526020018381526020018215151515815260200194505050505060006040518083038186803b151561044357600080fd5b6102c65a03f4151561045457600080fd5b5050508c6000016000815480929190600101919050555060806040519081016040528060a0604051908101604052808d81526020018c81526020016060604051908101604052808d60ff1681526020018c60ff1681526020018b81525081526020018573ffffffffffffffffffffffffffffffffffffffff1681526020018881525081526020018e600001548152602001600073ffffffffffffffffffffffffffffffffffffffff16815260200160008152508d60010160008f600001548152602001908152602001600020600082015181600001600082015181600001908051906020019061054592919061091f565b50602082015181600101908051906020019061056292919061091f565b5060408201518160020160008201518160000160006101000a81548160ff021916908360ff16021790555060208201518160000160016101000a81548160ff021916908360ff16021790555060408201518160010190805190602001906105ca92919061099f565b50505060608201518160040160006101000a81548173ffffffffffffffffffffffffffffffffffffffff021916908373ffffffffffffffffffffffffffffffffffffffff1602179055506080820151816005015550506020820151816006015560408201518160070160006101000a81548173ffffffffffffffffffffffffffffffffffffffff021916908373ffffffffffffffffffffffffffffffffffffffff160217905550606082015181600801559050508c60020180548060010182816106949190610a1f565b916000526020600020900160008f60000154909190915055508c600001547f7083e11102808886115763619dc7e7c3f40b0b6dfd04262b94ea7de82d917ece60405160405180910390a28c6000015493505050509998505050505050505050565b610708828461088690919063ffffffff16565b151561071357600080fd5b8083600101600084815260200190815260200160002060070160006101000a81548173ffffffffffffffffffffffffffffffffffffffff021916908373ffffffffffffffffffffffffffffffffffffffff160217905550817f0f3ce190ebd85b09cc4b44d45dca8a0691ff7e3c8810fe2bfd43b0c115832db382604051808273ffffffffffffffffffffffffffffffffffffffff1673ffffffffffffffffffffffffffffffffffffffff16815260200191505060405180910390a2505050565b6000808273ffffffffffffffffffffffffffffffffffffffff16141515156107fa57600080fd5b60008360010160008473ffffffffffffffffffffffffffffffffffffffff1673ffffffffffffffffffffffffffffffffffffffff168152602001908152602001600020600601541415905092915050565b600061086082846107d390919063ffffffff16565b151561086b57600080fd5b61087e82846108c090919063ffffffff16565b905092915050565b60008260000154821115151561089b57600080fd5b6000836001016000848152602001908152602001600020600601541415905092915050565b60008260010160008373ffffffffffffffffffffffffffffffffffffffff1673ffffffffffffffffffffffffffffffffffffffff168152602001908152602001600020905092915050565b602060405190810160405280600081525090565b828054600181600116156101000203166002900490600052602060002090601f016020900481019282601f1061096057805160ff191683800117855561098e565b8280016001018555821561098e579182015b8281111561098d578251825591602001919060010190610972565b5b50905061099b9190610a4b565b5090565b828054600181600116156101000203166002900490600052602060002090601f016020900481019282601f106109e057805160ff1916838001178555610a0e565b82800160010185558215610a0e579182015b82811115610a0d5782518255916020019190600101906109f2565b5b509050610a1b9190610a4b565b5090565b815481835581811511610a4657818360005260206000209182019101610a459190610a4b565b5b505050565b610a6d91905b80821115610a69576000816000905550600101610a51565b5090565b905600a165627a7a72305820669c2a528313096438ce9f243fd214c49070f22f96d5fda3205a4ccfd8810a490029",
  "source": "pragma solidity ^0.4.11;\n\nimport \"./ContentLib.sol\";\nimport \"./UserLib.sol\";\nimport \"./CurrencyLib.sol\";\n\nlibrary PostLib {\n\n  using PostLib for State;\n\n  event PostCreated(uint256 indexed postNumber);\n  event SubgroupCreated(uint256 indexed postNumber, address groupAddress);\n\n  using UserLib for UserLib.State;\n\n  using CurrencyLib for CurrencyLib.State;\n\n  struct Post {\n    ContentLib.Content contents;\n    uint256 number; //must be > 0 if post exists, unique, immutable\n    address groupAddress; //null when group has not been created for this post\n    int256 permissions; //permission level of post\n  }\n\n  struct State {\n    uint256 count;\n    mapping (uint256 => Post) byNumber;\n    uint256[] numbers;\n  }\n\n  function getPostNumbers(State storage self) returns (uint256[]) {\n    return (self.numbers);\n  }\n\n  function postExistsByNumber(State storage self, uint256 num) internal returns (bool) {\n    require(num <= self.count);\n    return (self.byNumber[num].number != 0);\n  }\n\n  function getPostByNumberRaw(State storage self, uint256 num) internal returns (Post storage) {\n    return (self.byNumber[num]);\n  }\n\n  function getPostByNumber(State storage self, uint256 num) internal returns (Post storage) {\n    require(postExistsByNumber(self, num));\n    return (getPostByNumberRaw(self, num));\n  }\n\n  function setGroupAddressOfPost(\n    State storage self,\n    uint256 num,\n    address groupAddress\n  ) {\n    require(self.postExistsByNumber(num));\n\n    //TODO: ruleset check permissions to add associate a group to this post\n\n    //TODO: check if addr is a valid contract?\n\n    self.byNumber[num].groupAddress = groupAddress;\n\n    SubgroupCreated(num, groupAddress);\n  }\n\n  function createPost(\n    State storage self,\n    UserLib.State storage userlib,\n    CurrencyLib.State storage currencylib,\n    string title,\n    string mimeType,\n    uint8 ipfsHashFunction,\n    uint8 ipfsHashLength,\n    bytes ipfsHash,\n    uint256 creationTime\n  ) returns (uint256) {\n    //TODO: check title length via ruleset\n    //TODO: UTF-8 length != bytes().length\n    require(bytes(title).length <= 255);\n\n    //        require(ipfsHashLength != 0); //permit content-less posts TODO: ruleset\n\n    require(ipfsHashLength == ipfsHash.length);\n\n    //TODO: check if ipfs hash length matches expected size for hash function (function 0x12 should always be 0x20 bytes long)\n\n    uint256 ctLen = bytes(mimeType).length;\n\n    if (ipfsHashLength > 0) { //if there's no content, don't bother checking if there's a content type given\n      require(ctLen > 0);\n    }\n    require(ctLen <= 255); //RFC 6838 limits mime types to 127 bytes for each of the major and minor types, plus the separating slash\n\n    if (creationTime > block.timestamp || creationTime <= (block.timestamp - 1 hours)) { //TODO ruleset? moving average across all posts in the last hour?\n      creationTime = block.timestamp; //timestamp was invalid, just get the best time we can from the block\n    }\n\n    address creator = msg.sender;\n\n    if (!userlib.userExistsByAddress(creator)) {\n      userlib.join(); //TODO: ruleset\n    }\n\n    UserLib.User storage u = userlib.getUserByAddress(creator);\n\n    currencylib.awardTokensToUser(u, 8, true); //TODO: ruleset\n\n    self.count++;\n\n    self.byNumber[self.count] = Post({\n      contents: ContentLib.Content({\n        title: title,\n        mimeType: mimeType,\n        multihash: ContentLib.IpfsMultihash({\n          hashFunction: ipfsHashFunction,\n          hashLength: ipfsHashLength,\n          hash: ipfsHash\n        }),\n        creator: creator,\n        creationTime: creationTime\n      }),\n      number: self.count,\n      groupAddress: 0,\n      permissions: 0 //TODO: default from ruleset\n    });\n\n    self.numbers.push(self.count);\n\n    PostCreated(self.count);\n\n    return (self.count);\n  }\n}\n",
  "sourcePath": "/Users/kylegrinstead/Dropbox/Developer/gatech/Junior_Design/Frontend/contracts/PostLib.sol",
  "compiler": {
    "name": "solc",
    "version": "0.4.18+commit.9cf6e910.Emscripten.clang"
  },
  "schemaVersion": "1.0.1",
  "updatedAt": "2017-10-31T22:22:41.917Z"
}