{
  "contractName": "PostLib",
  "abi": [
    {
      "constant": false,
      "inputs": [
        {
          "name": "state",
          "type": "StateLib.State storage"
        },
        {
          "name": "parentNum",
          "type": "uint256"
        },
        {
          "name": "title",
          "type": "string"
        },
        {
          "name": "mimeType",
          "type": "string"
        },
        {
          "name": "ipfsHashFunction",
          "type": "uint8"
        },
        {
          "name": "ipfsHashLength",
          "type": "uint8"
        },
        {
          "name": "ipfsHash",
          "type": "bytes"
        },
        {
          "name": "creationTime",
          "type": "uint256"
        },
        {
          "name": "userPermissionsFlagsMode",
          "type": "bool"
        }
      ],
      "name": "createPost",
      "outputs": [
        {
          "name": "",
          "type": "uint256"
        }
      ],
      "payable": false,
      "stateMutability": "nonpayable",
      "type": "function"
    },
    {
      "anonymous": false,
      "inputs": [
        {
          "indexed": true,
          "name": "parentNumber",
          "type": "uint256"
        },
        {
          "indexed": true,
          "name": "postNumber",
          "type": "uint256"
        },
        {
          "indexed": true,
          "name": "userAddress",
          "type": "address"
        }
      ],
      "name": "PostCreated",
      "type": "event"
    }
  ],
  "bytecode": "0x6060604052341561000f57600080fd5b6114058061001e6000396000f300606060405260043610610040576000357c0100000000000000000000000000000000000000000000000000000000900463ffffffff168062895d8f14610045575b600080fd5b610159600480803590602001909190803590602001909190803590602001908201803590602001908080601f0160208091040260200160405190810160405280939291908181526020018383808284378201915050505050509190803590602001908201803590602001908080601f0160208091040260200160405190810160405280939291908181526020018383808284378201915050505050509190803560ff1690602001909190803560ff1690602001909190803590602001908201803590602001908080601f01602080910402602001604051908101604052809392919081815260200183838082843782019150505050505091908035906020019091908035151590602001909190505061016f565b6040518082815260200191505060405180910390f35b60008060006101848c8c8c8c8c8c8c8c6103e7565b94508b600201600001600081548092919060010191905055508b6002016000015491506102178c8c8460a0604051908101604052808f81526020018e81526020016060604051908101604052808f60ff1681526020018e60ff1681526020018d81525081526020013373ffffffffffffffffffffffffffffffffffffffff1681526020018a8152506000808a600061059a565b5073__UserLib_______________________________6364272bdf8d846040518363ffffffff167c0100000000000000000000000000000000000000000000000000000000028152600401808381526020018281526020019250505060006040518083038186803b151561028a57600080fd5b6102c65a03f4151561029b57600080fd5b5050506102a98c8333610cfc565b90507fffffffffffffffffffffffffffffffffffffffffffffffffffffffffffffffff81600801819055506102df8c8c33610d28565b151561036c5773__UserLib_______________________________6364272bdf8d8d6040518363ffffffff167c0100000000000000000000000000000000000000000000000000000000028152600401808381526020018281526020019250505060006040518083038186803b151561035757600080fd5b6102c65a03f4151561036857600080fd5b5050505b6103778c8c33610cfc565b90506103906103868d8d610d71565b8260086001610d9a565b3373ffffffffffffffffffffffffffffffffffffffff16828c7f479ec612f400c16ffe0e29ab35fd2726d09436492c66bd0b0b39fdff5817d01c60405160405180910390a481925050509998505050505050505050565b6000808960000160010160009054906101000a900460ff16156104ef5773__PermissionLib_________________________6332a657158b8b336000604051602001526040518463ffffffff167c0100000000000000000000000000000000000000000000000000000000028152600401808481526020018381526020018273ffffffffffffffffffffffffffffffffffffffff1673ffffffffffffffffffffffffffffffffffffffff168152602001935050505060206040518083038186803b15156104b357600080fd5b6102c65a03f415156104c457600080fd5b5050506040518051905015156104d957600080fd5b6104e38a8a610f2f565b15156104ee57600080fd5b5b60ff88511115151561050057600080fd5b83518560ff1614151561051257600080fd5b60008560ff1614151561053f5760128660ff16141561053e5760208560ff1614151561053d57600080fd5b5b5b8651905060008560ff16111561055f5760008111151561055e57600080fd5b5b60ff811115151561056f57600080fd5b428311806105815750610e1042038311155b1561058a574292505b8291505098975050505050505050565b6105a2611037565b60008960000160010160009054906101000a900460ff1615610617576105c88a8a610f5e565b905080601001805490508160110160008a8152602001908152602001600020819055508060100180548060010182816106019190611098565b916000526020600020900160008a909190915055505b610120604051908101604052808881526020018981526020018a815260200187815260200186815260200184815260200185151581526020018b60020160010160008b81526020019081526020016000208054806020026020016040519081016040528092919081815260200182805480156106e857602002820191906000526020600020905b8160009054906101000a900473ffffffffffffffffffffffffffffffffffffffff1673ffffffffffffffffffffffffffffffffffffffff168152602001906001019080831161069e575b505050505081526020018b60020160020160008b815260200190815260200160002080548060200260200160405190810160405280929190818152602001828054801561075457602002820191906000526020600020905b815481526020019060010190808311610740575b50505050508152508a60000160000160008a815260200190815260200160002060008201518160000160008201518160000190805190602001906107999291906110c4565b5060208201518160010190805190602001906107b69291906110c4565b5060408201518160020160008201518160000160006101000a81548160ff021916908360ff16021790555060208201518160000160016101000a81548160ff021916908360ff160217905550604082015181600101908051906020019061081e929190611144565b50505060608201518160040160006101000a81548173ffffffffffffffffffffffffffffffffffffffff021916908373ffffffffffffffffffffffffffffffffffffffff1602179055506080820151816005015550506020820151816006015560408201518160070155606082015181600801556080820151816009015560a082015181600a015560c082015181600c0160006101000a81548160ff02191690831515021790555060e082015181600e0190805190602001906108e29291906111c4565b5061010082015181601001908051906020019061090092919061124e565b50905061012060405190810160405290816000820160a06040519081016040529081600082018054600181600116156101000203166002900480601f0160208091040260200160405190810160405280929190818152602001828054600181600116156101000203166002900480156109ba5780601f1061098f576101008083540402835291602001916109ba565b820191906000526020600020905b81548152906001019060200180831161099d57829003601f168201915b50505050508152602001600182018054600181600116156101000203166002900480601f016020809104026020016040519081016040528092919081815260200182805460018160011615610100020316600290048015610a5c5780601f10610a3157610100808354040283529160200191610a5c565b820191906000526020600020905b815481529060010190602001808311610a3f57829003601f168201915b5050505050815260200160028201606060405190810160405290816000820160009054906101000a900460ff1660ff1660ff1681526020016000820160019054906101000a900460ff1660ff1660ff168152602001600182018054600181600116156101000203166002900480601f016020809104026020016040519081016040528092919081815260200182805460018160011615610100020316600290048015610b495780601f10610b1e57610100808354040283529160200191610b49565b820191906000526020600020905b815481529060010190602001808311610b2c57829003601f168201915b50505050508152505081526020016004820160009054906101000a900473ffffffffffffffffffffffffffffffffffffffff1673ffffffffffffffffffffffffffffffffffffffff1673ffffffffffffffffffffffffffffffffffffffff168152602001600582015481525050815260200160068201548152602001600782015481526020016008820154815260200160098201548152602001600a8201548152602001600c820160009054906101000a900460ff16151515158152602001600e8201805480602002602001604051908101604052809291908181526020018280548015610c8c57602002820191906000526020600020905b8160009054906101000a900473ffffffffffffffffffffffffffffffffffffffff1673ffffffffffffffffffffffffffffffffffffffff1681526020019060010190808311610c42575b5050505050815260200160108201805480602002602001604051908101604052809291908181526020018280548015610ce457602002820191906000526020600020905b815481526020019060010190808311610cd0575b50505050508152505091505098975050505050505050565b6000610d09848484610d28565b1515610d1457600080fd5b610d1f848484610f80565b90509392505050565b6000808273ffffffffffffffffffffffffffffffffffffffff1614158015610d685750610d56848484610f80565b60090160009054906101000a900460ff165b90509392505050565b6000610d7d8383610f2f565b1515610d8857600080fd5b610d928383610f5e565b905092915050565b60008060008086600701549350876009015492508415610e0557610dc2886009015487610fda565b8860090181905550610dd8886009015484611018565b9050610de8876007015487610fda565b8760070181905550610dfe876007015485611018565b9150610e52565b610e13886009015487611018565b8860090181905550610e29838960090154611018565b9050610e39876007015487611018565b8760070181905550610e4f848860070154611018565b91505b8660000160040160009054906101000a900473ffffffffffffffffffffffffffffffffffffffff1673ffffffffffffffffffffffffffffffffffffffff1688600601547f2e059c295c455531568b11c53cf3b686d0da4b0f817fa7b31f2b40e7182ca3f5848860405180838152602001821515151581526020019250505060405180910390a3876006015488600701547fa49556adbe4cf7bc6dd68f4130fdc93b03cb75bf223c9959608a34b0210568f5838860405180838152602001821515151581526020019250505060405180910390a35050505050505050565b600082600201600001548211158015610f5657506000610f4f8484610f5e565b6006015414155b905092915050565b6000826000016000016000838152602001908152602001600020905092915050565b600080610f8d8585610d71565b905080600d0160008473ffffffffffffffffffffffffffffffffffffffff1673ffffffffffffffffffffffffffffffffffffffff1681526020019081526020016000209150509392505050565b6000828284019150811015611011577fffffffffffffffffffffffffffffffffffffffffffffffffffffffffffffffff9050611012565b5b92915050565b60008282840391508111156110305760009050611031565b5b92915050565b6101e06040519081016040528061104c61129b565b815260200160008152602001600081526020016000815260200160008152602001600081526020016000151581526020016110856112f3565b8152602001611092611307565b81525090565b8154818355818115116110bf578183600052602060002091820191016110be919061131b565b5b505050565b828054600181600116156101000203166002900490600052602060002090601f016020900481019282601f1061110557805160ff1916838001178555611133565b82800160010185558215611133579182015b82811115611132578251825591602001919060010190611117565b5b509050611140919061131b565b5090565b828054600181600116156101000203166002900490600052602060002090601f016020900481019282601f1061118557805160ff19168380011785556111b3565b828001600101855582156111b3579182015b828111156111b2578251825591602001919060010190611197565b5b5090506111c0919061131b565b5090565b82805482825590600052602060002090810192821561123d579160200282015b8281111561123c5782518260006101000a81548173ffffffffffffffffffffffffffffffffffffffff021916908373ffffffffffffffffffffffffffffffffffffffff160217905550916020019190600101906111e4565b5b50905061124a9190611340565b5090565b82805482825590600052602060002090810192821561128a579160200282015b8281111561128957825182559160200191906001019061126e565b5b509050611297919061131b565b5090565b60e0604051908101604052806112af611383565b81526020016112bc611383565b81526020016112c9611397565b8152602001600073ffffffffffffffffffffffffffffffffffffffff168152602001600081525090565b602060405190810160405280600081525090565b602060405190810160405280600081525090565b61133d91905b80821115611339576000816000905550600101611321565b5090565b90565b61138091905b8082111561137c57600081816101000a81549073ffffffffffffffffffffffffffffffffffffffff021916905550600101611346565b5090565b90565b602060405190810160405280600081525090565b606060405190810160405280600060ff168152602001600060ff1681526020016113bf6113c5565b81525090565b6020604051908101604052806000815250905600a165627a7a72305820b529065664d636e7f184bed1793d546d6df7bcd51cac33b2fdc665d4c1dbf7a80029",
  "source": "pragma solidity ^0.4.11;\n\nimport \"./ContentLib.sol\";\nimport \"./UserLib.sol\";\nimport \"./CurrencyLib.sol\";\nimport \"./PermissionLib.sol\";\nimport \"./StateLib.sol\";\n\nlibrary PostLib {\n\n  event PostCreated(\n    uint256 indexed parentNumber,\n    uint256 indexed postNumber,\n    address indexed userAddress\n  );\n\n  struct State {\n    uint256 count;\n    mapping (uint256 => address[]) userAddressesBacking;\n    mapping (uint256 => uint256[]) childrenBacking;\n  }\n\n  struct Post {\n    ContentLib.Content contents;\n    uint256 number; //must be > 0 if post exists, unique, immutable\n    uint256 parentNum; //0 == no parent, but only the root should have parentNum == 0\n    uint256 balance; //balance in the parent group\n    uint256 tokens; //total balance of all sub-objects\n    int256 permissions; //permission level of post in parent group\n    mapping (int256 => int256) userPermissions; //for levels mode, permissions maps to the flags the level posesses\n    bool userPermissionsFlagsMode;\n    mapping (address => UserLib.User) users;\n    address[] userAddresses;\n    mapping (address => uint256) userAddressesMap; //maps a user address to the corresponding index in userAddresses, for deleting users\n    uint256[] children;\n    mapping (uint256 => uint256) childrenMap; //given the child post number, get the index at which it is stored in the children array\n  }\n\n  function getPostRaw(StateLib.State storage state, uint256 num) constant internal returns (Post storage) {\n    return (state.main.posts[num]);\n  }\n\n  function postExists(StateLib.State storage state, uint256 num) constant internal returns (bool) {\n    return (num <= state.postLib.count && getPostRaw(state, num).number != 0);\n  }\n\n  function getPost(StateLib.State storage state, uint256 num) constant internal returns (Post storage) {\n    require(postExists(state, num));\n    return (getPostRaw(state, num));\n  }\n\n  function getChildren(StateLib.State storage state, uint256 num) constant internal returns (uint256[]) {\n    var p = getPost(state, num);\n    return (p.children);\n  }\n\n  function isChild(StateLib.State storage state, uint256 parentNum, uint256 num) constant internal returns (bool) {\n    var p = getPost(state, parentNum);\n    return (p.childrenMap[num] != 0);\n  }\n\n  function addPost(\n    StateLib.State storage state,\n    uint256 parentNum,\n    uint256 number,\n    ContentLib.Content contents,\n    uint256 balance,\n    uint256 tokens,\n    bool userPermissionsFlagsMode,\n    int256 permissions\n  ) private returns (Post) {\n    if (state.main.initialized) {\n      var parent = getPostRaw(state, parentNum);\n      parent.childrenMap[number] = parent.children.length;\n      parent.children.push(number);\n    }\n    return (state.main.posts[number] = Post({\n      contents: contents,\n      number: number,\n      parentNum: parentNum,\n      balance: balance,\n      tokens: tokens, //TODO: ruleset\n      permissions: permissions,\n      userPermissionsFlagsMode: userPermissionsFlagsMode,\n      userAddresses: state.postLib.userAddressesBacking[number],\n      children: state.postLib.childrenBacking[number] //TODO: test if this really works\n    }));\n  }\n\n  function createPostPreflightChecks(\n    StateLib.State storage state,\n    uint256 parentNum,\n    string title,\n    string mimeType,\n    uint8 ipfsHashFunction,\n    uint8 ipfsHashLength,\n    bytes ipfsHash,\n    uint256 creationTime\n  ) private returns (\n    uint256 _creationTime\n  ) {\n    if (state.main.initialized) {\n      require(PermissionLib.createPost(state, parentNum, msg.sender));\n      require(postExists(state, parentNum));\n    }\n\n    //require(!PermissionLib.postLocked(parentNum)); //TODO: self.byNumber[parentNum].locked ??\n\n    //TODO: check title length via ruleset\n    //TODO: UTF-8 length != bytes().length\n    require(bytes(title).length <= 255);\n\n    //        require(ipfsHashLength != 0); //permit content-less posts TODO: ruleset\n\n    require(ipfsHashLength == ipfsHash.length);\n\n    //TODO: check if ipfs hash length matches expected size for hash function (function 0x12 should always be 0x20 bytes long)\n    if (ipfsHashLength != 0) {\n      if (ipfsHashFunction == 0x12) {\n        require(ipfsHashLength == 0x20);\n      }\n    }\n\n    uint256 ctLen = bytes(mimeType).length;\n\n    if (ipfsHashLength > 0) { //if there's no content, don't bother checking if there's a content type given\n      require(ctLen > 0);\n    }\n    require(ctLen <= 255); //RFC 6838 limits mime types to 127 bytes for each of the major and minor types, plus the separating slash\n\n    if (creationTime > block.timestamp || creationTime <= (block.timestamp - 1 hours)) { //TODO ruleset? moving average across all posts in the last hour?\n      creationTime = block.timestamp; //timestamp was invalid, just get the best time we can from the block\n    }\n    _creationTime = creationTime;\n  }\n\n  function createPost(\n    StateLib.State storage state,\n    uint256 parentNum,\n    string title,\n    string mimeType,\n    uint8 ipfsHashFunction,\n    uint8 ipfsHashLength,\n    bytes ipfsHash,\n    uint256 creationTime,\n    bool userPermissionsFlagsMode\n  ) public returns (uint256) {\n\n    (creationTime) = createPostPreflightChecks(\n      state,\n      parentNum,\n      title,\n      mimeType,\n      ipfsHashFunction,\n      ipfsHashLength,\n      ipfsHash,\n      creationTime\n    );\n\n\n    state.postLib.count++;\n\n    uint256 newNum = state.postLib.count;\n\n    addPost(\n      state,\n      parentNum,\n      newNum,\n      ContentLib.Content({\n        title: title,\n        mimeType: mimeType,\n        multihash: ContentLib.IpfsMultihash({\n          hashFunction: ipfsHashFunction,\n          hashLength: ipfsHashLength,\n          hash: ipfsHash\n        }),\n        creator: msg.sender,\n        creationTime: creationTime\n      }),\n      0,    //TODO: ruleset, default balance in parent group of newly created post\n      0,    //TODO: ruleset? default tokens (shouldn't it always be 0?)\n      userPermissionsFlagsMode,\n      0     //TODO: ruleset, default permissions for new post\n    );\n\n    //should the user join the new group?\n    UserLib.join(state, newNum); //TODO: ruleset? does it make sense to create a group but not be part of it?\n\n    var u = UserLib.getUser(state, newNum, msg.sender);\n    u.permissions = -1; //TODO: ruleset, permissions of creator\n\n    //should the user join the parent group? TODO: ruleset\n    if (!UserLib.userExists(state, parentNum, msg.sender)) {\n      UserLib.join(state, parentNum);\n    }\n\n    u = UserLib.getUser(state, parentNum, msg.sender);\n\n    CurrencyLib.awardTokensToUser(getPost(state, parentNum), u, 8, true); //TODO: ruleset; how much should they get, if anything? also TODO msg.value for money paid in\n\n\n    PostCreated(parentNum, newNum, msg.sender);\n\n    return (newNum);\n  }\n}\n",
  "sourcePath": "/home/tybrown/Nextcloud/Documents/School/GATech_2017_Fall/CS-3312/CyberneticChat-Frontend/contracts/PostLib.sol",
  "compiler": {
    "name": "solc",
    "version": "0.4.18+commit.9cf6e910.Emscripten.clang"
  },
  "schemaVersion": "1.0.1",
  "updatedAt": "2017-11-05T22:18:50.675Z"
}