{
  "contractName": "UserLib",
  "abi": [
    {
      "constant": false,
      "inputs": [
        {
          "name": "state",
          "type": "StateLib.State storage"
        },
        {
          "name": "parentNum",
          "type": "uint256"
        }
      ],
      "name": "join",
      "outputs": [],
      "payable": false,
      "stateMutability": "nonpayable",
      "type": "function"
    },
    {
      "constant": false,
      "inputs": [
        {
          "name": "state",
          "type": "StateLib.State storage"
        },
        {
          "name": "userAddress",
          "type": "address"
        },
        {
          "name": "nickname",
          "type": "string"
        },
        {
          "name": "profileMimeType",
          "type": "string"
        },
        {
          "name": "ipfsHashFunction",
          "type": "uint8"
        },
        {
          "name": "ipfsHashLength",
          "type": "uint8"
        },
        {
          "name": "ipfsHash",
          "type": "bytes"
        },
        {
          "name": "updateTime",
          "type": "uint256"
        }
      ],
      "name": "setProfile",
      "outputs": [],
      "payable": false,
      "stateMutability": "nonpayable",
      "type": "function"
    },
    {
      "anonymous": false,
      "inputs": [
        {
          "indexed": true,
          "name": "parentNumber",
          "type": "uint256"
        },
        {
          "indexed": true,
          "name": "userAddress",
          "type": "address"
        }
      ],
      "name": "UserJoined",
      "type": "event"
    },
    {
      "anonymous": false,
      "inputs": [
        {
          "indexed": true,
          "name": "parentNumber",
          "type": "uint256"
        },
        {
          "indexed": true,
          "name": "userAddress",
          "type": "address"
        }
      ],
      "name": "UserLeft",
      "type": "event"
    },
    {
      "anonymous": false,
      "inputs": [
        {
          "indexed": true,
          "name": "parentNumber",
          "type": "uint256"
        },
        {
          "indexed": true,
          "name": "kickedUserAddress",
          "type": "address"
        },
        {
          "indexed": true,
          "name": "kickingUserAddress",
          "type": "address"
        },
        {
          "indexed": false,
          "name": "reason",
          "type": "string"
        }
      ],
      "name": "UserKicked",
      "type": "event"
    },
    {
      "anonymous": false,
      "inputs": [
        {
          "indexed": true,
          "name": "parentNumber",
          "type": "uint256"
        },
        {
          "indexed": true,
          "name": "bannedUserAddress",
          "type": "address"
        },
        {
          "indexed": true,
          "name": "banningUserAddress",
          "type": "address"
        },
        {
          "indexed": false,
          "name": "reason",
          "type": "string"
        }
      ],
      "name": "UserBanned",
      "type": "event"
    },
    {
      "anonymous": false,
      "inputs": [
        {
          "indexed": true,
          "name": "parentNumber",
          "type": "uint256"
        },
        {
          "indexed": true,
          "name": "mutedUserAddress",
          "type": "address"
        },
        {
          "indexed": true,
          "name": "mutingUserAddress",
          "type": "address"
        }
      ],
      "name": "UserMuted",
      "type": "event"
    }
  ],
  "bytecode": "0x6060604052341561000f57600080fd5b610d3f8061001e6000396000f30060606040526004361061004c576000357c0100000000000000000000000000000000000000000000000000000000900463ffffffff16806364272bdf14610051578063f67bab0c14610072575b600080fd5b6100706004808035906020019091908035906020019091905050610193565b005b610191600480803590602001909190803573ffffffffffffffffffffffffffffffffffffffff1690602001909190803590602001908201803590602001908080601f0160208091040260200160405190810160405280939291908181526020018383808284378201915050505050509190803590602001908201803590602001908080601f0160208091040260200160405190810160405280939291908181526020018383808284378201915050505050509190803560ff1690602001909190803560ff1690602001909190803590602001908201803590602001908080601f0160208091040260200160405190810160405280939291908181526020018383808284378201915050505050509190803590602001909190505061069f565b005b60006101a0838333610855565b1515156101ac57600080fd5b8260000160020160009054906101000a900460ff161561029c5773__PermissionLib_________________________6356e7e9128484336000604051602001526040518463ffffffff167c0100000000000000000000000000000000000000000000000000000000028152600401808481526020018381526020018273ffffffffffffffffffffffffffffffffffffffff1673ffffffffffffffffffffffffffffffffffffffff168152602001935050505060206040518083038186803b151561027557600080fd5b6102c65a03f4151561028657600080fd5b50505060405180519050151561029b5761069a565b5b6102a6838361089e565b9050600081600f0160003373ffffffffffffffffffffffffffffffffffffffff1673ffffffffffffffffffffffffffffffffffffffff168152602001908152602001600020541415610558578260060160000160008154809291906001019190505550610100604051908101604052803373ffffffffffffffffffffffffffffffffffffffff168152602001838152602001428152602001600081526020017fffffffffffffffffffffffffffffffffffffffffffffffffffffffffffffffff8152602001600115158152602001600015158152602001602060405190810160405280600081525081525081600d0160003373ffffffffffffffffffffffffffffffffffffffff1673ffffffffffffffffffffffffffffffffffffffff16815260200190815260200160002060008201518160000160006101000a81548173ffffffffffffffffffffffffffffffffffffffff021916908373ffffffffffffffffffffffffffffffffffffffff1602179055506020820151816001015560408201518160020155606082015181600301556080820151816004015560a08201518160050160006101000a81548160ff02191690831515021790555060c08201518160050160016101000a81548160ff02191690831515021790555060e082015181600601908051906020019061049d929190610bc2565b5090505080600e0180548060010182816104b79190610c42565b9160005260206000209001600033909190916101000a81548173ffffffffffffffffffffffffffffffffffffffff021916908373ffffffffffffffffffffffffffffffffffffffff1602179055505080600e018054905081600f0160003373ffffffffffffffffffffffffffffffffffffffff1673ffffffffffffffffffffffffffffffffffffffff16815260200190815260200160002081905550610655565b600181600d0160003373ffffffffffffffffffffffffffffffffffffffff1673ffffffffffffffffffffffffffffffffffffffff16815260200190815260200160002060050160006101000a81548160ff0219169083151502179055503381600e01600183600f0160003373ffffffffffffffffffffffffffffffffffffffff1673ffffffffffffffffffffffffffffffffffffffff168152602001908152602001600020540381548110151561060b57fe5b906000526020600020900160006101000a81548173ffffffffffffffffffffffffffffffffffffffff021916908373ffffffffffffffffffffffffffffffffffffffff1602179055505b3373ffffffffffffffffffffffffffffffffffffffff16827f6a5f716eff9d9b77c04378575633c0f6784ea8d1a0b7cc011d723b4022decd5760405160405180910390a35b505050565b6106ae878787878787876108c7565b905060a0604051908101604052808781526020018681526020016060604051908101604052808760ff1681526020018660ff1681526020018581525081526020018873ffffffffffffffffffffffffffffffffffffffff168152602001828152508860000160010160008973ffffffffffffffffffffffffffffffffffffffff1673ffffffffffffffffffffffffffffffffffffffff168152602001908152602001600020600082015181600001908051906020019061076f929190610bc2565b50602082015181600101908051906020019061078c929190610bc2565b5060408201518160020160008201518160000160006101000a81548160ff021916908360ff16021790555060208201518160000160016101000a81548160ff021916908360ff16021790555060408201518160010190805190602001906107f4929190610c6e565b50505060608201518160040160006101000a81548173ffffffffffffffffffffffffffffffffffffffff021916908373ffffffffffffffffffffffffffffffffffffffff160217905550608082015181600501559050505050505050505050565b6000808273ffffffffffffffffffffffffffffffffffffffff16141580156108955750610883848484610b17565b60050160009054906101000a900460ff165b90509392505050565b60006108aa8383610b71565b15156108b557600080fd5b6108bf8383610ba0565b905092915050565b60008060008973ffffffffffffffffffffffffffffffffffffffff16141515156108f057600080fd5b604088511115151561090157600080fd5b73__ContentLib____________________________63dfe4ac5c8989898989896000604051604001526040518763ffffffff167c01000000000000000000000000000000000000000000000000000000000281526004018080602001806020018760ff1660ff1681526020018660ff1660ff1681526020018060200185815260200184810384528a818151815260200191508051906020019080838360005b838110156109bb5780820151818401526020810190506109a0565b50505050905090810190601f1680156109e85780820380516001836020036101000a031916815260200191505b50848103835289818151815260200191508051906020019080838360005b83811015610a21578082015181840152602081019050610a06565b50505050905090810190601f168015610a4e5780820380516001836020036101000a031916815260200191505b50848103825286818151815260200191508051906020019080838360005b83811015610a87578082015181840152602081019050610a6c565b50505050905090810190601f168015610ab45780820380516001836020036101000a031916815260200191505b509950505050505050505050604080518083038186803b1515610ad657600080fd5b6102c65a03f41515610ae757600080fd5b505050604051805190602001805190508093508192505050801515610b0b57600080fd5b50979650505050505050565b600080610b24858561089e565b905080600d0160008473ffffffffffffffffffffffffffffffffffffffff1673ffffffffffffffffffffffffffffffffffffffff1681526020019081526020016000209150509392505050565b600082600301600001548211158015610b9857506000610b918484610ba0565b6006015414155b905092915050565b6000826000016000016000838152602001908152602001600020905092915050565b828054600181600116156101000203166002900490600052602060002090601f016020900481019282601f10610c0357805160ff1916838001178555610c31565b82800160010185558215610c31579182015b82811115610c30578251825591602001919060010190610c15565b5b509050610c3e9190610cee565b5090565b815481835581811511610c6957818360005260206000209182019101610c689190610cee565b5b505050565b828054600181600116156101000203166002900490600052602060002090601f016020900481019282601f10610caf57805160ff1916838001178555610cdd565b82800160010185558215610cdd579182015b82811115610cdc578251825591602001919060010190610cc1565b5b509050610cea9190610cee565b5090565b610d1091905b80821115610d0c576000816000905550600101610cf4565b5090565b905600a165627a7a72305820957a8beba3bc4fdb5fd2b7be95ab614c777b8c9c852831c36fa1596755e494c80029",
  "source": "pragma solidity ^0.4.11;\n\nimport \"./ContentLib.sol\";\nimport \"./CurrencyLib.sol\";\nimport \"./PostLib.sol\";\nimport \"./PermissionLib.sol\";\nimport \"./StateLib.sol\";\n\nlibrary UserLib {\n\n  using UserLib for State;\n  using PostLib for PostLib.State;\n  using CurrencyLib for CurrencyLib.State;\n  using PermissionLib for PermissionLib.State;\n\n  event UserJoined(\n    uint256 indexed parentNumber,\n    address indexed userAddress\n  );\n  event UserLeft(\n    uint256 indexed parentNumber,\n    address indexed userAddress\n  );\n  event UserKicked(\n    uint256 indexed parentNumber,\n    address indexed kickedUserAddress,\n    address indexed kickingUserAddress,\n    string reason\n  );\n  event UserBanned(\n    uint256 indexed parentNumber,\n    address indexed bannedUserAddress,\n    address indexed banningUserAddress,\n    string reason\n  );\n  event UserMuted(\n    uint256 indexed parentNumber,\n    address indexed mutedUserAddress,\n    address indexed mutingUserAddress\n  );\n\n\n  struct User {\n    address addr;\n    uint256 parentNum;\n    uint256 joinTime;\n    uint256 balance;\n    int256 permissions; //permission level of user, permit negatives for banned/muted/etc type users, also use largest type to permit flags instead of linear values\n    bool joined;\n    bool banned;\n    string banReason;\n  }\n\n  struct State {\n    uint256 count;\n//    mapping (uint256 => mapping (address => User)) byAddress; //maps ethereum address (public key) to user objects\n//    mapping (uint256 => address[]) addresses;\n  }\n\n  function getUserRaw(StateLib.State storage state, uint256 parentNum, address userAddress) constant internal returns (User storage) {\n    var p = PostLib.getPost(state, parentNum);\n    return (p.users[userAddress]);\n  }\n\n  function userExists(StateLib.State storage state, uint256 parentNum, address userAddress) constant internal returns (bool) {\n    return (userAddress != 0x0 && getUserRaw(state, parentNum, userAddress).joined);\n  }\n\n  function getUser(StateLib.State storage state, uint256 parentNum, address userAddress) constant internal returns (User storage) {\n    require(userExists(state, parentNum, userAddress));\n    return (getUserRaw(state, parentNum, userAddress));\n  }\n\n  function getUserProfile(StateLib.State storage state, address userAddress) constant internal returns (ContentLib.Content) {\n    return (state.main.userProfiles[userAddress]);\n  }\n\n  function userProfileExists(StateLib.State storage state, address userAddress) constant internal returns (bool) {\n    var profile = getUserProfile(state, userAddress);\n    return (profile.creationTime != 0);\n  }\n\n  function setProfileChecks(\n//    StateLib.State storage state,\n    address userAddress,\n    string nickname,\n    string profileMimeType,\n    uint8 ipfsHashFunction,\n    uint8 ipfsHashLength,\n    bytes ipfsHash,\n    uint256 updateTime\n  ) private view returns (\n    uint256 _updateTime\n  ) {\n\n    require(userAddress != 0x0);\n    //TODO: check nickname length via global ruleset\n    //TODO: UTF-8 length != bytes().length\n    require(bytes(nickname).length <= 64);\n\n    bool checksPassed;\n    (checksPassed, _updateTime) = ContentLib.contentCheck(\n//      state,\n      nickname,\n      profileMimeType,\n      ipfsHashFunction,\n      ipfsHashLength,\n      ipfsHash,\n      updateTime\n    );\n    require(checksPassed);\n  }\n\n  function setProfile(\n    StateLib.State storage state,\n    address userAddress,\n    string nickname,\n    string profileMimeType,\n    uint8 ipfsHashFunction,\n    uint8 ipfsHashLength,\n    bytes ipfsHash,\n    uint256 updateTime\n  ) public {\n    (updateTime) = setProfileChecks(\n//      state,\n      userAddress,\n      nickname,\n      profileMimeType,\n      ipfsHashFunction,\n      ipfsHashLength,\n      ipfsHash,\n      updateTime\n    );\n\n    state.main.userProfiles[userAddress] = ContentLib.Content({\n      title: nickname,\n      mimeType: profileMimeType,\n      multihash: ContentLib.IpfsMultihash({\n        hashFunction: ipfsHashFunction,\n        hashLength: ipfsHashLength,\n        hash: ipfsHash\n      }),\n      creator: userAddress,\n      creationTime: updateTime\n    });\n  }\n\n  function getUsers(StateLib.State storage state, uint256 parentNum) constant internal returns (address[]) {\n    var p = PostLib.getPost(state, parentNum);\n    return (p.userAddresses);\n  }\n\n  function join(StateLib.State storage state, uint256 parentNum) public {\n    require(!userExists(state, parentNum, msg.sender));\n\n    if (state.main.initialized) {\n      if (!PermissionLib.userJoin(state, parentNum, msg.sender)) {\n        //UserJoinDenied event emitted by permissionlib\n        return;\n      }\n    }\n\n    var p = PostLib.getPost(state, parentNum);\n\n    if (p.userAddressesMap[msg.sender] == 0) { //user has never been in the group before\n      state.userLib.count++;\n      p.users[msg.sender] = User({\n        parentNum: parentNum,\n        addr: msg.sender,\n        balance: 0, //TODO: ruleset\n        joined: true,\n        joinTime: block.timestamp,\n        banned: false,\n        banReason: \"\",\n        permissions: -1 //TODO: ruleset, permissions for new users\n      });\n\n      p.userAddresses.push(msg.sender);\n      p.userAddressesMap[msg.sender] = p.userAddresses.length;\n    } else { //user has been in the group before, just restore the profile\n      p.users[msg.sender].joined = true;\n      //p.users[msg.sender].parentNum = parentNum;\n      p.userAddresses[p.userAddressesMap[msg.sender] - 1] = msg.sender;\n    }\n\n    UserJoined(parentNum, msg.sender);\n  }\n\n  function removeUser(StateLib.State storage state, uint256 parentNum, address userAddress) internal {\n    var p = PostLib.getPost(state, parentNum);\n    if (p.userAddressesMap[msg.sender] != 0) { //user has been in the group before\n      p.users[userAddress].joined = false;\n      p.userAddresses[p.userAddressesMap[userAddress] - 1] = address(0x0);\n      UserLeft(parentNum, userAddress);\n    }\n  }\n\n  function leave(StateLib.State storage state, uint256 parentNum) internal { \n    require(userExists(state, parentNum, msg.sender));\n\n    //TODO: send the user their ether, based on ruleset\n    removeUser(state, parentNum, msg.sender);\n  }\n\n}\n",
  "sourcePath": "/home/tybrown/Nextcloud/Documents/School/GATech_2017_Fall/CS-3312/CyberneticChat-Frontend/contracts/UserLib.sol",
  "compiler": {
    "name": "solc",
    "version": "0.4.18+commit.9cf6e910.Emscripten.clang"
  },
  "schemaVersion": "1.0.1",
  "updatedAt": "2017-11-13T03:35:24.199Z"
}