{
  "contractName": "UserLib",
  "abi": [
    {
      "constant": false,
      "inputs": [
        {
          "name": "state",
          "type": "StateLib.State storage"
        },
        {
          "name": "parentNum",
          "type": "uint256"
        }
      ],
      "name": "join",
      "outputs": [],
      "payable": false,
      "stateMutability": "nonpayable",
      "type": "function"
    },
    {
      "constant": false,
      "inputs": [
        {
          "name": "state",
          "type": "StateLib.State storage"
        },
        {
          "name": "parentNum",
          "type": "uint256"
        }
      ],
      "name": "leave",
      "outputs": [],
      "payable": false,
      "stateMutability": "nonpayable",
      "type": "function"
    },
    {
      "anonymous": false,
      "inputs": [
        {
          "indexed": true,
          "name": "parentNumber",
          "type": "uint256"
        },
        {
          "indexed": true,
          "name": "userAddress",
          "type": "address"
        }
      ],
      "name": "UserJoined",
      "type": "event"
    },
    {
      "anonymous": false,
      "inputs": [
        {
          "indexed": true,
          "name": "parentNumber",
          "type": "uint256"
        },
        {
          "indexed": true,
          "name": "userAddress",
          "type": "address"
        }
      ],
      "name": "UserLeft",
      "type": "event"
    },
    {
      "anonymous": false,
      "inputs": [
        {
          "indexed": true,
          "name": "parentNumber",
          "type": "uint256"
        },
        {
          "indexed": true,
          "name": "kickedUserAddress",
          "type": "address"
        },
        {
          "indexed": true,
          "name": "kickingUserAddress",
          "type": "address"
        },
        {
          "indexed": false,
          "name": "reason",
          "type": "string"
        }
      ],
      "name": "UserKicked",
      "type": "event"
    },
    {
      "anonymous": false,
      "inputs": [
        {
          "indexed": true,
          "name": "parentNumber",
          "type": "uint256"
        },
        {
          "indexed": true,
          "name": "bannedUserAddress",
          "type": "address"
        },
        {
          "indexed": true,
          "name": "banningUserAddress",
          "type": "address"
        },
        {
          "indexed": false,
          "name": "reason",
          "type": "string"
        }
      ],
      "name": "UserBanned",
      "type": "event"
    },
    {
      "anonymous": false,
      "inputs": [
        {
          "indexed": true,
          "name": "parentNumber",
          "type": "uint256"
        },
        {
          "indexed": true,
          "name": "mutedUserAddress",
          "type": "address"
        },
        {
          "indexed": true,
          "name": "mutingUserAddress",
          "type": "address"
        }
      ],
      "name": "UserMuted",
      "type": "event"
    }
  ],
  "bytecode": "0x6060604052341561000f57600080fd5b61092d8061001e6000396000f30060606040526004361061004c576000357c0100000000000000000000000000000000000000000000000000000000900463ffffffff16806364272bdf14610051578063b0e5c60314610072575b600080fd5b6100706004808035906020019091908035906020019091905050610093565b005b610091600480803590602001909190803590602001909190505061059c565b005b60006100a08383336105c1565b1515156100ac57600080fd5b8260000160020160009054906101000a900460ff161561019c5773__PermissionLib_________________________6356e7e9128484336000604051602001526040518463ffffffff167c0100000000000000000000000000000000000000000000000000000000028152600401808481526020018381526020018273ffffffffffffffffffffffffffffffffffffffff1673ffffffffffffffffffffffffffffffffffffffff168152602001935050505060206040518083038186803b151561017557600080fd5b6102c65a03f4151561018657600080fd5b50505060405180519050151561019b57610597565b5b6101a6838361060a565b9050600081600f0160003373ffffffffffffffffffffffffffffffffffffffff1673ffffffffffffffffffffffffffffffffffffffff16815260200190815260200160002054141561045857826006016000016000815480929190600101919050555061010060405190810160405280838152602001600081526020014281526020017fffffffffffffffffffffffffffffffffffffffffffffffffffffffffffffffff81526020013373ffffffffffffffffffffffffffffffffffffffff168152602001600115158152602001600015158152602001602060405190810160405280600081525081525081600d0160003373ffffffffffffffffffffffffffffffffffffffff1673ffffffffffffffffffffffffffffffffffffffff1681526020019081526020016000206000820151816000015560208201518160010155604082015181600201556060820151816003015560808201518160040160006101000a81548173ffffffffffffffffffffffffffffffffffffffff021916908373ffffffffffffffffffffffffffffffffffffffff16021790555060a08201518160040160146101000a81548160ff02191690831515021790555060c08201518160040160156101000a81548160ff02191690831515021790555060e082015181600501908051906020019061039d929190610830565b5090505080600e018054905081600f0160003373ffffffffffffffffffffffffffffffffffffffff1673ffffffffffffffffffffffffffffffffffffffff1681526020019081526020016000208190555080600e01805480600101828161040491906108b0565b9160005260206000209001600033909190916101000a81548173ffffffffffffffffffffffffffffffffffffffff021916908373ffffffffffffffffffffffffffffffffffffffff16021790555050610552565b600181600d0160003373ffffffffffffffffffffffffffffffffffffffff1673ffffffffffffffffffffffffffffffffffffffff16815260200190815260200160002060040160146101000a81548160ff0219169083151502179055503381600e0182600f0160003373ffffffffffffffffffffffffffffffffffffffff1673ffffffffffffffffffffffffffffffffffffffff1681526020019081526020016000205481548110151561050857fe5b906000526020600020900160006101000a81548173ffffffffffffffffffffffffffffffffffffffff021916908373ffffffffffffffffffffffffffffffffffffffff1602179055505b3373ffffffffffffffffffffffffffffffffffffffff16827f6a5f716eff9d9b77c04378575633c0f6784ea8d1a0b7cc011d723b4022decd5760405160405180910390a35b505050565b6105a78282336105c1565b15156105b257600080fd5b6105bd828233610633565b5050565b6000808273ffffffffffffffffffffffffffffffffffffffff161415801561060157506105ef848484610785565b60040160149054906101000a900460ff165b90509392505050565b600061061683836107df565b151561062157600080fd5b61062b838361080e565b905092915050565b600061063f848461060a565b9050600081600d0160008473ffffffffffffffffffffffffffffffffffffffff1673ffffffffffffffffffffffffffffffffffffffff16815260200190815260200160002060040160146101000a81548160ff021916908315150217905550600081600e0182600f0160008573ffffffffffffffffffffffffffffffffffffffff1673ffffffffffffffffffffffffffffffffffffffff168152602001908152602001600020548154811015156106f257fe5b906000526020600020900160006101000a81548173ffffffffffffffffffffffffffffffffffffffff021916908373ffffffffffffffffffffffffffffffffffffffff1602179055508173ffffffffffffffffffffffffffffffffffffffff16837f29b8faa3fcd3114fc2e3197ee983011779d847dd9f2eb40a1b68ee205e98144760405160405180910390a350505050565b600080610792858561060a565b905080600d0160008473ffffffffffffffffffffffffffffffffffffffff1673ffffffffffffffffffffffffffffffffffffffff1681526020019081526020016000209150509392505050565b600082600301600001548211158015610806575060006107ff848461080e565b6006015414155b905092915050565b6000826000016000016000838152602001908152602001600020905092915050565b828054600181600116156101000203166002900490600052602060002090601f016020900481019282601f1061087157805160ff191683800117855561089f565b8280016001018555821561089f579182015b8281111561089e578251825591602001919060010190610883565b5b5090506108ac91906108dc565b5090565b8154818355818115116108d7578183600052602060002091820191016108d691906108dc565b5b505050565b6108fe91905b808211156108fa5760008160009055506001016108e2565b5090565b905600a165627a7a72305820ba5ce298784b3ee7cc2fabcd827f6a6a176a7daf081a158fd90b9d0aee5abac10029",
  "source": "pragma solidity ^0.4.11;\n\nimport \"./ContentLib.sol\";\nimport \"./CurrencyLib.sol\";\nimport \"./PostLib.sol\";\nimport \"./PermissionLib.sol\";\nimport \"./StateLib.sol\";\n\nlibrary UserLib {\n\n  using UserLib for State;\n  using PostLib for PostLib.State;\n  using CurrencyLib for CurrencyLib.State;\n  using PermissionLib for PermissionLib.State;\n\n  event UserJoined(\n    uint256 indexed parentNumber,\n    address indexed userAddress\n  );\n  event UserLeft(\n    uint256 indexed parentNumber,\n    address indexed userAddress\n  );\n  event UserKicked(\n    uint256 indexed parentNumber,\n    address indexed kickedUserAddress,\n    address indexed kickingUserAddress,\n    string reason\n  );\n  event UserBanned(\n    uint256 indexed parentNumber,\n    address indexed bannedUserAddress,\n    address indexed banningUserAddress,\n    string reason\n  );\n  event UserMuted(\n    uint256 indexed parentNumber,\n    address indexed mutedUserAddress,\n    address indexed mutingUserAddress\n  );\n\n\n  struct User {\n    uint256 parentNum;\n    uint256 balance;\n    uint256 joinTime;\n    int256 permissions; //permission level of user, permit negatives for banned/muted/etc type users, also use largest type to permit flags instead of linear values\n    address addr;\n    bool joined;\n    bool banned;\n    string banReason;\n  }\n\n  struct State {\n    uint256 count;\n//    mapping (uint256 => mapping (address => User)) byAddress; //maps ethereum address (public key) to user objects\n//    mapping (uint256 => address[]) addresses;\n  }\n\n  function getUserRaw(StateLib.State storage state, uint256 parentNum, address userAddress) constant internal returns (User storage) {\n    var p = PostLib.getPost(state, parentNum);\n    return (p.users[userAddress]);\n  }\n\n  function userExists(StateLib.State storage state, uint256 parentNum, address userAddress) constant internal returns (bool) {\n    return (userAddress != 0x0 && getUserRaw(state, parentNum, userAddress).joined);\n  }\n\n  function getUser(StateLib.State storage state, uint256 parentNum, address userAddress) constant internal returns (User storage) {\n    require(userExists(state, parentNum, userAddress));\n    return (getUserRaw(state, parentNum, userAddress));\n  }\n\n  function getUserProfile(StateLib.State storage state, address userAddress) constant internal returns (ContentLib.Content) {\n    return (state.main.userProfiles[userAddress]);\n  }\n\n  function userProfileExists(StateLib.State storage state, address userAddress) constant internal returns (bool) {\n    var profile = getUserProfile(state, userAddress);\n    return (profile.creationTime != 0);\n  }\n\n  function getUsers(StateLib.State storage state, uint256 parentNum) constant internal returns (address[]) {\n    var p = PostLib.getPost(state, parentNum);\n    return (p.userAddresses);\n  }\n\n  function join(StateLib.State storage state, uint256 parentNum) public {\n    require(!userExists(state, parentNum, msg.sender));\n\n    if (state.main.initialized) {\n      if (!PermissionLib.userJoin(state, parentNum, msg.sender)) {\n        //UserJoinDenied event emitted by permissionlib\n        return;\n      }\n    }\n\n    var p = PostLib.getPost(state, parentNum);\n\n    if (p.userAddressesMap[msg.sender] == 0) { //user has never been in the group before\n      state.userLib.count++;\n      p.users[msg.sender] = User({\n        parentNum: parentNum,\n        addr: msg.sender,\n        balance: 0, //TODO: ruleset\n        joined: true,\n        joinTime: block.timestamp,\n        banned: false,\n        banReason: \"\",\n        permissions: -1 //TODO: ruleset, permissions for new users\n      });\n\n      p.userAddressesMap[msg.sender] = p.userAddresses.length;\n      p.userAddresses.push(msg.sender);\n    } else { //user has been in the group before, just restore the profile\n      p.users[msg.sender].joined = true;\n      //p.users[msg.sender].parentNum = parentNum;\n      p.userAddresses[p.userAddressesMap[msg.sender]] = msg.sender;\n    }\n\n    UserJoined(parentNum, msg.sender);\n  }\n\n  function removeUser(StateLib.State storage state, uint256 parentNum, address userAddress) internal {\n    var p = PostLib.getPost(state, parentNum);\n    p.users[userAddress].joined = false;\n    p.userAddresses[p.userAddressesMap[userAddress]] = address(0x0);\n    UserLeft(parentNum, userAddress);\n  }\n\n  function leave(StateLib.State storage state, uint256 parentNum) public { \n    require(userExists(state, parentNum, msg.sender));\n\n    //TODO: send the user their ether, based on ruleset\n    removeUser(state, parentNum, msg.sender);\n  }\n\n}\n",
  "sourcePath": "/home/tybrown/Nextcloud/Documents/School/GATech_2017_Fall/CS-3312/CyberneticChat-Frontend/contracts/UserLib.sol",
  "compiler": {
    "name": "solc",
    "version": "0.4.18+commit.9cf6e910.Emscripten.clang"
  },
  "schemaVersion": "1.0.1",
  "updatedAt": "2017-11-08T01:28:17.857Z"
}