{
  "contractName": "UserLib",
  "abi": [
    {
      "constant": false,
      "inputs": [
        {
          "name": "state",
          "type": "StateLib.State storage"
        },
        {
          "name": "parentNum",
          "type": "uint256"
        }
      ],
      "name": "join",
      "outputs": [],
      "payable": false,
      "stateMutability": "nonpayable",
      "type": "function"
    },
    {
      "constant": false,
      "inputs": [
        {
          "name": "state",
          "type": "StateLib.State storage"
        },
        {
          "name": "parentNum",
          "type": "uint256"
        }
      ],
      "name": "leave",
      "outputs": [],
      "payable": false,
      "stateMutability": "nonpayable",
      "type": "function"
    },
    {
      "anonymous": false,
      "inputs": [
        {
          "indexed": true,
          "name": "parentNumber",
          "type": "uint256"
        },
        {
          "indexed": true,
          "name": "userAddress",
          "type": "address"
        }
      ],
      "name": "UserJoined",
      "type": "event"
    },
    {
      "anonymous": false,
      "inputs": [
        {
          "indexed": true,
          "name": "parentNumber",
          "type": "uint256"
        },
        {
          "indexed": true,
          "name": "userAddress",
          "type": "address"
        }
      ],
      "name": "UserLeft",
      "type": "event"
    },
    {
      "anonymous": false,
      "inputs": [
        {
          "indexed": true,
          "name": "parentNumber",
          "type": "uint256"
        },
        {
          "indexed": true,
          "name": "kickedUserAddress",
          "type": "address"
        },
        {
          "indexed": true,
          "name": "kickingUserAddress",
          "type": "address"
        },
        {
          "indexed": false,
          "name": "reason",
          "type": "string"
        }
      ],
      "name": "UserKicked",
      "type": "event"
    },
    {
      "anonymous": false,
      "inputs": [
        {
          "indexed": true,
          "name": "parentNumber",
          "type": "uint256"
        },
        {
          "indexed": true,
          "name": "bannedUserAddress",
          "type": "address"
        },
        {
          "indexed": true,
          "name": "banningUserAddress",
          "type": "address"
        },
        {
          "indexed": false,
          "name": "reason",
          "type": "string"
        }
      ],
      "name": "UserBanned",
      "type": "event"
    },
    {
      "anonymous": false,
      "inputs": [
        {
          "indexed": true,
          "name": "parentNumber",
          "type": "uint256"
        },
        {
          "indexed": true,
          "name": "mutedUserAddress",
          "type": "address"
        },
        {
          "indexed": true,
          "name": "mutingUserAddress",
          "type": "address"
        }
      ],
      "name": "UserMuted",
      "type": "event"
    }
  ],
  "bytecode": "0x6060604052341561000f57600080fd5b610acf8061001e6000396000f30060606040526004361061004c576000357c0100000000000000000000000000000000000000000000000000000000900463ffffffff16806364272bdf14610051578063b0e5c60314610072575b600080fd5b6100706004808035906020019091908035906020019091905050610093565b005b61009160048080359060200190919080359060200190919050506106be565b005b60006100a08383336106e3565b1515156100ac57600080fd5b8260000160010160009054906101000a900460ff161561019c5773__PermissionLib_________________________6356e7e9128484336000604051602001526040518463ffffffff167c0100000000000000000000000000000000000000000000000000000000028152600401808481526020018381526020018273ffffffffffffffffffffffffffffffffffffffff1673ffffffffffffffffffffffffffffffffffffffff168152602001935050505060206040518083038186803b151561017557600080fd5b6102c65a03f4151561018657600080fd5b50505060405180519050151561019b576106b9565b5b6101a6838361072c565b9050600081600f0160003373ffffffffffffffffffffffffffffffffffffffff1673ffffffffffffffffffffffffffffffffffffffff16815260200190815260200160002054141561057a57826005016000016000815480929190600101919050555060e06040519081016040528060a0604051908101604052806020604051908101604052806000815250815260200160206040519081016040528060008152508152602001606060405190810160405280600060ff168152602001600060ff168152602001602060405190810160405280600081525081525081526020013373ffffffffffffffffffffffffffffffffffffffff168152602001428152508152602001838152602001600081526020017fffffffffffffffffffffffffffffffffffffffffffffffffffffffffffffffff8152602001600115158152602001600015158152602001602060405190810160405280600081525081525081600d0160003373ffffffffffffffffffffffffffffffffffffffff1673ffffffffffffffffffffffffffffffffffffffff168152602001908152602001600020600082015181600001600082015181600001908051906020019061036a929190610952565b506020820151816001019080519060200190610387929190610952565b5060408201518160020160008201518160000160006101000a81548160ff021916908360ff16021790555060208201518160000160016101000a81548160ff021916908360ff16021790555060408201518160010190805190602001906103ef9291906109d2565b50505060608201518160040160006101000a81548173ffffffffffffffffffffffffffffffffffffffff021916908373ffffffffffffffffffffffffffffffffffffffff16021790555060808201518160050155505060208201518160060155604082015181600701556060820151816008015560808201518160090160006101000a81548160ff02191690831515021790555060a08201518160090160016101000a81548160ff02191690831515021790555060c082015181600a0190805190602001906104bf929190610952565b5090505080600e018054905081600f0160003373ffffffffffffffffffffffffffffffffffffffff1673ffffffffffffffffffffffffffffffffffffffff1681526020019081526020016000208190555080600e0180548060010182816105269190610a52565b9160005260206000209001600033909190916101000a81548173ffffffffffffffffffffffffffffffffffffffff021916908373ffffffffffffffffffffffffffffffffffffffff16021790555050610674565b600181600d0160003373ffffffffffffffffffffffffffffffffffffffff1673ffffffffffffffffffffffffffffffffffffffff16815260200190815260200160002060090160006101000a81548160ff0219169083151502179055503381600e0182600f0160003373ffffffffffffffffffffffffffffffffffffffff1673ffffffffffffffffffffffffffffffffffffffff1681526020019081526020016000205481548110151561062a57fe5b906000526020600020900160006101000a81548173ffffffffffffffffffffffffffffffffffffffff021916908373ffffffffffffffffffffffffffffffffffffffff1602179055505b3373ffffffffffffffffffffffffffffffffffffffff16827f6a5f716eff9d9b77c04378575633c0f6784ea8d1a0b7cc011d723b4022decd5760405160405180910390a35b505050565b6106c98282336106e3565b15156106d457600080fd5b6106df828233610755565b5050565b6000808273ffffffffffffffffffffffffffffffffffffffff161415801561072357506107118484846108a7565b60090160009054906101000a900460ff165b90509392505050565b60006107388383610901565b151561074357600080fd5b61074d8383610930565b905092915050565b6000610761848461072c565b9050600081600d0160008473ffffffffffffffffffffffffffffffffffffffff1673ffffffffffffffffffffffffffffffffffffffff16815260200190815260200160002060090160006101000a81548160ff021916908315150217905550600081600e0182600f0160008573ffffffffffffffffffffffffffffffffffffffff1673ffffffffffffffffffffffffffffffffffffffff1681526020019081526020016000205481548110151561081457fe5b906000526020600020900160006101000a81548173ffffffffffffffffffffffffffffffffffffffff021916908373ffffffffffffffffffffffffffffffffffffffff1602179055508173ffffffffffffffffffffffffffffffffffffffff16837f29b8faa3fcd3114fc2e3197ee983011779d847dd9f2eb40a1b68ee205e98144760405160405180910390a350505050565b6000806108b4858561072c565b905080600d0160008473ffffffffffffffffffffffffffffffffffffffff1673ffffffffffffffffffffffffffffffffffffffff1681526020019081526020016000209150509392505050565b600082600201600001548211158015610928575060006109218484610930565b6006015414155b905092915050565b6000826000016000016000838152602001908152602001600020905092915050565b828054600181600116156101000203166002900490600052602060002090601f016020900481019282601f1061099357805160ff19168380011785556109c1565b828001600101855582156109c1579182015b828111156109c05782518255916020019190600101906109a5565b5b5090506109ce9190610a7e565b5090565b828054600181600116156101000203166002900490600052602060002090601f016020900481019282601f10610a1357805160ff1916838001178555610a41565b82800160010185558215610a41579182015b82811115610a40578251825591602001919060010190610a25565b5b509050610a4e9190610a7e565b5090565b815481835581811511610a7957818360005260206000209182019101610a789190610a7e565b5b505050565b610aa091905b80821115610a9c576000816000905550600101610a84565b5090565b905600a165627a7a72305820f55686d6709cac0979ee632090db88990e190f67dc71e531c895fd9351bc835c0029",
  "source": "pragma solidity ^0.4.11;\n\nimport \"./ContentLib.sol\";\nimport \"./CurrencyLib.sol\";\nimport \"./PostLib.sol\";\nimport \"./PermissionLib.sol\";\nimport \"./StateLib.sol\";\n\nlibrary UserLib {\n\n  using UserLib for State;\n  using PostLib for PostLib.State;\n  using CurrencyLib for CurrencyLib.State;\n  using PermissionLib for PermissionLib.State;\n\n  event UserJoined(\n    uint256 indexed parentNumber,\n    address indexed userAddress\n  );\n  event UserLeft(\n    uint256 indexed parentNumber,\n    address indexed userAddress\n  );\n  event UserKicked(\n    uint256 indexed parentNumber,\n    address indexed kickedUserAddress,\n    address indexed kickingUserAddress,\n    string reason\n  );\n  event UserBanned(\n    uint256 indexed parentNumber,\n    address indexed bannedUserAddress,\n    address indexed banningUserAddress,\n    string reason\n  );\n  event UserMuted(\n    uint256 indexed parentNumber,\n    address indexed mutedUserAddress,\n    address indexed mutingUserAddress\n  );\n\n\n  struct User {\n    ContentLib.Content contents;\n    uint256 parentNum;\n    uint256 balance;\n    int256 permissions; //permission level of user, permit negatives for banned/muted/etc type users, also use largest type to permit flags instead of linear values\n    bool joined;\n    bool banned;\n    string banReason;\n  }\n\n  struct State {\n    uint256 count;\n//    mapping (uint256 => mapping (address => User)) byAddress; //maps ethereum address (public key) to user objects\n//    mapping (uint256 => address[]) addresses;\n  }\n\n  function getUserRaw(StateLib.State storage state, uint256 parentNum, address userAddress) constant internal returns (User storage) {\n    var p = PostLib.getPost(state, parentNum);\n    return (p.users[userAddress]);\n  }\n\n  function userExists(StateLib.State storage state, uint256 parentNum, address userAddress) constant internal returns (bool) {\n    return (userAddress != 0x0 && getUserRaw(state, parentNum, userAddress).joined);\n  }\n\n  function getUser(StateLib.State storage state, uint256 parentNum, address userAddress) constant internal returns (User storage) {\n    require(userExists(state, parentNum, userAddress));\n    return (getUserRaw(state, parentNum, userAddress));\n  }\n\n  function getUsers(StateLib.State storage state, uint256 parentNum) constant internal returns (address[]) {\n    var p = PostLib.getPost(state, parentNum);\n    return (p.userAddresses);\n  }\n\n  function join(StateLib.State storage state, uint256 parentNum) public {\n    require(!userExists(state, parentNum, msg.sender));\n\n    if (state.main.initialized) {\n      if (!PermissionLib.userJoin(state, parentNum, msg.sender)) {\n        //UserJoinDenied event emitted by permissionlib\n        return;\n      }\n    }\n\n    var p = PostLib.getPost(state, parentNum);\n\n    if (p.userAddressesMap[msg.sender] == 0) { //user has never been in the group before\n      state.userLib.count++;\n      p.users[msg.sender] = User({\n        parentNum: parentNum,\n        contents: ContentLib.Content({\n          title: \"\",\n          mimeType: \"\",\n          multihash: ContentLib.IpfsMultihash({\n            hashFunction: 0,\n            hashLength: 0,\n            hash: \"\"\n          }),\n          creator: msg.sender,\n          creationTime: block.timestamp\n        }),\n        balance: 0, //TODO: ruleset\n        joined: true,\n        banned: false,\n        banReason: \"\",\n        permissions: -1 //TODO: ruleset, permissions for new users\n      });\n\n      p.userAddressesMap[msg.sender] = p.userAddresses.length;\n      p.userAddresses.push(msg.sender);\n    } else { //user has been in the group before, just restore the profile\n      p.users[msg.sender].joined = true;\n      //p.users[msg.sender].parentNum = parentNum;\n      p.userAddresses[p.userAddressesMap[msg.sender]] = msg.sender;\n    }\n\n    UserJoined(parentNum, msg.sender);\n  }\n\n  function removeUser(StateLib.State storage state, uint256 parentNum, address userAddress) internal {\n    var p = PostLib.getPost(state, parentNum);\n    p.users[userAddress].joined = false;\n    p.userAddresses[p.userAddressesMap[userAddress]] = address(0x0);\n    UserLeft(parentNum, userAddress);\n  }\n\n  function leave(StateLib.State storage state, uint256 parentNum) public { \n    require(userExists(state, parentNum, msg.sender));\n\n    removeUser(state, parentNum, msg.sender);\n    //TODO: send the user their ether, based on ruleset\n\n//    var u = getUser(state, parentNum, msg.sender);\n//    var p = PostLib.getPost(state, parentNum);\n    //u.parentNum = 0;\n    //p.users[msg.sender].parentNum = 0;\n    //p.userAddresses[p.userAddressesMap[msg.sender]] = 0;\n  }\n\n}\n",
  "sourcePath": "/home/tybrown/Nextcloud/Documents/School/GATech_2017_Fall/CS-3312/CyberneticChat-Frontend/contracts/UserLib.sol",
  "compiler": {
    "name": "solc",
    "version": "0.4.18+commit.9cf6e910.Emscripten.clang"
  },
  "schemaVersion": "1.0.1",
  "updatedAt": "2017-11-05T22:18:50.662Z"
}