{
  "contractName": "UserLib",
  "abi": [
    {
      "constant": false,
      "inputs": [
        {
          "name": "self",
          "type": "UserLib.State storage"
        }
      ],
      "name": "getUserAddresses",
      "outputs": [
        {
          "name": "",
          "type": "address[]"
        }
      ],
      "payable": false,
      "type": "function",
      "stateMutability": "nonpayable"
    },
    {
      "constant": false,
      "inputs": [
        {
          "name": "self",
          "type": "UserLib.State storage"
        }
      ],
      "name": "join",
      "outputs": [],
      "payable": false,
      "type": "function",
      "stateMutability": "nonpayable"
    },
    {
      "constant": false,
      "inputs": [
        {
          "name": "self",
          "type": "UserLib.State storage"
        }
      ],
      "name": "leave",
      "outputs": [],
      "payable": false,
      "type": "function",
      "stateMutability": "nonpayable"
    },
    {
      "constant": false,
      "inputs": [
        {
          "name": "self",
          "type": "UserLib.State storage"
        }
      ],
      "name": "getUserNumbers",
      "outputs": [
        {
          "name": "",
          "type": "uint256[]"
        }
      ],
      "payable": false,
      "type": "function",
      "stateMutability": "nonpayable"
    },
    {
      "anonymous": false,
      "inputs": [
        {
          "indexed": true,
          "name": "userNumber",
          "type": "uint256"
        },
        {
          "indexed": true,
          "name": "userAddress",
          "type": "address"
        }
      ],
      "name": "UserJoined",
      "type": "event"
    },
    {
      "anonymous": false,
      "inputs": [
        {
          "indexed": true,
          "name": "userNumber",
          "type": "uint256"
        },
        {
          "indexed": true,
          "name": "userAddress",
          "type": "address"
        }
      ],
      "name": "UserLeft",
      "type": "event"
    }
  ],
  "bytecode": "0x6060604052341561000f57600080fd5b610eb28061001e6000396000f300606060405260043610610062576000357c0100000000000000000000000000000000000000000000000000000000900463ffffffff1680631f0144c81461006757806351642238146100d45780636500a04d146100ec578063edd8c01314610104575b600080fd5b61007d6004808035906020019091905050610171565b6040518080602001828103825283818151815260200191508051906020019060200280838360005b838110156100c05780820151818401526020810190506100a5565b505050509050019250505060405180910390f35b6100ea6004808035906020019091905050610209565b005b610102600480803590602001909190505061076e565b005b61011a6004808035906020019091905050610af9565b6040518080602001828103825283818151815260200191508051906020019060200280838360005b8381101561015d578082015181840152602081019050610142565b505050509050019250505060405180910390f35b610179610bd3565b816004018054806020026020016040519081016040528092919081815260200182805480156101fd57602002820191906000526020600020905b8160009054906101000a900473ffffffffffffffffffffffffffffffffffffffff1673ffffffffffffffffffffffffffffffffffffffff16815260200190600101908083116101b3575b50505050509050919050565b6102138133610b5b565b15151561021f57600080fd5b806000016000815480929190600101919050555060806040519081016040528060a0604051908101604052806020604051908101604052806000815250815260200160206040519081016040528060008152508152602001606060405190810160405280600060ff168152602001600060ff168152602001602060405190810160405280600081525081525081526020013373ffffffffffffffffffffffffffffffffffffffff16815260200142815250815260200182600001548152602001600073ffffffffffffffffffffffffffffffffffffffff168152602001600081525081600201600083600001548152602001908152602001600020600082015181600001600082015181600001908051906020019061033f929190610be7565b50602082015181600101908051906020019061035c929190610be7565b5060408201518160020160008201518160000160006101000a81548160ff021916908360ff16021790555060208201518160000160016101000a81548160ff021916908360ff16021790555060408201518160010190805190602001906103c4929190610c67565b50505060608201518160040160006101000a81548173ffffffffffffffffffffffffffffffffffffffff021916908373ffffffffffffffffffffffffffffffffffffffff1602179055506080820151816005015550506020820151816006015560408201518160070160006101000a81548173ffffffffffffffffffffffffffffffffffffffff021916908373ffffffffffffffffffffffffffffffffffffffff1602179055506060820151816008015590508160010160003373ffffffffffffffffffffffffffffffffffffffff1673ffffffffffffffffffffffffffffffffffffffff1681526020019081526020016000206000820181600001600082018160000190805460018160011615610100020316600290046104e7929190610ce7565b506001820181600101908054600181600116156101000203166002900461050f929190610ce7565b5060028201816002016000820160009054906101000a900460ff168160000160006101000a81548160ff021916908360ff1602179055506000820160019054906101000a900460ff168160000160016101000a81548160ff021916908360ff1602179055506001820181600101908054600181600116156101000203166002900461059b929190610d6e565b5050506004820160009054906101000a900473ffffffffffffffffffffffffffffffffffffffff168160040160006101000a81548173ffffffffffffffffffffffffffffffffffffffff021916908373ffffffffffffffffffffffffffffffffffffffff160217905550600582015481600501555050600682015481600601556007820160009054906101000a900473ffffffffffffffffffffffffffffffffffffffff168160070160006101000a81548173ffffffffffffffffffffffffffffffffffffffff021916908373ffffffffffffffffffffffffffffffffffffffff160217905550600882015481600801559050508060040180548060010182816106a59190610df5565b9160005260206000209001600033909190916101000a81548173ffffffffffffffffffffffffffffffffffffffff021916908373ffffffffffffffffffffffffffffffffffffffff1602179055505080600301805480600101828161070a9190610e21565b916000526020600020900160008360000154909190915055503373ffffffffffffffffffffffffffffffffffffffff1681600001547f6a5f716eff9d9b77c04378575633c0f6784ea8d1a0b7cc011d723b4022decd5760405160405180910390a350565b60006107833383610b5b90919063ffffffff16565b151561078e57600080fd5b8160010160003373ffffffffffffffffffffffffffffffffffffffff1673ffffffffffffffffffffffffffffffffffffffff16815260200190815260200160002060060154905060008260010160003373ffffffffffffffffffffffffffffffffffffffff1673ffffffffffffffffffffffffffffffffffffffff168152602001908152602001600020600601819055508160010160003373ffffffffffffffffffffffffffffffffffffffff1673ffffffffffffffffffffffffffffffffffffffff1681526020019081526020016000208260020160008381526020019081526020016000206000820181600001600082018160000190805460018160011615610100020316600290046108a4929190610ce7565b50600182018160010190805460018160011615610100020316600290046108cc929190610ce7565b5060028201816002016000820160009054906101000a900460ff168160000160006101000a81548160ff021916908360ff1602179055506000820160019054906101000a900460ff168160000160016101000a81548160ff021916908360ff16021790555060018201816001019080546001816001161561010002031660029004610958929190610d6e565b5050506004820160009054906101000a900473ffffffffffffffffffffffffffffffffffffffff168160040160006101000a81548173ffffffffffffffffffffffffffffffffffffffff021916908373ffffffffffffffffffffffffffffffffffffffff160217905550600582015481600501555050600682015481600601556007820160009054906101000a900473ffffffffffffffffffffffffffffffffffffffff168160070160006101000a81548173ffffffffffffffffffffffffffffffffffffffff021916908373ffffffffffffffffffffffffffffffffffffffff160217905550600882015481600801559050508160040160018203815481101515610a6057fe5b906000526020600020900160006101000a81549073ffffffffffffffffffffffffffffffffffffffff02191690558160030160018203815481101515610aa257fe5b9060005260206000209001600090553373ffffffffffffffffffffffffffffffffffffffff16817f29b8faa3fcd3114fc2e3197ee983011779d847dd9f2eb40a1b68ee205e98144760405160405180910390a35050565b610b01610e4d565b81600301805480602002602001604051908101604052809291908181526020018280548015610b4f57602002820191906000526020600020905b815481526020019060010190808311610b3b575b50505050509050919050565b6000808273ffffffffffffffffffffffffffffffffffffffff1614151515610b8257600080fd5b60008360010160008473ffffffffffffffffffffffffffffffffffffffff1673ffffffffffffffffffffffffffffffffffffffff168152602001908152602001600020600601541415905092915050565b602060405190810160405280600081525090565b828054600181600116156101000203166002900490600052602060002090601f016020900481019282601f10610c2857805160ff1916838001178555610c56565b82800160010185558215610c56579182015b82811115610c55578251825591602001919060010190610c3a565b5b509050610c639190610e61565b5090565b828054600181600116156101000203166002900490600052602060002090601f016020900481019282601f10610ca857805160ff1916838001178555610cd6565b82800160010185558215610cd6579182015b82811115610cd5578251825591602001919060010190610cba565b5b509050610ce39190610e61565b5090565b828054600181600116156101000203166002900490600052602060002090601f016020900481019282601f10610d205780548555610d5d565b82800160010185558215610d5d57600052602060002091601f016020900482015b82811115610d5c578254825591600101919060010190610d41565b5b509050610d6a9190610e61565b5090565b828054600181600116156101000203166002900490600052602060002090601f016020900481019282601f10610da75780548555610de4565b82800160010185558215610de457600052602060002091601f016020900482015b82811115610de3578254825591600101919060010190610dc8565b5b509050610df19190610e61565b5090565b815481835581811511610e1c57818360005260206000209182019101610e1b9190610e61565b5b505050565b815481835581811511610e4857818360005260206000209182019101610e479190610e61565b5b505050565b602060405190810160405280600081525090565b610e8391905b80821115610e7f576000816000905550600101610e67565b5090565b905600a165627a7a72305820ed9e20c320d5c3109c51349c88b2fec3d10f5530195d24edca92f4124678bcca0029",
  "source": "pragma solidity ^0.4.11;\n\nimport \"./ContentLib.sol\";\nimport \"./CurrencyLib.sol\";\n\nlibrary UserLib {\n\n  using UserLib for State;\n\n  using CurrencyLib for CurrencyLib.State;\n\n  event UserJoined(uint256 indexed userNumber, address indexed userAddress);\n  event UserLeft(uint256 indexed userNumber, address indexed userAddress);\n\n  struct User {\n    ContentLib.Content contents;\n    uint256 number; //must be > 0 if user exists, unique, immutable\n    address directAddress; //null when user has not created/linked a private group (for direct messaging)\n    int256 permissions; //permission level of user, permit negatives for banned/muted/etc type users, also use largest type to permit flags instead of linear values\n  }\n\n  struct State {\n    uint256 count;\n    mapping (address => User) byAddress; //maps ethereum address (public key) to user objects\n    mapping (uint256 => User) byNumber;\n    uint256[] numbers;\n    address[] addresses;\n  }\n\n  function getUserNumbers(State storage self) returns (uint256[]) {\n    return (self.numbers);\n  }\n\n  function userExistsByNumber(State storage self, uint256 num) internal returns (bool) {\n    require(num <= self.count);\n    return (self.byNumber[num].number != 0);\n  }\n\n  function getUserByNumberRaw(State storage self, uint256 num) internal returns (User storage) {\n    return (self.byNumber[num]);\n  }\n\n  function getUserByNumber(State storage self, uint256 num) internal returns (User storage) {\n    require(userExistsByNumber(self, num));\n    return (getUserByNumberRaw(self, num));\n  }\n\n\n  function getUserAddresses(State storage self) returns (address[]) {\n    return (self.addresses);\n  }\n\n  function userExistsByAddress(State storage self, address addr) internal returns (bool) {\n    require(addr != 0x0);\n    return (self.byAddress[addr].number != 0);\n  }\n\n  function getUserByAddressRaw(State storage self, address userAddress) internal returns (User storage) {\n    return (self.byAddress[userAddress]);\n  }\n\n  function getUserByAddress(State storage self, address userAddress) internal returns (User storage) {\n    require(self.userExistsByAddress(userAddress));\n    return (self.getUserByAddressRaw(userAddress));\n  }\n\n  function join(State storage self) {\n    require(!userExistsByAddress(self, msg.sender));\n\n    self.count++;\n    self.byAddress[msg.sender] = self.byNumber[self.count] = User({\n      contents: ContentLib.Content({\n        title: \"\",\n        mimeType: \"\",\n        multihash: ContentLib.IpfsMultihash({\n          hashFunction: 0,\n          hashLength: 0,\n          hash: \"\"\n        }),\n        creator: msg.sender,\n        creationTime: block.timestamp\n      }),\n      number: self.count,\n      directAddress: 0,\n      permissions: 0 //TODO: ruleset\n    });\n\n    self.addresses.push(msg.sender);\n    self.numbers.push(self.count);\n\n    UserJoined(self.count, msg.sender);\n  }\n\n  function leave(State storage self) { \n    require(self.userExistsByAddress(msg.sender));\n\n    //TODO: send the user their ether\n\n    uint256 old_num = self.byAddress[msg.sender].number;\n\n    self.byAddress[msg.sender].number = 0;\n\n    self.byNumber[old_num] = self.byAddress[msg.sender];\n    delete self.addresses[old_num - 1];\n    delete self.numbers[old_num - 1];\n\n    UserLeft(old_num, msg.sender);\n  }\n\n}\n",
  "sourcePath": "/Users/kylegrinstead/Dropbox/Developer/gatech/Junior_Design/Frontend/contracts/UserLib.sol",
  "compiler": {
    "name": "solc",
    "version": "0.4.18+commit.9cf6e910.Emscripten.clang"
  },
  "schemaVersion": "1.0.1",
  "updatedAt": "2017-10-31T22:22:41.932Z"
}